:100000000C9434000C9451000C9451000C94510049
:100010000C9451000C9451000C9451000C9451001C
:100020000C9451000C9451000C9451000C9451000C
:100030000C9451000C9451000C9451000C945100FC
:100040000C9451000C9451000C94F1010C94220278
:100050000C9451000C9451000C9451000C945100DC
:100060000C9451000C94510011241FBECFEFD8E026
:10007000DEBFCDBF11E0A0E0B1E0E4EAF5E002C0F0
:1000800005900D92A031B107D9F721E0A0E1B1E0D0
:1000900001C01D92A439B207E1F70E9453000C94ED
:1000A000D0020C940000CF93DF93CDB7DEB7FFCF23
:1000B000CF93DF9300D000D000D0CDB7DEB79E83C2
:1000C0008D831A82198212C01C821B8205C08B810B
:1000D0009C8101969C838B838B819C81883E93407D
:1000E000B0F389819A8101969A83898329813A8123
:1000F0008D819E812817390738F326960FB6F8941C
:10010000DEBF0FBECDBFDF91CF910895CF93DF93B8
:1001100000D000D0CDB7DEB79C838B831A821982C2
:100120000FC02B813C8189819A81820F931FFC0132
:1001300080810E94DC0189819A8101969A8389835A
:100140002B813C8189819A81820F931FFC018081E0
:10015000882339F70F900F900F900F90DF91CF9178
:100160000895CF93DF93CDB7DEB765970FB6F894B8
:10017000DEBF0FBECDBF8D8B80E1E0E0F1E0DE01A0
:10018000159601900D928A95E1F719821BC08D8911
:1001900082958F708D8B8981882F90E02D89222FF9
:1001A00030E0AE014B5F5F4F240F351FF9014081F6
:1001B0009E012D5F3F4F820F931FFC014083898179
:1001C0008F5F89838981823010F38C818A838B8150
:1001D0008C838A818B8319820FC08981882F90E05C
:1001E0009E012D5F3F4F820F931FFC0180810E9473
:1001F000DC0189818F5F89838981823070F3659604
:100200000FB6F894DEBF0FBECDBFDF91CF9108953A
:10021000CF93DF93CDB7DEB767970FB6F894DEBF05
:100220000FBECDBF9F8B8E8B80E1E0E0F1E0DE0161
:10023000169601900D928A95E1F7198220C08E8959
:100240009F89929582958F7089279F7089279F8BB0
:100250008E8B8981882F90E0AE014A5F5F4F2E8997
:100260003F89240F351FF90140819E012E5F3F4FCA
:10027000820F931FFC01408389818F5F898389816D
:100280008430E8F219827BC08981882F90E029812F
:10029000222F30E0AE014E5F5F4F240F351FF90172
:1002A00060812981222F30E043E050E0FA01E21B17
:1002B000F30B9F01AE014E5F5F4F240F351FF90115
:1002C0002081462F42279E012E5F3F4F820F931FB2
:1002D000FC0140838981882F90E023E030E0A90170
:1002E000481B590BCA012981222F30E043E050E01E
:1002F000BA01621B730B9B01AE014E5F5F4F240F6F
:10030000351FF90160812981222F30E0AE014E5F57
:100310005F4F240F351FF9012081462F42279E0190
:100320002E5F3F4F820F931FFC0140838981882FEE
:1003300090E02981222F30E0AE014E5F5F4F240F05
:10034000351FF90160812981222F30E043E050E020
:10035000FA01E21BF30B9F01AE014E5F5F4F240FCA
:10036000351FF9012081462F42279E012E5F3F4F06
:10037000820F931FFC01408389818F5F898389816C
:10038000823008F481CF67960FB6F894DEBF0FBEB7
:10039000CDBFDF91CF910895CF93DF9300D0CDB73C
:1003A000DEB79A8389830F900F90DF91CF910895E4
:1003B0000E94DE01789408950C9476021092C00099
:1003C00087E690E09093C5008093C400E1ECF0E0F4
:1003D00088E1808386E08093C2008081806A808388
:1003E00008951F920F920FB60F9211242F938F939F
:1003F0009F93EF93FF93809112012091130190E05E
:10040000821B910901978F739927892B79F0E091CD
:100410001301F0E08091C600EC5EFE4F8083809176
:1004200013018F5F8F738093130102C08091C60008
:10043000FF91EF919F918F912F910F900FBE0F9091
:100440001F9018951F920F920FB60F9211242F93A1
:100450008F939F93EF93FF9380911101209110014F
:1004600090E0821B91098F739927892B79F0E09195
:100470001001F0E0EC5AFE4F80818093C60080911D
:1004800010018F5F8F738093100105C08091C100B0
:100490008F7D8093C100FF91EF919F918F912F915C
:1004A0000F900FBE0F901F9018958091130190919F
:1004B0001201891B8F7308958091130120911201FD
:1004C00090E0821B91098F739927892B69F0E09145
:1004D0001201F0E0EC5EFE4F8081909112019F5F6F
:1004E0009F7390931201089580E008950FB607FE60
:1004F0000EC0209110019091110130E0291B3109AB
:10050000215031092F733327232B99F30DC02091EC
:1005100010019091110130E0291B3109215031095E
:100520002F733327232B61F0E0911101F0E0EC5A97
:10053000FE4F8083809111018F5F8F738093110133
:100540008091C10080628093C10008951F93CF9372
:10055000DF93EC0190E011E0190FFE01E90FF11DAE
:100560008081882321F00E947602912FF4CFDF91C1
:10057000CF911F9108951F93CF93DF93EC0190E0EB
:1005800011E0190FFE01E90FF11D8491882321F07C
:100590000E947602912FF4CFDF91CF911F910895A1
:0405A000F894FFCFFD
:1005A40030313233343536373839414243444546A5
:00000001FF
