:100000000C943D000C945A000C945A000C945A0025
:100010000C945A000C945A000C94B5240C945A0079
:100020000C945A000C945A000C945A000C94611CC5
:100030000C945A000C945A000C9400070C945A002B
:100040000C945A000C945A000C94EB240C94132634
:100050000C945A000C945A000C94C40D0C945A0041
:100060000C945A000C945A00B81BD71BE51BEF1BCD
:10007000091C131C1E1C371C411C11241FBECFEF72
:10008000D8E0DEBFCDBF13E0A0E0B1E0E4ECF0E5E6
:1000900002C005900D92AA3BB107D9F725E0AAEB63
:1000A000B3E001C01D92AB3BB207E1F70E94F62618
:1000B0000C9460280C940000CF93DF93CFEFDFEF18
:1000C0006CE473E080E00E948A1981113EC041E037
:1000D00050E06EEB73E080E00E9405168091BE0355
:1000E0000E94B21C8091BE03C81BD109E9CF41E038
:1000F00050E06EEB73E080E00E9405168091BE0335
:100100000E94B21C80E00E944716892BF1F062EB3E
:1001100071E080E00E948A19882349F36BEB71E05B
:1001200080E00E948A196AEB73E08823A1F080E0E6
:100130000E94291A8091BA039091BB0391958195F1
:1001400091099093BB038093BA0380E00E943A190F
:100150008111D8CF04C080E00E94291AF6CF8DEB20
:1001600091E00E94B41CBE0180E090E00E94E21C7D
:10017000CE01DF91CF910895CF93DF93D82FC0E0C8
:10018000CD1739F066EC71E080E00E94C617CF5FB2
:10019000F7CFDF91CF9108956CEC71E080E00C9483
:1001A000C61760E172E080E00C94C6176BE372E062
:1001B00080E00E94C6178AE00E94BC0066E472E0FC
:1001C00080E00E94C61781E00E94BC0068E075E0F4
:1001D00080E00E94EE176FE972E080E00E94C6178F
:1001E0008AE00E94BC006DE472E080E00E94C617C5
:1001F00081E00E94BC0064E175E080E00E94EE179F
:100200006FE972E080E00E94C6178AE00E94BC009D
:100210006BE572E080E00E94C61781E00E94BC009E
:1002200060E275E080E00E94EE176FE972E080E026
:100230000E94C6178AE00E94BC006AE672E080E075
:100240000E94C61781E00E94BC0060912C0570914D
:100250002D0580912E0590912F050E949C13BC01C5
:1002600080E00E94EE176FE972E080E00E94C617FE
:100270008AE00E94BC006CE772E080E00E94C61732
:1002800081E00E94BC0060E375E080E00E94EE1710
:100290006FE972E080E00E94C6178AE00E94BC000D
:1002A00069E872E080E00E94C61781E00E94BC000D
:1002B00066E375E080E00E94EE176FE972E080E08F
:1002C0000C94C617CF93DF9367E972E080E00E9439
:1002D000C6178AE00E94BC0066EA72E080E00E94D5
:1002E000C61781E00E94BC00C9EAD4E06C817D8120
:1002F00080E00E9462186FE972E080E00E94C617F9
:100300008AE00E94BC0060EB72E080E00E94C617A9
:1003100081E00E94BC006E817F8180E00E946218B3
:100320006FE972E080E00E94C6178AE00E94BC007C
:100330006AEB72E080E00E94C61781E00E94BC0078
:100340006885798580E00E9462186FE972E080E03C
:100350000E94C6178AE00E94BC0064EC72E080E054
:100360000E94C61781E00E94BC006A857B8580E000
:100370000E9462186FE972E080E0DF91CF910C94E7
:10038000C617CF93DF930E948A1BEC016EEC72E0DC
:1003900080E00E94C6178AE00E94BC006BED72E00C
:1003A00080E00E94C61781E00E94BC000E948A1B68
:1003B000BC0180E00E9462186FE972E080E00E9458
:1003C000C6178AE00E94BC008091AD049091AE04F3
:1003D000C817D9071CF082EE92E01DC08091AF04CF
:1003E0009091B004C817D9071CF08AEE92E013C0B0
:1003F0008091B1049091B2048C179D071CF082EF9C
:1004000092E009C08091B3049091B4048C179D07C9
:1004100064F78AEF92E09093BD038093BC0361E0A0
:1004200073E080E00E94C61781E00E94BC006091EA
:10043000BC037091BD0380E00E94EE176FE972E08B
:1004400080E0DF91CF910C94C617CF92DF92EF92AC
:10045000FF92CF930E948B10C82F68E073E080E07A
:100460000E94C6176FE972E080E00E94C617C12C97
:10047000D12C7601CC1608F053C08AE00E94BC0053
:100480006FE280E00E94DD17B60180E00E946218F2
:100490008FE00E94BC006DE073E080E00E94C61710
:1004A00020E030E040E050E0C701B6010E94A41017
:1004B000BC01990F880B990B0E949C1381E00E944C
:1004C000BC00609100007091010080910200909149
:1004D00003000E949C13BC0180E00E94EE176FE9AC
:1004E00072E080E00E94C6178FE00E94BC0068E1C5
:1004F00073E080E00E94C61781E00E94BC0060911A
:10050000000070E080E00E9462186FE972E080E015
:100510000E94C6178FEFC81AD80AE80AF80AAACFAD
:10052000CF91FF90EF90DF90CF90089561E073E05E
:1005300080E00E94C6176FE972E080E00E94C61753
:100540008AE00E94BC0062E273E080E00C94C6176F
:1005500061E073E080E00E94C6176FE972E080E01E
:100560000E94C6178AE00E94BC006AE273E080E045
:100570000C94C61760E373E080E00E94C6178AE01F
:100580000E94BC006DE472E080E00E94C61781E02A
:100590000E94BC0064E175E080E00E94EE1764E315
:1005A00073E080E00C94C61760E373E080E00E9483
:1005B000C6178AE00E94BC0066E472E080E00E94F8
:1005C000C61781E00E94BC0068E075E080E00E94F0
:1005D000EE1764E373E080E00C94C6176BE372E0FF
:1005E00080E00E94C6178AE00E94BC006BE572E0C2
:1005F00080E00E94C61781E00E94BC0060E275E0C6
:1006000080E00E94EE176FE972E080E00C94C6175C
:100610006BE372E080E00E94C6178AE00E94BC0093
:100620006AE672E080E00E94C61781E00E94BC008A
:1006300060912C0570912D0580912E0590912F05CC
:100640000E949C13BC0180E00E94EE176FE972E0EB
:1006500080E00C94C6176BE372E080E00E94C6173E
:100660008AE00E94BC006CE772E080E00E94C6173E
:1006700081E00E94BC0060E375E080E00E94EE171C
:100680006FE972E080E00C94C6176BE372E080E0E3
:100690000E94C6178AE00E94BC0069E872E080E010
:1006A0000E94C61781E00E94BC0066E375E080E00E
:1006B0000E94EE176FE972E080E00C94C61767E9BC
:1006C00072E080E00E94C6178AE00E94BC0066EAE1
:1006D00072E080E00E94C61781E00E94BC00609139
:1006E000AD047091AE0480E00E9462186FE972E080
:1006F00080E00C94C61767E972E080E00E94C6179C
:100700008AE00E94BC0064EC72E080E00E94C617A0
:1007100081E00E94BC006091B3047091B40480E059
:100720000E9462186FE972E080E00C94C61767E9D6
:1007300072E080E00E94C6178AE00E94BC0060EB75
:1007400072E080E00E94C61781E00E94BC006091C8
:10075000AF047091B00480E00E9462186FE972E00B
:1007600080E00C94C61767E972E080E00E94C6172B
:100770008AE00E94BC006AEB72E080E00E94C6172B
:1007800081E00E94BC006091B1047091B20480E0ED
:100790000E9462186FE972E080E00C94C6176EEC5C
:1007A00072E080E00E94C6178AE00E94BC006BEDF8
:1007B00072E080E00E94C61781E00E94BC000E94A7
:1007C0008A1BBC0180E00E9462186FE972E080E041
:1007D0000C94C617CF93DF930E948A1BEC016EEC3A
:1007E00072E080E00E94C6178AE00E94BC008091FF
:1007F000AD049091AE04C817D9071CF082EE92E0C8
:100800001DC08091AF049091B004C817D9071CF0A7
:100810008AEE92E013C08091B1049091B2048C17DB
:100820009D071CF082EF92E009C08091B304909183
:10083000B4048C179D0764F78AEF92E09093BD0390
:100840008093BC036BED72E080E00E94C61781E0EC
:100850000E94BC006091BC037091BD0380E00E94C7
:10086000EE176FE972E080E0DF91CF910C94C6172C
:10087000CF93DF93EC01C73184EFD80709F417C198
:1008800008F064C0C43F83EFD80709F44CC178F581
:10089000CB3883EFD80709F400C1A0F4C13082EF50
:1008A000D80709F4E6C0C13383EFD80709F056C171
:1008B0000E94CC000E94D10085E00E94BC000E94F2
:1008C000EE02BDC0CC3883EFD80709F4C8C0CE3ED5
:1008D00083EFD80709F042C10E94CC008091BA038F
:1008E0009091BB039093B4048093B30440C1C7308C
:1008F00084EFD80709F4E5C0A8F4C83F83EFD80710
:1009000009F41CC1CE3F83EFD80709F027C10E942C
:10091000CC008091BA039091BB039093AE04809376
:10092000AD0430C1CD3084EFD80709F4D4C0C13153
:1009300084EFD80709F012C10E94CC000E94D100B8
:1009400085E00E94BC000E94970379C0C83D87EFF4
:10095000D80709F4FEC070F5C03186EFD80709F456
:10096000C4C0A0F4C33284EFD80709F48CC0CC30E3
:1009700086EFD80709F0F2C00E94CC000E94D10097
:1009800085E00E94BC000E94EA0359C0C83886EF87
:10099000D80709F45AC0CC3987EFD80709F0DEC070
:1009A0000E94CC000E94D10085E00E94BC000E9401
:1009B000620145C0C83C88EFD807C1F1A0F4C13F2F
:1009C00087EFD80709F49BC0CC3588EFD80709F02A
:1009D000C5C00E94CC000E94D10085E00E94BC00EE
:1009E0000E94C1012CC0C03D88EFD80709F491C016
:1009F000C1348AEFD80709F0B1C00E94CC000E9430
:100A0000D10085E00E94BC000E94D60085E00E94D3
:100A1000BC000E94620185E00E94BC000E94C101EE
:100A200085E00E94BC000E9425026DC00E94CC009F
:100A30000E94D10085E00E94BC000E94D6006AE3BB
:100A400073E080E00E94C61792C00E94CC000E9412
:100A5000D10085E00E94BC000E94D402F0CF0E9429
:100A6000CC000E94D10085E00E94BC000E94BA0226
:100A7000E6CF0E94CC000E94D10085E00E94BC001D
:100A80000E940803DCCF0E94CC000E94D10085E0C8
:100A90000E94BC000E942B03D2CF0E94CC000E9477
:100AA000D10085E00E94BC000E944503C8CF0E948F
:100AB000CC000E94D10085E00E94BC000E945F0330
:100AC000BECF0E94CC000E94D10085E00E94BC00F5
:100AD0000E947B03B4CF0E94CC000E94D10085E02D
:100AE0000E94BC000E94B303AACF0E94CC000E94C7
:100AF000D10085E00E94BC000E94CF03A0CF0E94DD
:100B0000CC000E94D10085E00E94BC000E949602A9
:100B100096CF0E94CC000E94D10085E00E94BC00CC
:100B20000E9425028CCF0E94CC008091BA03909144
:100B3000BB039093B2048093B10419C00E94CC000F
:100B40008091BA039091BB039093B0048093AF045B
:100B50000EC00E94CC000E94A80209C06FE473E09E
:100B600080E00E94C617CE3F83EFD80759F0C43FFC
:100B700083EFD80739F0C83F83EFD80719F0CE3E8E
:100B8000D34F21F4DF91CF910C948906DF91CF915F
:100B9000089508958F929F92AF92BF92EF92FF9225
:100BA0000F931F93CF93DF9300D000D01F92CDB748
:100BB000DEB77C018FEE898381E08A838B838C830F
:100BC00048EB52E2BE016F5F7F4F83E00E94B81492
:100BD00048EB52E2BE016F5F7F4F83E00E94F7183F
:100BE0000E94A4140E94FF1A8C010E94A414AC015C
:100BF000980160E070E083E00E94A3170E94A414B3
:100C00000E94FF1A8C0121E030E047E853E0BC016C
:100C100083E00E94A3170F5F1F4F88E095E00E94BA
:100C2000FF1A9C0148E055E0B80183E00E94A31739
:100C300088E095E00E94FF1A080F191F21E030E0BC
:100C400047E853E0B80183E00E94A317B8016F5F43
:100C50007F4FC70124E0969587952A95E1F78A3062
:100C6000910510F0895C01C0805D8D8321E030E04A
:100C7000AE014B5F5F4F83E00E94A317B8016E5F28
:100C80007F4F8E2D8F7097012F7033272A303105BB
:100C900010F0895C01C0805D8D8321E030E0AE0101
:100CA0004B5F5F4F83E00E94A31783E00E941C19F3
:100CB0000E94B6074B015C0125EF820E21E0921ED7
:100CC000A11CB11C0E94B607681579058A059B0511
:100CD000C9F783E00E9470158FE793E00E94B41C6F
:100CE000B70180E090E00E94E21C8CE493E00E9457
:100CF000B41C0F900F900F900F900F90DF91CF9139
:100D00001F910F91FF90EF90BF90AF909F908F90A9
:100D1000089581E08093BF0308958091A9048134F0
:100D200061F48091AA04833541F481E090E0209140
:100D3000AB04253521F080E002C080E090E0E9EAD4
:100D4000F4E020E033E13E0F4191240F3E13FCCF4D
:100D500011F080E090E0089562E170E080E091E0C1
:100D60000E94EA1D42E160E071E080E490E00C94B2
:100D7000FA0D0E94430E892BE1F742E169EA74E023
:100D800080E490E00E942E0E0E948D06892B49F48B
:100D90000E94AC0642E169EA74E080E490E00E94BF
:100DA0002E0E1092BF0308950E94430E892B99F4D2
:100DB0008091BF03882379F062E170E089EA94E0D2
:100DC0000E94EA1D42E169EA74E080E490E00E943A
:100DD000FA0D1092BF0308958091BF03882379F024
:100DE00062E170E089EA94E00E94EA1D42E169EA6A
:100DF00074E080E490E00E94170E1092BF03089503
:100E00001F920F920FB60F9211242F933F938F933F
:100E10009F93AF93BF932091CA033091CB038091EE
:100E2000C2039091C3032817390749F08091CA0380
:100E30009091CB0301969093CB038093CA032091AA
:100E4000CC033091CD038091C4039091C503281742
:100E5000390749F08091CC039091CD03019690938E
:100E6000CD038093CC038091C6039091C703A091DA
:100E7000C803B091C9030196A11DB11D8093C6039B
:100E80009093C703A093C803B093C903BF91AF91D8
:100E90009F918F913F912F910F900FBE0F901F90B8
:100EA000189589EF87BD82E084BD93E095BD789465
:100EB00080936E001092C6031092C7031092C8036D
:100EC0001092C90308958230910550F4F894880F68
:100ED000991FFC01E653FC4F80819181789408951D
:100EE00080E090E008958230910598F4880F991F72
:100EF000FC01E653FC4F40815181FC01EE53FC4F55
:100F000081E090E0208131814217530721F080E099
:100F1000089580E090E008950F931F93CF93DF939F
:100F2000EC018B018091C0039091C103892B41F4A6
:100F30000E94510781E090E09093C1038093C00329
:100F4000C230D10570F48FB7F894CC0FDD1FFE01CD
:100F5000EE53FC4F11830083C653DC4F1982188275
:100F60008FBFDF91CF911F910F9108958091C003A2
:100F70009091C103892B41F40E94510781E090E0D8
:100F80009093C1038093C003F8946091C60370915D
:100F9000C7038091C8039091C903789408958CED9C
:100FA00093E0089580EE93E0089584EE93E0089531
:100FB00088EE93E008958CEE93E0089544E150E0CC
:100FC00060E00E960C94D41A08952F923F924F929F
:100FD0005F926F927F928F929F92AF92BF92CF92C9
:100FE000DF92EF92FF920F931F93CF93DF93CDB7D2
:100FF000DEB7E6970FB6F894DEBF0FBECDBF8C010B
:101000006A017B0119011AAA19AA0E94B6072B01CD
:101010003C0182E00E944916892BF9F40E94B60730
:10102000DC01CB0184199509A609B709C816D906B0
:10103000EA06FB0608F468C00E94B6074B015C0193
:1010400023E3820E911CA11CB11C0E94B6076815F7
:1010500079058A059B05C9F7DCCF48E050E0BE0161
:101060006D5D7F4F82E00E94A516FFA08BA18BA72C
:101070008CA18CA78DA18DA78EA18EA7E8A442E29A
:1010800050E0BE016F5F7F4F82E00E94A51689810C
:10109000823011F08AA997C18F2D90E0982F882770
:1010A0008E0D911D83349105A9F76D817E818F810D
:1010B00098850E943F28F101608371838283938326
:1010C00046E050E0B801685F7F4FCE014D960E9428
:1010D000DE1A892BD9F4F10180819181A281B3813B
:1010E000F801408151816281738184179507A607B9
:1010F000B70760F0448155816681778148175907A9
:101100006A077B0718F004C08FEF5DC180E05BC108
:1011100044E050E0BE016F5E7F4FC8010E960E9412
:10112000C81A8EECE82EF12C41E050E0BE01615D62
:101130007F4F82E00E94A516F1E0EF1AF108A1F7B7
:10114000C80182969CAB8BABF801B696FEABEDABBB
:101150001801FAE22F0E311C08977C012E019BE248
:10116000490E511C6801E2E1CE0ED11C5801F6E196
:10117000AF0EB11C48012EE1820E911C82E00E944C
:101180004916892B09F486CF41E050E0BE01605D2D
:101190007F4F82E00E94A51688A9833309F4DFC03F
:1011A000D0F48130B1F150F3833009F441C086307E
:1011B00009F0F4C041E050E0BE016F5C7F4F82E077
:1011C0000E94A51644E050E0B40182E00E94A516FA
:1011D000612C712C50C08A3309F48CC030F48533F3
:1011E00051F0863309F45AC0D9C08B3309F49DC03D
:1011F0008F3F21F2D3C041E050E0BE016F5C7F4FD2
:1012000082E00E94A51641E050E0BE016E5C7F4F77
:101210000BC041E050E0BE016F5C7F4F82E00E9456
:10122000A51644E050E0B60182E00E94A516A6CFC4
:1012300041E050E0BE016F5C7F4F82E00E94A51646
:1012400044E050E0B50182E00E94A516612C712CAB
:1012500089A990E00497681679060CF08FCF41E0D9
:1012600050E0BE01615D7F4F82E00E94A5168FEFC6
:10127000681A780AEDCF89A990E004976816790674
:101280000CF07CCF41E050E0BE01615D7F4F82E019
:101290000E94A5169FEF691A790AEDCF41E050E050
:1012A000BE016F5C7F4F82E00E94A516F801828D1F
:1012B000811109C0838D811106C0848D811103C005
:1012C000858D882319F0E414F50421F444E050E0FE
:1012D000B701AACF89A99FEF980F99AB882309F48A
:1012E0004DCF41E050E0BE01615D7F4F82E00E9442
:1012F000A516F0CF41E050E0BE016F5C7F4F82E069
:101300000E94A51644E050E06DA97EA982E00E94EB
:10131000A516F80166A177A180A591A50E943F2896
:1013200066A377A380A791A729CF41E050E0BE0133
:101330006F5C7F4F82E00E94A51644E050E0B1014F
:1013400082E00E94A516F80162A573A584A595A563
:101350000E943F2862A773A784A795A70FCF41E0FB
:1013600050E0BE016F5C7F4F82E00E94A51644E012
:1013700050E06BA97CA982E00E94A516F80162A149
:1013800073A184A195A10E943F2862A373A384A3A3
:1013900095A366A777A780AB91ABF0CE41E050E074
:1013A000BE016F5C7F4F82E00E94A51689A99FEF66
:1013B000980F99AB882309F4E1CE41E050E0BE01DB
:1013C000615D7F4FF0CFE6960FB6F894DEBF0FBE9B
:1013D000CDBFDF91CF911F910F91FF90EF90DF90E4
:1013E000CF90BF90AF909F908F907F906F905F90C5
:1013F0004F903F902F9008950E960895429608952D
:10140000469608954A9608954E96089580E3FB0106
:1014100080833296842F82958F7090E1899F401946
:1014200011244A3014F4405D01C0495C4293482FB6
:101430008111F0CF0895AF92BF92DF92EF92FF92A9
:101440000F931F93CF93DF93CDB7DEB7AA970FB655
:10145000F894DEBF0FBECDBF8C01D62EF42EE52E44
:1014600040E250E060E0CE0101960E94D41A8FEF76
:101470008DA38EA38FA388A743E450E0BE016B5DCC
:101480007F4F82E00E94F718892B09F4FBC081E0AE
:1014900089838A8386E08B831C82F801648175814D
:1014A000868197810E943F2869A37AA38BA39CA37E
:1014B00044E050E0BE016F5D7F4FCE0105960E9473
:1014C000C81AE986FA8680E890E09AA789A742E0E0
:1014D00050E0BE01675D7F4FCE010B960E94C81A97
:1014E0002CE130E0AE014F5F5F4F60E070E082E0E2
:1014F0000E94A31740E250E060E0CE0101960E94F6
:10150000D41A5801F8E0AF0EB11C46E050E0B50126
:10151000CE0101960E94C81A20E130E0AE014F5F73
:101520005F4F6CE170E082E00E94A31740E250E060
:1015300060E0CE0101960E94D41A8CE2E82EF12CD4
:1015400020E230E0AE014F5F5F4FB70182E00E94C2
:10155000A31780E2E80EF11CECEEEE16F10481F721
:1015600083E6898392E89A8393E59B838C8385E362
:101570008D8381E08E83DF829DE3988797E0998752
:101580008A8746E050E0B501CE010B960E94C81A4A
:101590008CE0898B89E893E00E94FF1A8A5F8A8B2E
:1015A00069E873E0CE0143960E94F51AF80143857D
:1015B000BE01675E7F4FC8010E94060AF80144859C
:1015C000BE01655E7F4FC8010E94060AF80145858D
:1015D000BE01635E7F4FC8010E94060A2EE130E023
:1015E000AE014F5F5F4F6CEE70E082E00E94A31788
:1015F000F3E0DF1227C082E3898384E08A83F80165
:1016000096859B8397859C8390899D8391899E83F2
:1016100096E39F838887828D8987838D8A87848DCF
:101620008B87858D8C872CE030E0AE014F5F5F4F5C
:101630006AE071E082E00E94A31766E171E080E059
:1016400090E004C06AE071E080E090E027E3298345
:1016500026E02A8331E03B8333E03C832D832FE077
:101660002E832AE32F832BE328872FEF298729E076
:1016700030E0AE014F5F5F4F82E00E94A31782E02F
:101680000E941C19AA960FB6F894DEBF0FBECDBFFC
:10169000DF91CF911F910F91FF90EF90DF90BF905E
:1016A000AF9008952F923F924F925F926F927F92E8
:1016B0008F929F92AF92BF92CF92DF92EF92FF9262
:1016C0000F931F93CF93DF9300D000D0CDB7DEB739
:1016D0008C0120ED37E040E050E061E070E080E018
:1016E00090E00E94191EA0E0B0E0F8018483958389
:1016F000A683B78380839183A283B38382E00E9411
:10170000701564E470E082E00E946815882309F493
:1017100030C10E94B6074B015C01212C312CF12C09
:101720006801F2E4CF0ED11C48EE442E43E0542E63
:10173000612C712C52E0E52ED6018C91833009F496
:10174000FFC081111FC0F80184819581A681B781F6
:101750000196A11DB11D84839583A683B7830E9442
:10176000B607681979098A099B09A30192010E94A9
:10177000F827A90161E0C8010E941B0A81E0D60197
:101780008C93C0C08430F1F4F80184819581A681E6
:10179000B7810196A11DB11D84839583A683B7836C
:1017A0000E94B607681979098A099B09A301920169
:1017B0000E94F827A90163E0C8010E941B0AD60114
:1017C000EC92A0C0813051F5F80142AD53AD64AD4B
:1017D00075AD9E012F5F3F4FC8010E94E507F82EAF
:1017E000F2E08F138FC089819A81AB81BC81F801AF
:1017F00084839583A683B7830E94B6076819790905
:101800008A099B09A30192010E94F827A90163E0BC
:10181000C8010E941B0AD601FC927AC0823009F0EE
:1018200071C0F80142AD53AD64AD75AD9E012F5F3F
:101830003F4FC8010E94E507F82EF5E08F135CC00A
:10184000E3E0D601EC93F80182A193A1A4A1B5A194
:10185000892B8A2B8B2B41F484E893E0A0E0B0E045
:1018600082A393A3A4A3B5A3F80186A197A1A0A5E1
:10187000B1A5892B8A2B8B2B61F482A193A1A4A102
:10188000B5A1B695A7959795879586A397A3A0A789
:10189000B1A7F80182A593A5A4A5B5A5892B8A2B8C
:1018A0008B2BA9F482A193A1A4A1B5A1AC01BD0188
:1018B00023E076956795579547952A95D1F7841B30
:1018C000950BA60BB70B82A793A7A4A7B5A7F80102
:1018D00086A197A1A0A5B1A586A797A7A0ABB1ABFC
:1018E00082A593A5A4A5B5A582AB93ABA4ABB5ABDC
:1018F00022242394312C0CC0F6E08F1303C0D601B0
:101900001C9206C0BFEFFB1203C0F6011082F12C3F
:10191000F1E02F16310409F40FCF0E94B607DC0165
:10192000CB0188199909AA09BB09F80126A937A989
:1019300040AD51AD281739074A075B0708F0FCCEC8
:1019400082E00E947015F80184819581A681B7819B
:101950000196A11DB11D84839583A683B7830E9440
:10196000B607F801FE966083718382839383C10179
:1019700002C080E090E00F900F900F900F90DF91E9
:10198000CF911F910F91FF90EF90DF90CF90BF907C
:10199000AF909F908F907F906F905F904F903F900F
:1019A0002F900895CF92DF92EF92FF920F931F93A3
:1019B000CF93DF93EC016B011AA21BA21CA21DA204
:1019C0001EA21FA218A619A61AA61BA61CA61DA613
:1019D0002EAB3FAB48AF59AFEAAEFBAE0CAF1DAF7D
:1019E0008C01085F1F4F46E050E060E0C8010E9494
:1019F000D41ACE010E94DE0746E050E0B601C801CD
:101A00000E94C81AFE01EE5BFF4F1082CE01DF91EB
:101A1000CF911F910F91FF90EF90DF90CF900C949A
:101A2000520BEF92FF920F931F93780189019A0155
:101A3000AB01BC018EEC93E00E94D20C1F910F9180
:101A4000FF90EF900895CF92DF92EF92FF920F9365
:101A50001F93CF93DF93EC010E94B6076B017C01CB
:101A60008E01025C1F4FF80180819181A281B381B8
:101A7000A7019601281B390B4A0B5B0BCA01B90160
:101A8000683E33E073078105910508F441C028EEF4
:101A900033E040E050E00E94F827C61AD70AE80A6F
:101AA000F90AF801C082D182E282F3828EA59FA555
:101AB000A8A9B9A969017A01CC0CDD1CEE1CFF1C98
:101AC0008C159D05AE05BF0528F41EA61FA618AAF5
:101AD00019AA08C0821B930BA40BB50B8EA79FA756
:101AE000A8ABB9AB8AA99BA9ACA9BDA98C159D05CA
:101AF000AE05BF0528F41AAA1BAA1CAA1DAA08C075
:101B0000821B930BA40BB50B8AAB9BABACABBDABF1
:101B10008EA59FA5A8A9B9A9892B8A2B8B2B69F41F
:101B2000FE01EE5BFF4F8081833039F484E08083D7
:101B3000CE010E94520B019602C080E090E04AA9BB
:101B40005BA96CA97DA9452B462B472B81F4FE018F
:101B5000EE5BFF4F2081233011F0211108C010826D
:101B6000CE010E94DE07CE010E94520B0396DF9148
:101B7000CF911F910F91FF90EF90DF90CF9008953C
:101B80008EEC93E00C94230D1F920F920FB60F92E0
:101B900011248F939F93EF93FF93E091FF04809123
:101BA000BE04E81720F0FB981092BB041AC0809185
:101BB000BC049091BD0492BD81BD81E08E0F8093E5
:101BC000FF04F0E0E154FB4F808180BD8091BC04B4
:101BD0009091BD0401969093BD048093BC04FA9A41
:101BE000F99AFF91EF919F918F910F900FBE0F90F7
:101BF0001F9018952091BB042111FCCF9093BD0438
:101C00008093BC0481E08093BB041092FF04409356
:101C1000BE04FB012FEB34E0D9018A2F821B84170D
:101C200018F481918D93F9CF7894FB9A0895FB0174
:101C3000861B970B50E0DC01AE0FBF1F9F01261BD8
:101C4000370B2417350748F4F999FECFB2BDA1BD73
:101C5000219120BDFA9AF99AEECF08952091BB0404
:101C60002111FCCFFB01861B970B2E2F261B24175F
:101C700048F49C012E0F3F1F32BD21BDF89A20B5BC
:101C80002193F3CF08958091BB0490E0089560E024
:101C900070E080E090E00E948C07219A29980895D6
:101CA000299A089529980895909312048093110415
:101CB00010921504109214041092130460E070E066
:101CC00080E090E00E948C070C94520E80911104E9
:101CD00090911204892B09F452C080E090E00E9498
:101CE0007307892B09F44BC080911304811134C010
:101CF0002091140430911504E0911104F091120424
:101D0000E20FF31F80818032E9F03CF481111DC0A5
:101D1000109215041092140408958D3239F08E3209
:101D2000A1F40E94500E6AEF70E004C00E94500EB1
:101D30006EEE72E080E090E00E948C0781E080937C
:101D40001304089568EE73E00BC02F5F3F4F30938C
:101D500015042093140408950E94520E64E670E066
:101D600080E090E00E948C0710921304809114048C
:101D7000909115040196909315048093140408958E
:101D800085B18695817090E008958031910504F5C4
:101D900027E0289FA001299F500D1124FA01E75E3A
:101DA000FB4F80818132A0F480E090E020E0FC01D4
:101DB000E40FF51FE75EFB4F3081230F019687305C
:101DC0009105A9F781E090E0222321F080E00895B9
:101DD00080E090E008956F927F928F929F92AF92F1
:101DE000BF92CF92DF92EF92FF920F931F93CF9308
:101DF000DF930E94430E892BE1F709E814E0C0E865
:101E0000D0E0BE0167567C4F47E0CE010E942E0E07
:101E1000F80111928F012796C03FD10591F739E162
:101E2000E32E34E0F32E8701C0E0D0E0D12C712CFA
:101E300088248A94CE010E94C50E892B41F0F801B6
:101E40008081881520F47C2E882EDD24D394219661
:101E5000095F1F4FC031D10569F7DD2009F470C05B
:101E60007092180480921704982CA12CB12CC72DC5
:101E7000D0E06E01FFEFCF1ADF0A27E0622E860165
:101E80000A0D1B1D0F701127C8010E94C50E892B5A
:101E900061F4709216048E0101501109609780E17F
:101EA000C82ED12C97E0992E3EC0609EF001619E15
:101EB000F00D1124E75EFB4F4081842F90E0292D27
:101EC00030E02F5F3F4F2F7133278217930709F7B9
:101ED00000931804409317048FEFA81AB80AEFE094
:101EE000AE16B104B1F2942ECACFF701808190E012
:101EF000282D30E0215E3F4F2F7133278217930743
:101F000031F5A0921604969CF001979CF00D1124D7
:101F1000E75EFB4F808001501109F7E0EF0EF11CE6
:101F20000C171D07A1F0C801B6010E94E4275C014F
:101F30003C017724C3010E94C50E892BB1F607C06E
:101F40008FE0809318041092170410921604DF910A
:101F5000CF911F910F91FF90EF90DF90CF90BF90A6
:101F6000AF909F908F907F906F900895FF920F9306
:101F70001F93CF93DF930E94430E892B31F5E9E83D
:101F8000F4E0C0E0D0E081918823D9F087E08C9F15
:101F900080018D9F100D1124075E1B4F67E070E0DC
:101FA000C8010E94EA1D27E0C29FC001112447E03A
:101FB000B80180589F4F0E94FA0DC757DB4F188217
:101FC00004C02196C031D105F1F6DF91CF911F9168
:101FD0000F91FF900895FF920F931F93CF93DF937C
:101FE000E9E8F4E0C0E0D0E081918823D9F087E00F
:101FF0008C9F80018D9F100D1124075E1B4F67E0A1
:1020000070E0C8010E94EA1D27E0C29FC0011124B0
:1020100047E0B80180589F4F0E94170EC757DB4F0B
:10202000188204C02196C031D105F1F6DF91CF911D
:102030001F910F91FF900895EF92FF920F931F93BE
:10204000CF93DF93E82EC0911804D0E02196CF7093
:10205000DD278091160490E00E94C50EF82E909125
:1020600017049F5F913218F49093170402C01092E6
:10207000170487E08C9F80018D9F100D1124075E4F
:102080001B4F80911704F80180830E94CB11F80147
:102090006183728383839483E582C093180467E02D
:1020A00070E0C8010E94EA1DC757DB4F81E08883BA
:1020B0009091180480911604981309C0FF2039F0FC
:1020C000892F90E001968F70992780931604DF91F5
:1020D000CF911F910F91FF90EF900895E9E1F4E007
:1020E000A9E8B4E08FEF4FEF5FEFBA0191E0808392
:1020F000858341835283638374839D93379624E061
:10210000E938F207A1F78FE08093180410921604C3
:102110001092170408950F931F93CF93DF930091AC
:102120001604C02F10E0D0E0CE010E94C50E892B0E
:1021300029F02196CF701F5FC013F5CF812FDF915B
:10214000CF911F910F910895AF92BF92CF92DF92DE
:10215000EF92FF920F931F93CF93DF936B017C015C
:102160008A0159010E948B1090E0A0E0B0E0C816EF
:10217000D906EA06FB06F8F48091160490E0C80E32
:10218000D91E8FE0C822DD2487E08C9DF0018D9D53
:10219000F00D1124E75EFB4F81819281A381B48110
:1021A000E80188839983AA83BB838581F5018083B5
:1021B00081E090E002C080E090E0DF91CF911F913C
:1021C0000F91FF90EF90DF90CF90BF90AF90089568
:1021D0004F925F926F927F928F929F92AF92BF9237
:1021E000CF92DF92EF92FF920F931F93CF93DF93E3
:1021F000CDB7DEB7CA57D1090FB6F894DEBF0FBE10
:10220000CDBFF82E80ECE6968FAFE69788EAE7968A
:102210008FAFE79781E0E8968FAFE89782E0E99685
:102220008FAFE99783E00E940315882329F06BE7BD
:1022300070E083E00E94681550E3E52E6E0101E432
:10224000C00ED11C63E2462E512C612C712CFF2054
:1022500009F482C0F6010E2D11920A95E9F7F601F4
:1022600040825182628273820BE710E09E012B58FC
:102270003F4F40E350E0B60183E00E945316C09701
:1022800009F06AC00E94B6074B015C01F9EE8F0E9F
:10229000F3E09F1EA11CB11C0E94B60768157905CA
:1022A0008A059B05C9F783E00E944916009709F447
:1022B00051C08E0107581F4F9E012F583F4FAC0150
:1022C000BE016F5F7F4F83E00E94CB16C09709F07D
:1022D00041C069A5862F90E0A0E0B0E0BA2FA92FF9
:1022E000982F88272AA5820F911DA11DB11DBA2FF5
:1022F000A92F982F88272BA5820F911DA11DB11DF5
:10230000BA2FA92F982F88274CA550E060E070E0E5
:102310004058534169417C4B8A019B01080F191FAA
:102320002A1F3B1FC901B8010E949C130E94F11192
:1023300080E993E00E94B41C0E94A4140E94B41C83
:102340008DE993E00E94B41C83E00E94701581E047
:1023500090E007C0FA947BCF83E00E94701580E084
:1023600090E0C658DF4F0FB6F894DEBF0FBECDBF6A
:10237000DF91CF911F910F91FF90EF90DF90CF9061
:10238000BF90AF909F908F907F906F905F904F9095
:1023900008950C94861C0C94961C60930005709311
:1023A000010580930205909303050C94A21C9C01E7
:1023B00060E971E00E94D027892B79F0C901837010
:1023C0009927892B61F4C90164E670E00E94D02747
:1023D0009C0181E0232B21F402C081E0089580E07C
:1023E00008952F923F924F925F926F927F928F92B9
:1023F0009F92AF92BF92CF92DF92EF92FF920F9394
:102400001F93CF93DF93CDB7DEB767970FB6F894DE
:10241000DEBF0FBECDBFAC018CE0EEE2F1E09E016D
:102420002F5F3F4F1901D90101900D928A95E1F775
:10243000DA0111962C91119721538C91880F8056B7
:10244000982F990F990F890F280F2D8713968C912C
:102450001397082E000C990BC0976AE0689F9001B3
:10246000699F300D11241496CC900C2C000CDD08C3
:10247000B0E3CB1AD108C20ED31E86010150110958
:10248000FA018681082E000C990BC097E8EEF3E064
:102490008E9F90018F9F300D9E9F300D1124DA0189
:1024A00017968C911797082E000C990BC09774E61D
:1024B000789F7001799FF00C1124E20EF31E18969C
:1024C0002C911897022E000C330B20533109629F78
:1024D000C001639F900D1124E80EF91E19968C918E
:1024E0001997F701E80FF11D87FDFA959F01385004
:1024F00079011C962C911C9720531B968C911B974D
:10250000880F8056982F990F990F890F280F298BC4
:102510001F962C911F9720531E968C911E97880F03
:102520008056982F990F990F890F280F2A8B529652
:102530002C915297205351968C91880F8056982F4A
:10254000990F990F890F280F2B8BC7010E94D71164
:10255000882321F03D85323008F08601C70160E90B
:1025600071E00E94D027FC01DB0120E839E540E65C
:1025700050EF0E9455282B013C01CF0164E670E02A
:102580000E94D027FC01DB0120E032EC47E15CEB4C
:102590000E9455284B015C01DF01B695A795B695C1
:1025A000A79520E83FE146E857E00E9455286B01D7
:1025B0007C01DF01A370BB2720E833E341EE51E04B
:1025C0000E9455286C8B7D8B8E8B9F8BF1018E2FFB
:1025D00082194D85841720F48191080F111DF7CFC2
:1025E0005989252F30E0A0E1BEE00E9446286D8782
:1025F0007E878F87988B8A89282F30E0ACE3B0E004
:102600000E9446282D853E854F855889260F371F05
:10261000481F591FDA01C9013B89830F911DA11D74
:10262000B11D480E591E6A1E7B1E840C951CA61CEB
:10263000B71CC80CD91CEA1CFB1C8C899D89AE896F
:10264000BF89C80ED91EEA1EFB1ED80120E831E55D
:1026500041E050E00E945528DC01CB018C0D9D1D0E
:10266000AE1DBF1D8093000590930105A093020548
:10267000B093030567960FB6F894DEBF0FBECDBFCB
:10268000DF91CF911F910F91FF90EF90DF90CF904E
:10269000BF90AF909F908F907F906F905F904F9082
:1026A0003F902F900C94A21CEF92FF920F931F93D8
:1026B000CF93DF93CDB7DEB768970FB6F894DEBF40
:1026C0000FBECDBF7B012CE0EEE2F1E0DE011D96F6
:1026D00001900D922A95E1F78E010F5F1F4F2CE0BC
:1026E000F80111922A95E9F70E94D7118A83DE0139
:1026F0001D9680E0F701408151819D91F801219163
:102700008F0130E0290F311D4217530740F0421B63
:10271000530BF701518340838F5F8C3059F76896D4
:102720000FB6F894DEBF0FBECDBFDF91CF911F91E2
:102730000F91FF90EF9008954F925F926F927F926A
:102740008F929F92AF92BF92CF92DF92EF92FF92C1
:102750000F931F93CF93DF9300D0CDB7DEB74B011C
:102760005C0181E090E0A0E0B0E020E8821629E57D
:10277000920620E6A20620EFB20618F480E090E070
:10278000DC0120E931E0829F8001839F100D929F40
:10279000100D1124F801E053F84FC12CD12C760113
:1027A000C39480E8881689E5980680E6A80680EF3D
:1027B000B80618F4C12CD12C7601A701960160E867
:1027C00079E580E690EF0E94C02775016401C61A82
:1027D000D70AE80AF90A81E090E0A0E0B0E0C1146D
:1027E00022ECD20627E1E2062CEBF20618F480E098
:1027F00090E0DC0124E6289F8001299F100D112420
:102800000E0F1F1F21E030E040E050E0C11482ECC9
:10281000D80687E1E8068CEBF80618F420E030E0F3
:10282000A90160E072EC87E19CEB0E94C027A70140
:102830009601261B370B480B590BCA01B90120E83A
:102840003FE146E857E00E94F827220F331F220F8E
:10285000331F020F131F20E833E341EE51E00E94C3
:10286000F8276801C20ED31E20E831E541E050E0B0
:102870000E94F8274B015C013A832983BE016F5FF8
:102880007F4FC6010E945413F82EC501B40120E108
:102890003EE040E050E00E94F82729013A014B0158
:1028A0005C0163EA73E082E191E00E94F51AEF2D8A
:1028B000F0E0BF016F5F7F4F42E082E191E00E9454
:1028C000081B89819A81BC016F5F7F4F42E085E1DF
:1028D00091E00E94081B44E0B60188E191E00E946B
:1028E000081B42E0B2018DE191E00E94081BC50186
:1028F000B4012CE330E040E050E00E94F827890169
:102900009A016B017C0142E0B80180E291E00E94F3
:10291000081B42E0B60183E291E00E94081B82E1BD
:1029200091E00F900F90DF91CF911F910F91FF9049
:10293000EF90DF90CF90BF90AF909F908F907F905F
:102940006F905F904F9008950F931F930E94961C75
:1029500000910005109101052091020530910305B9
:10296000600F711F821F931F1F910F910C949C1376
:10297000EF92FF921F93CF93DF9300D000D000D04F
:10298000CDB7DEB7182F7A0186E0EAE3F1E0DE0189
:10299000119601900D928A95E1F7FB0181818F7765
:1029A0008C8382818D8383818E83812F0E947E22FE
:1029B000BE016F5F7F4F812F0E947022B701812F70
:1029C0000E948C22B701812F0E94472262E8812F4A
:1029D0000E94182261E0812F0E942A2281E026961F
:1029E0000FB6F894DEBF0FBECDBFDF91CF911F9120
:1029F000FF90EF9008950E94432291E0823209F007
:102A000090E0892F08950E94432291E0811190E087
:102A1000892F08950E944322882341F08C3131F0A0
:102A200091E08A3109F490E0892F089580E00895BB
:102A30000E94432291E0843109F090E0892F0895AB
:102A40000E94432291E0873109F090E0892F089598
:102A50000E94432291E0811190E0892F0895CF9345
:102A6000C82F60E10E942A226FEF8C2FCF910C9427
:102A70003522FF920F931F93CF93DF931F92CDB711
:102A8000DEB7F82E8A0169830E942F1569818F2D88
:102A90000E9418220115110511F0B8010AC06091B9
:102AA000990470919A046F5F7F4F70939A046093BA
:102AB00099048F2D0E94472261E08F2D0E942A22C7
:102AC00081E00F90DF91CF911F910F91FF900895BA
:102AD000AB0162E00C943915AB0161E00C9439153F
:102AE0000C942F15CF93C82F0E944322833131F4C9
:102AF00062E08C2F0E942A2281E001C080E0CF9109
:102B000008950F931F93CF93FB0190819F3F51F442
:102B100091819F3F91F492819F3F79F493819F3FF0
:102B200061F41DC0911109C09181911106C092817B
:102B3000911103C09381992399F04115510579F0C2
:102B40008A01BF01C82F0E947E22B8018C2F0E94EB
:102B50008C2264E08C2F0E942A2291E001C090E038
:102B6000892FCF911F910F91089568E00C942A222C
:102B7000DF92EF92FF920F931F93CF93DF9300D0DA
:102B8000CDB7DEB7D82E8A014130584010F000E0B2
:102B900018E08D2D69837A830E9422237C018D2D7C
:102BA0000E94432269817A81873111F08C3121F4AE
:102BB000E016F10670F302C000E010E0A8018D2DD0
:102BC0000E94DB2360E28D2D0E942A228D2D0E941F
:102BD0003A2284FD0BC08D2D0E9443228111F6CF35
:102BE0008D2D0E942F1580E090E005C060E18D2DB5
:102BF0000E943522C8010F900F90DF91CF911F9155
:102C00000F91FF90EF90DF900895CF92DF92EF92B7
:102C1000FF921F93CF93DF9300D0CDB7DEB7182F6D
:102C20007A0169837A830E940A246C0169817A811E
:102C3000009791F4812F0E9443228431E9F0882388
:102C4000D9F021E030E08C3111F420E030E0CC24E8
:102C5000DD24C21AD30A10C0E816F9060CF4670185
:102C60001C141D044CF420E0A601812F0E94842432
:102C700060E4812F0E942A22C6010F900F90DF91FD
:102C8000CF911F91FF90EF90DF90CF9008950C941B
:102C90000A240C940A2421E041E050E00E9484249C
:102CA00081E090E00895CF92DF92EF92FF920F9330
:102CB0001F93CF93F9019081911109C091819111D6
:102CC00006C09281911103C093819923A1F101154E
:102CD000110589F17A014130584018F0E12C98E053
:102CE000F92EE114F10439F16B01C82FBF010E94E4
:102CF0007E22B8018C2F0E948C22A701B6018C2F56
:102D00000E94DB2360E28C2F0E942A228C2F0E94DB
:102D10003A2284FD0AC08C2F0E943A2283FFF6CF0C
:102D200068E18C2F0E94352206C060E18C2F0E9442
:102D30003522C70102C080E090E0CF911F910F9132
:102D4000FF90EF90DF90CF900895CF92DF92FF92A7
:102D50000F931F93CF93DF934115510591F08A0193
:102D60006B01F82E0E940A24EC010817190708F4D9
:102D7000E80120E0AE01B6018F2D0E948424CE012F
:102D800002C080E090E0DF91CF911F910F91FF9002
:102D9000DF90CF9008958F929F92BF92CF92DF9253
:102DA000EF92FF920F931F93CF93DF93CDB7DEB7D0
:102DB00028970FB6F894DEBF0FBECDBF452B09F4A0
:102DC0007EC049016B01B82E0E9437247C018B2DF7
:102DD0000E941D228770833059F1843009F445C068
:102DE000823009F065C028E030E0AE014F5F5F4FF0
:102DF000B7018B2D0E94FA2088E0E80EF11C898132
:102E0000F40180838A8181838B8182838C81838397
:102E10008D8190E0982F88272E81820F911DF801D7
:102E2000918380830F8110E0102F002788851AC0BE
:102E300026E030E0AE014F5F5F4FB7018B2D0E945F
:102E4000FA20F6E0EF0EF11C8981F40180838A817B
:102E500081838B8182838C8183830D8110E0102F8D
:102E600000278E81080F111D16C022E030E0AE0150
:102E70004F5F5F4FB7018B2D0E94FA20F2E0EF0EFB
:102E8000F11C098110E0902F88270A8110E0025080
:102E90001109080F191F9801A601B7018B2D0E9477
:102EA000FA20B701600F711F8B2D0E94262402C0EB
:102EB00000E010E060E48B2D0E942A2202C000E0B6
:102EC00010E0C80128960FB6F894DEBF0FBECDBF44
:102ED000DF91CF911F910F91FF90EF90DF90CF90F6
:102EE000BF909F908F9008951F93CF93DF93182FDB
:102EF000EA014130584018F42097F9F002C0C0E0D0
:102F0000D8E0AE01812F0E94DB2360E2812F0E9476
:102F10002A22812F0E943A2284FD09C0812F0E941B
:102F20003A2283FFF6CF812F0E942F1506C060E161
:102F3000812F0E943522CE0102C080E090E0DF9117
:102F4000CF911F910895CF92DF92EF92FF921F933E
:102F5000CF93DF93182F7B016A01E9010E9422239E
:102F60008C179D0720F4812F0E942223EC019E01E3
:102F7000A601B701812F0E949023CE01DF91CF914E
:102F80001F91FF90EF90DF90CF9008951F93CF9304
:102F9000DF9300D0CDB7DEB7182FCB0169837A83DA
:102FA0000E94FF1AAC0169817A81812F0F900F90E6
:102FB000DF91CF911F910C94B815CF93DF931F929F
:102FC000CDB7DEB7698341E050E0BE016F5F7F4F50
:102FD0000E94B8150F90DF91CF9108950F931F9322
:102FE000CF93C82F8B0162E20E94DD17B8018C2FAE
:102FF0000E94C61762E28C2FCF911F910F910C9403
:10300000DD17CF93C82FCB01BA010E949C13BC01DE
:10301000FC0112868C2FCF910C94EE17CF93DF9387
:10302000D82FC62F70E084E0759567958A95E1F7F3
:103030006A3010F4605D01C0695C8D2F0E94DD175D
:103040006C2F6F706A3010F0695C01C0605D8D2F6D
:10305000DF91CF910C94DD17EF92FF920F931F93A6
:10306000CF93C82F7B0162E20E94DD17F7016191C7
:103070008F018C2F0E940E18F6E0EF0EF11C6AE310
:103080008C2F0E94DD17F80161918F018C2F0E9417
:103090000E180E151F0599F762E28C2FCF911F9124
:1030A0000F91FF90EF900C94DD17CF93DF93C82F13
:1030B000D62F672F0E940E186D2F8C2FDF91CF9186
:1030C0000C940E182F923F924F925F926F927F92C4
:1030D0008F929F92AF92BF92CF92DF92EF92FF9228
:1030E0000F931F93CF93DF93CDB7DEB762970FB6E1
:1030F000F894DEBF0FBECDBF782E8B0177FF08C0DE
:1031000011950195110981E090E0998B888B02C09F
:10311000198A188AFE0131967F011E01FBE02F0EED
:10312000311C670188248394912CA12CB12CAAE036
:10313000B0E09401A5010E9455286A8B472E582EB5
:10314000692EB801012E000C880B990B2A89342DA9
:10315000452D562D0E941A289401A5010E941A2877
:10316000F60121936F01021B110927FD13958A882F
:10317000942CA52CB62CE215F305C9F688899989FB
:10318000892B21F06DE2872D0E94DD17810180E0FF
:1031900090E0F80162918F01611105C0009719F468
:1031A000EE15FF0541F4605DF8016083872D0E94F4
:1031B000DD1781E090E00E151F0559F762960FB6F6
:1031C000F894DEBF0FBECDBFDF91CF911F910F915D
:1031D000FF90EF90DF90CF90BF90AF909F908F9037
:1031E0007F906F905F904F903F902F9008950F9336
:1031F0001F93CF93FB019081911109C0918191118F
:1032000006C09281911103C09381992379F04115F1
:10321000510561F08A01BF01C82F0E947E22B801CA
:103220008C2F0E948C2281E090E002C080E090E030
:10323000CF911F910F910895CF93C82F60E20E9404
:103240002A228C2F0E943A2284FD0CC08C2F0E94CF
:103250003A2283FFF6CF68E18C2F0E94352280E06E
:1032600090E006C060E18C2F0E94352281E090E062
:10327000CF910895EF92FF920F931F93CF93DF9317
:103280001F92CDB7DEB7182FE12CF12C812F0E94B1
:103290000A24E816F90688F401E0970141E050E0BD
:1032A000BE016F5F7F4F812F0E944F2489818A303A
:1032B00031F08FEFE81AF80AE9CF80E001C081E031
:1032C0000F90DF91CF911F910F91FF90EF90089594
:1032D0001F93CF93DF931F92CDB7DEB7182F0E94B5
:1032E0000A24892B89F021E041E050E0BE016F5FA4
:1032F0007F4F812F0E948424998181E09D3029F0A5
:103300009A3019F080E001C081E00F90DF91CF91F9
:103310001F9108958F929F92AF92BF92CF92DF92AA
:10332000EF92FF920F931F93CF93DF931F92CDB72E
:10333000DEB7182F5B010E940A247C01C5010E94A0
:10334000FF1AE816F90668F175016701CA18DB086B
:103350004701F7018081882399F001E0960141E05F
:1033600050E0BE016F5F7F4F812F0E944F248FEF8F
:10337000E81AF80AF40190818981981731F311C095
:10338000C114D10461F041E050E0BE016F5F7F4F96
:10339000812F0E940516F1E0CF1AD108F1CF81E00C
:1033A00001C080E00F90DF91CF911F910F91FF90AE
:1033B000EF90DF90CF90BF90AF909F908F90089547
:1033C0001F93CF93DF931F92CDB7DEB7182F812FB6
:1033D0000E940A24892BC1F141E050E0BE016F5FD9
:1033E0007F4F812F0E94051689818D30D1F4812F66
:1033F0000E940A24892B59F321E041E050E0BE01EC
:103400006F5F7F4F812F0E94842489818A30E1F48D
:1034100041E050E0BE016F5F7F4F812F0E94051693
:1034200013C08A30A1F6812F0E940A24892B79F2D9
:1034300021E041E050E0BE016F5F7F4F812F0E948D
:10344000842489818D3021F30F90DF91CF911F91DA
:103450000895BF92CF92DF92EF92FF920F931F9346
:10346000CF93DF931F92CDB7DEB7C82E8B01FB0140
:10347000118210820E940A24892B09F450C0D12C99
:10348000EE24E394F12C2AE0B22E8C2D0E940A2423
:10349000892BB1F121E041E050E0BE016F5F7F4F29
:1034A0008C2D0E94842429812D3231F4D11037C013
:1034B000EE24EA94FE2C1BC080ED820F8A3098F433
:1034C000F80140815181B49EC001B59E900D112438
:1034D000022E000C330B20533109280F391F318382
:1034E0002083D39404C02A3059F0223749F041E0B8
:1034F00050E0BE016F5F7F4F8C2D0E940516C5CF37
:10350000F801208131812E9DC0012F9D900D3E9D9F
:10351000900D11249183808381E0D11001C080E05F
:103520000F90DF91CF911F910F91FF90EF90DF905F
:10353000CF90BF9008959FB7F894229B2A9A229A21
:103540008CB580618CBD8CB580648CBD259A239A26
:1035500010929B049FBF089580919B0408959091C1
:103560009B04911109C09FB7F8948CBD6DBD81E09B
:1035700080939B049FBF2A9808958EBD00000DB4D0
:1035800007FEFDCF8EB508952A9A10929B040895E8
:10359000FB01480F591F8417950729F02191DC0181
:1035A0002D93CD01F8CF0895480F591F8417950723
:1035B00021F0FC016193CF01F9CF0895FB01480F81
:1035C000591F8417950759F0DC013D91CD012191D8
:1035D000321740F02317A8F781E090E0089580E0CB
:1035E00090E008958FEF9FEF0895FC01DB018D912E
:1035F000BD01882311F08193F9CF10820895FC0159
:103600009F01281B390B41914111FACFC90108953F
:103610007F928F929F92AF92BF92CF92DF92EF9262
:10362000FF920F931F93CF93DF9300D000D01F9290
:10363000CDB7DEB7FC017B019E012F5F3F4F4E01EE
:1036400086E0880E911C01E010E069018AE0782E86
:10365000709E5001719EB00C1124C701B5010E94EB
:10366000D027B8010E94D027D9016D939D01E61A99
:10367000F10867FDF3948501A815B90549F760E0E5
:1036800070E024E030E050E0D601A20FB31F8C912F
:10369000811106C06115710519F42115310541F438
:1036A000241735072CF4805D819361E070E004C03D
:1036B000241735070CF431962150310928F70F9063
:1036C0000F900F900F900F90DF91CF911F910F915E
:1036D000FF90EF90DF90CF90BF90AF909F908F9032
:1036E0007F90089588EC80937C0086E880937A0030
:1036F000089580917A00829586958695837091E0F1
:103700008927817090E00895EAE7F0E08081806485
:1037100080830895809178002091790030E0322FE5
:103720002227A901330F660B770B9A01AB01282BD7
:10373000A5E6B0E00E94552824E630E040E050E0E5
:103740000E941A28DA01C90181519140A109B109E9
:10375000089508950F931F93E0919C04F0919D04A8
:10376000E930F10508F09BC0EC5CFF4F0C94392860
:103770008417950764F08BEB91E00E94540E86E06D
:103780000E941C1086E090E00E94CA0525C0081720
:1037900019070CF48EC08BEB91E00E94540E88E068
:1037A0000E941C1088E090E00E94CA050BC084179C
:1037B00095070CF7081719070CF47BC08BEB91E009
:1037C0000E94540E86E090E065C084179507FCF2D5
:1037D0008BEB91E00E94540E83E090E05BC0861773
:1037E000970764F087EB93E00E94540E85E00E94F7
:1037F0001C1085E090E00E94CA0512C0841795074E
:103800000CF057C087E893E00E94540E82E090E0ED
:1038100041C08617970794F387EB93E00E94540EFC
:1038200085E090E037C0861797070CF042C08BEB1D
:1038300091E00E94540E84E090E02CC028173907D4
:1038400064F087EB93E00E94540E87E00E941C1006
:1038500087E090E00E94CA0511C0081719074CF5CF
:1038600087E893E00E94540E81E090E013C028178F
:1038700039079CF387EB93E00E94540E88E090E0B8
:1038800009C028173907ACF48BEB91E00E94540E65
:1038900087E090E090939D0480939C040AC010926E
:1038A0009D0410929C0487E893E01F910F910C9463
:1038B000540E1F910F91089510929D0410929C0434
:1038C00008951F920F920FB60F9211248F939F931A
:1038D000AF93BF9380919E0490919F04A091A00408
:1038E000B091A1040196A11DB11D80939E049093F7
:1038F0009F04A093A004B093A104BF91AF919F91A6
:103900008F910F900FBE0F901F90189583E294EF48
:103910009093890080938800109280008CE08093BF
:103920008100789482E080936F0008952FB7F89417
:1039300060919E0470919F048091A0049091A104D5
:103940002FBF08958FB7F89410929E0410929F0491
:103950001092A0041092A1048FBF08950E94D82451
:10396000789408950C949C26CF93DF93EC01899171
:10397000882319F00E949C26FACFDF91CF910895F9
:10398000CF93C82F90E024E0959587952A95E1F78D
:103990008A3010F4805D01C0895C0E949C268C2FC7
:1039A0008F708A3010F0895C01C0805DCF910C94DB
:1039B0009C26CF93C82F892F0E94C01C8C2FCF919B
:1039C0000C94C01C2F923F924F925F926F927F9205
:1039D0008F929F92AF92BF92CF92DF92EF92FF921F
:1039E0000F931F93CF93DF93CDB7DEB763970FB6D7
:1039F000F894DEBF0FBECDBF6B017C0197FF0DC0F9
:103A0000F094E094D094C094C11CD11CE11CF11C32
:103A100081E090E09B8B8A8B02C01B8A1A8A8E0100
:103A20000F5F1F4FFE013B96F98BE88B5801662410
:103A30006394712C812C912CAAE0B0E09301A40135
:103A40000E9455281B012C01C701B6019101A2015A
:103A50000E941A289301A4010E941A28F5012193BB
:103A60005F01822F220F990BAA0BBB0BC81AD90A30
:103A7000EA0AFB0A3101420188899989E817F907A6
:103A8000D9F6EA89FB89EF2B19F08DE20E949C267A
:103A9000CE010B967C0120E030E0F70182917F019E
:103AA000811106C02115310519F4E017F10729F439
:103AB000805D0E949C2621E030E0E016F10669F767
:103AC00063960FB6F894DEBF0FBECDBFDF91CF91E6
:103AD0001F910F91FF90EF90DF90CF90BF90AF902C
:103AE0009F908F907F906F905F904F903F902F901E
:103AF00008950C9472260C949926FF920F931F93AD
:103B0000CF93DF93EC01062FF72E18820E947226C6
:103B100010E08823D9F00E9446268823B9F00E943D
:103B20004D26803210F089931F5FE02FFF2D482F24
:103B300050E02191222339F0022E000C330B421762
:103B40005307B9F702C08D3051F71882812FDF91EA
:103B5000CF911F910F91FF9008950F931F93CF93D3
:103B6000DF938C01EC01699170E080E090E00E94AD
:103B7000E21C0C5F1F4F8EE20E949C26699170E050
:103B800080E090E00E94E21CC017D107A1F78CE40E
:103B900093E0DF91CF911F910F910C94B41CDC0145
:103BA000FB019D91992341F08191891784F0981729
:103BB000C4F78FEF9FEF089581E090E020812111FD
:103BC00002C080E090E0919581959109089581E08F
:103BD00090E00895DC0190E020E061507109422FEF
:103BE00050E0FD01E40FF51F4617570720F48081D0
:103BF000980F2F5FF4CF919590830895611571050B
:103C00008105910541F060932A0170932B01809307
:103C10002C0190932D01211531054105510541F0ED
:103C200020932601309327014093280150932901C6
:103C300008954F925F926F927F928F929F92AF9270
:103C4000BF92CF92DF92EF92FF92CF93DF9300D09B
:103C500000D0CDB7DEB72B013C0129833A834B83DB
:103C60005C83C0902601D0902701E0902801F0905D
:103C70002901A701960144275527A9E6B0E90E942A
:103C800055286701EE24FF244B015C018C0C9D1C20
:103C9000AE1CBF1C8092260190922701A0922801A1
:103CA000B0922901C0902A01D0902B01E0902C0104
:103CB000F0902D01A701960144275527A0E5B6E411
:103CC0000E9455286701EE24FF24C60ED71EE81E69
:103CD000F91EC0922A01D0922B01E0922C01F092A1
:103CE0002D01D40199278827BC01CD016C0D7D1DC4
:103CF0008E1D9F1D29813A814B815C8124193509D4
:103D0000460957090E94F827CB01840D951D0F9095
:103D10000F900F900F90DF91CF91FF90EF90DF9079
:103D2000CF90BF90AF909F908F907F906F905F905B
:103D30004F900895CF93DB01FC0120812D3221F4B7
:103D400001964FEF5FEF02C041E050E011961C92E8
:103D50001E92FC01CAE020818D919C911197222333
:103D6000C1F0C89FB001C99F700D112411967C93BA
:103D70006E93219180ED820F8A30B8F4022E000CF0
:103D8000330B20533109260F371F11963C932E9386
:103D9000E2CF849F9001859F300D949F300D1124B8
:103DA0002D933C9381E090E002C080E090E0CF91C1
:103DB000089580910405833561F48091050585346B
:103DC00041F481E090E020910605223521F080E069
:103DD00002C080E090E0E4E0F5E020E038E33E0F50
:103DE0004191240F3E13FCCF11F080E090E0089544
:103DF000CF93DF93CDB7DEB7E7970FB6F894DEBF6A
:103E00000FBECDBF87E3E0E4F1E0DE011196019043
:103E10000D928A95E1F767E370E0CE0101960E946A
:103E2000EA1D47E3BE016F5F7F4F80E090E00E9494
:103E3000FA0DE7960FB6F894DEBF0FBECDBFDF9147
:103E4000CF9108950E94430E892BE1F747E364E088
:103E500075E080E090E00E942E0E0E94D91E892B12
:103E600049F40E94F81E47E364E075E080E090E0CA
:103E70000C942E0E08950F931F93CF93DF931F92F0
:103E8000CDB7DEB7082F162F62E080E599830E9438
:103E9000AF1A80EF0E94BD1A9981892F0E94BD1A26
:103EA000802F0E94BD1A812F0E94BD1A0E94C41A41
:103EB00081E090E00F90DF91CF911F910F910895D5
:103EC000CF92DF92EF92FF9260E880E090E00E9454
:103ED0003B1F0E94B6076B017C0122E0C20ED11C81
:103EE000E11CF11C0E94B6076C157D058E059F052F
:103EF000C9F7FF90EF90DF90CF9008958F929F9237
:103F0000AF92BF92CF92DF92EF92FF920F931F93E7
:103F1000CF93DF93EC018B016A017901FA01608193
:103F200081E090E00E943B1FF601618182E090E019
:103F30000E943B1FF601628183E090E00E943B1FDC
:103F4000F601638184E090E00E943B1F0E94B60767
:103F50004B015C01F2E08F0E911CA11CB11C0E9470
:103F6000B607681579058A059B05C9F7688189E058
:103F700090E00E943B1F69818AE090E00E943B1F15
:103F80006A818BE090E00E943B1F6B818CE090E0A7
:103F90000E943B1F6C818DE090E00E943B1F6D8171
:103FA0008EE090E00E943B1F0E94B6074B015C012F
:103FB00022E0820E911CA11CB11C0E94B60768155C
:103FC00079058A059B05C9F7F701608185E090E0D6
:103FD0000E943B1FF701618186E090E00E943B1F39
:103FE000F701628187E090E00E943B1FF701638147
:103FF00088E090E00E943B1F0E94B6076B017C01A5
:10400000F2E0CF0ED11CE11CF11C0E94B6076C152A
:104010007D058E059F05C9F7F80160818FE090E06E
:104020000E943B1FF801618180E190E00E943B1FEC
:10403000F801628181E190E00E943B1FF8016381F9
:1040400082E190E00E943B1F0E94B6076B017C0159
:10405000F2E0CF0ED11CE11CF11C0E94B6076C15DA
:104060007D058E059F05C9F765E58AE190E00E9410
:104070003B1F65E58BE190E00E943B1F80E0DF91F4
:10408000CF911F910F91FF90EF90DF90CF90BF9055
:10409000AF909F908F900895CF92DF92EF92FF9212
:1040A0000F931F93CF93DF93EC017A018B016C0187
:1040B000C40ED51ECC15DD05B1F062E080E50E948E
:1040C000AF1A80EF0E94BD1A8D2F0E94BD1A8C2F4F
:1040D0000E94BD1A2196F80181918F010E94BD1A9C
:1040E0000E94C41AE7CFC701DF91CF911F910F91B2
:1040F000FF90EF90DF90CF9008951F93CF93DF93C1
:104100001F92CDB7DEB7182F62E080E599830E9439
:10411000AF1A8FE00E94BD1A9981892F0E94BD1AA3
:10412000812F0E94BD1A80E00E94BD1A89830E94DF
:10413000C41A89810F90DF91CF911F910895CF927A
:10414000DF92EF92FF920F931F93CF93DF93EC01D7
:104150007A018B016C01C40ED51ECC15DD05B9F0BA
:1041600062E080E50E94AF1A8FE00E94BD1A8D2F99
:104170000E94BD1A8C2F0E94BD1A219680E00E94D9
:10418000BD1AF80181938F010E94C41AE6CFC701BE
:10419000DF91CF911F910F91FF90EF90DF90CF9023
:1041A000089590E00496982F8827860F971F0C9407
:1041B0007D209B0190E00496982F8827642F820F22
:1041C000931F0E943B1F0895FB01BA0190E00496E3
:1041D000982F8827A9018E0F9F1F0C949F20FB0109
:1041E000BA0190E00496982F8827A9018E0F9F1F8F
:1041F0000C944C20AF92BF92CF92DF92EF92FF923D
:104200000F931F93CF93DF9300D0CDB7DEB77A83A0
:104210006983BA01A901A981BA81B770E82FF0E0DA
:10422000EE0FFF1FE958FE4FA080B180C5018A0F35
:104230009B1F2A0F3B1F2130384088F08A016B01F9
:1042400020E038E07901EA1AFB0AA7010E949F20CA
:10425000A8014E195F09B6016E0D7F1DC5010F90B3
:104260000F90DF91CF911F910F91FF90EF90DF9012
:10427000CF90BF90AF900C949F20682F80E090E08B
:104280000C943B1F80E090E00C947D2044E050E0D3
:10429000BC0181E090E00C944C2044E050E0BC0173
:1042A00081E090E00C949F2044E050E0BC0185E068
:1042B00090E00C944C2044E050E0BC0185E090E09C
:1042C0000C949F2046E050E0BC0189E090E00C9403
:1042D0004C2046E050E0BC0189E090E00C949F2027
:1042E00044E050E0BC018FE090E00C944C2044E0AE
:1042F00050E0BC018FE090E00C949F20682F85E196
:1043000090E00C943B1F85E190E00C947D20682F99
:1043100086E190E00C943B1F86E190E00C947D20B8
:10432000CF93C82F692F87E190E00E943B1F6C2F2D
:1043300088E190E0CF910C943B1FCF93DF9387E10E
:1043400090E00E947D20C82FD0E0DC2FCC2788E1B0
:1043500090E00E947D209E01280F311DC901DF9150
:10436000CF910895682F89E190E00C943B1F89E17B
:1043700090E00C947D20682F8AE190E00C943B1F24
:104380008AE190E00C947D20682F8BE190E00C9402
:104390003B1F8BE190E00C947D20682F8CE190E036
:1043A0000C943B1F8CE190E00C947D20682F88E2F8
:1043B00090E00C943B1F88E290E00C947D20682FE5
:1043C00089E290E00C943B1F89E290E00C947D2000
:1043D00044E050E0BC018AE290E00C944C2044E0C0
:1043E00050E0BC018AE290E00C949F20CF93C82F4C
:1043F000692F8EE290E00E943B1F6C2F8FE290E0CD
:10440000CF910C943B1FCF93DF938EE290E00E94FC
:104410007D20C82FD0E0DC2FCC278FE290E00E94D7
:104420007D209E01280F311DC901DF91CF91089594
:10443000462F60E070E00C94D92060E070E00C94AE
:10444000D120462F61E070E00C94D92061E070E04B
:104450000C94D120CF93C82F0E9421228C2F0E9430
:1044600026228111FBCFCF910895462F62E070E0A4
:104470000C94D92062E070E00C94D120462F63E0C8
:1044800070E00C94D92063E070E00C94D120CF93BD
:10449000DF93C82FD62F472F64E070E00E94D92009
:1044A0004D2F65E070E08C2FDF91CF910C94D920D7
:1044B0001F93CF93DF93182F64E070E00E94D12008
:1044C000C82FD0E065E070E0812F0E94D120DC2F62
:1044D000CC279E01282BC901DF91CF911F91089510
:1044E000AB0126E030E066E070E00C94EF20AB0119
:1044F00026E030E066E070E00C94E420AB0124E0BC
:1045000030E06CE070E00C94EF20AB0124E030E090
:104510006CE070E00C94E420CF93DF93C82FD62F8B
:10452000472F60E170E00E94D9204D2F61E170E0DB
:104530008C2FDF91CF910C94D9201F93CF93DF93D1
:10454000182F60E170E00E94D120C82FD0E061E117
:1045500070E0812F0E94D120DC2FCC279E01282BD8
:10456000C901DF91CF911F910895CF93DF93C82F99
:10457000D62F472F62E170E00E94D9204D2F63E1D2
:1045800070E08C2FDF91CF910C94D9201F93CF93A3
:10459000DF93182F62E170E00E94D120C82FD0E095
:1045A00063E170E0812F0E94D120DC2FCC279E0197
:1045B000282BC901DF91CF911F910895462F64E107
:1045C00070E00C94D92064E170E00C94D120462F67
:1045D00065E170E00C94D92065E170E00C94D12085
:1045E000462F66E170E00C94D92066E170E00C94EF
:1045F000D120CF93DF93C82FD62F472F60E270E0F2
:104600000E94D9204D2F61E270E08C2FDF91CF9175
:104610000C94D9201F93CF93DF93182F60E270E0A2
:104620000E94D120C82FD0E061E270E0812F0E946B
:10463000D120DC2FCC279E01282BC901DF91CF91FF
:104640001F910895FF920F931F93CF93DF93F82E3E
:10465000C0E0D0E08F2D0E940A238C01892B21F02D
:104660008F2D0E940A23EC01C017D10799F7CE01C4
:10467000DF91CF911F910F91FF900895CF93DF931A
:10468000C82FD62F472F62E270E00E94D9204D2F0D
:1046900063E270E08C2FDF91CF910C94D9201F93AF
:1046A000CF93DF93182F62E270E00E94D120C82FD1
:1046B000D0E063E270E0812F0E94D120DC2FCC2774
:1046C0009E01282BC901DF91CF911F910895CF93AF
:1046D000DF93C82FD62F472F64E270E00E94D920C5
:1046E0004D2F65E270E08C2FDF91CF910C94D92093
:1046F0001F93CF93DF93182F64E270E00E94D120C4
:10470000C82FD0E065E270E0812F0E94D120DC2F1D
:10471000CC279E01282BC901DF91CF911F910895CD
:104720008F929F92BF92CF92DF92EF92FF920F9360
:104730001F93CF93DF93B82E7B016A0189010E94FA
:104740007823E80EF91E97013770EB2DF0E0EE0F9D
:10475000FF1FE158FE4F80809180C901880D991D8F
:10476000A901400F511F4130584080F0C0E0D8E00F
:10477000C21BD30BAE01B6010E944C20A8014C1BFA
:104780005D0BB6016C0F7D1FC40102C0A801B6010C
:104790000E944C20B701600F711F8B2DDF91CF91CC
:1047A0001F910F91FF90EF90DF90CF90BF909F905F
:1047B0008F900C9467239A01AB0160E070E00C9439
:1047C0009023CF93DF93C82FD62F472F66E270E058
:1047D0000E94D9204D2F67E270E08C2FDF91CF919E
:1047E0000C94D9201F93CF93DF93182F66E270E0CB
:1047F0000E94D120C82FD0E067E270E0812F0E9494
:10480000D120DC2FCC279E01282BC901DF91CF912D
:104810001F910895FF920F931F93CF93DF93F82E6C
:10482000C0E0D0E08F2D0E94F2238C01892B21F073
:104830008F2D0E94F223EC01C017D10799F7CE010A
:10484000DF91CF911F910F91FF900895CF93DF9348
:10485000C82FD62F472F68E270E00E94D9204D2F35
:1048600069E270E08C2FDF91CF910C94D9201F93D7
:10487000CF93DF93182F68E270E00E94D120C82FF9
:10488000D0E069E270E0812F0E94D120DC2FCC279C
:104890009E01282BC901DF91CF911F910895CF92DE
:1048A000DF92EF92FF920F931F93CF93DF93182F16
:1048B0006B017A01E9010E9437248C0F9D1FEC01E6
:1048C000D7709701A601BE01812F0E94FA20011125
:1048D00012C0BE016E0D7F1D812F0E94262460E450
:1048E000812FDF91CF911F910F91FF90EF90DF907B
:1048F000CF900C942A22DF91CF911F910F91FF90BE
:10490000EF90DF90CF9008950F93022F20E030E0DA
:104910000E944F240F910895CF93DF93C82FD62F75
:10492000472F6AE270E00E94D9204D2F6BE270E0C1
:104930008C2FDF91CF910C94D9201F93CF93DF93CD
:10494000182F6AE270E00E94D120C82FD0E06BE2FD
:1049500070E0812F0E94D120DC2FCC279E01282BD4
:10496000C901DF91CF911F9108951F920F920FB649
:104970000F9211240E94500E82E00E941C100E948F
:10498000EB0F0E94EC06FBCF9FB7F894A895E0E6EA
:10499000F0E08081886180838FE480839FBF0895E9
:1049A000A8950895809160008B7080936000FFCF80
:1049B0001092C00087E690E09093C5008093C400F9
:1049C000E1ECF0E088E1808386E08093C2008081A2
:1049D000806A808308951F920F920FB60F92112460
:1049E0002F933F938F939F93EF93FF938091A8040E
:1049F000882309F4F0C08091C6009091A704992300
:104A000009F4E3C090EE980F9F3518F08D3009F04F
:104A100059C02091A4049091A50430E0291B3109CC
:104A2000215031092F733327232B61F0E091A50426
:104A3000F0E0E55CFA4F80839091A5049F5F9F733F
:104A40009093A5042091A2049091A30430E0291B27
:104A50003109215031092F733327232B89F0E0913D
:104A6000A304F0E0E558FA4F80839091A3049F5F80
:104A70009F739093A3049091C10090629093C100A2
:104A80008D3009F0C5C08091A2042091A30490E06C
:104A9000821B910901978F739927892B69F0E09107
:104AA000A304F0E0E558FA4F8AE080838091A304E4
:104AB0008F5F8F738093A3048091A6048F5F809390
:104AC000A604A6C0883011F08F37C1F58091A504E7
:104AD0002091A40490E0821B91098F739927892B60
:104AE00009F496C0E091A504F0E0E55CFA4F8081FE
:104AF0008091A50481508F738093A5048091A204B6
:104B00002091A30490E0821B910901978F7399274C
:104B1000892B09F47DC0E091A304F0E0E558FA4F39
:104B20008FE780838091A3048F5F8F738093A304AA
:104B30008091C10080628093C1006AC0843009F016
:104B400067C08091A5042091A40490E0821B910984
:104B50008F739927892B31F1E091A504F0E0E55C92
:104B6000FA4F80818D30F1F08091A4042091A5044A
:104B700090E0821B910901978F739927892B91F0FF
:104B8000E091A504F0E0E55CFA4F8DE08083809130
:104B9000A5048F5F8F738093A5048091A6048F5F17
:104BA0008093A6048091A4042091A50490E0821B28
:104BB000910901978F739927892B51F1E091A504F1
:104BC000F0E0E55CFA4F84E019C0833009F581E03C
:104BD0008093A7041DC08091A4042091A50490E0B7
:104BE000821B910901978F739927892B79F0E091A6
:104BF000A504F0E08091C600E55CFA4F80838091C7
:104C0000A5048F5F8F738093A50402C08091C600B6
:104C1000FF91EF919F918F913F912F910F900FBE38
:104C20000F901F9018951F920F920FB60F9211249C
:104C30002F938F939F93EF93FF938091A3042091E1
:104C4000A20490E0821B91098F739927892B79F038
:104C5000E091A204F0E0E558FA4F80818093C6000D
:104C60008091A2048F5F8F738093A20405C080910E
:104C7000C1008F7D8093C100FF91EF919F918F9133
:104C80002F910F900FBE0F901F9018958091A50443
:104C90009091A404891B8F7308958091A50420919D
:104CA000A40490E0821B91098F739927892BC1F08E
:104CB000E091A404F0E0E55CFA4F80819091A404B7
:104CC0009F5F9F739093A4049091A804992349F047
:104CD0008D3039F49091A60491509093A6040895D4
:104CE00080E0089581E08093A8048091A50420913C
:104CF000A40490E0821B91098F739927892BB1F04E
:104D0000E091A404F0E0E55CFA4F8081843071F416
:104D10001092A704E091A404F0E0E55CFA4F8081D2
:104D20008091A4048F5F8F738093A4048091A70463
:104D300008958091A60408950FB607FE0EC0209135
:104D4000A2049091A30430E0291B310921503109BC
:104D50002F733327232B99F30DC02091A204909138
:104D6000A30430E0291B3109215031092F73332767
:104D7000232B61F0E091A304F0E0E558FA4F808323
:104D80008091A3048F5F8F738093A3048091C100EF
:104D900080628093C10008951F93CF93DF93EC014D
:104DA00090E011E0190FFE01E90FF11D80818823C9
:104DB00021F00E949C26912FF4CFDF91CF911F917B
:104DC00008951F93CF93DF93EC0190E011E0190F4A
:104DD000FE01E90FF11D8491882321F00E949C2699
:104DE000912FF4CFDF91CF911F910895CF93DF934F
:104DF00000D000D0CDB7DEB70E94AE1C0E94470E97
:104E00000E94221F0E94B9060E94EB0E0E94C91147
:104E10000E949B1A0E94721B0E94601F0E94A91B85
:104E200067E871E04EE851E025E931E08CE9E82ED1
:104E300081E0F82E80E090E0DB011D91BD01FC01D6
:104E4000EC5FFA4F14A7DA011D91AD011483D9016B
:104E50001D919D01108BD7011D917D01148F01962D
:104E60008630910549F719821A821B821C829E01A5
:104E70002F5F3F4FA901B90180E395E00E947E1F9B
:104E800000EA1FE020E030E040E65AEE60E070E02B
:104E900080E395E00E94110D892B91F387EA91E060
:104EA0000E94B41C0E94CF070E94AD1D0E94D20731
:104EB0007C010E94D5078C010E94CF07BC0197019D
:104EC000A80180E395E00E947E1F83E00E941C10F1
:104ED00083E00E94E81084E00E941C100E94C42419
:104EE00080E00E941C1080E090E00E94CA050E94B1
:104EF000841B68E873E181E090E00E948C070E94C7
:104F0000D02481E090E00E947307892BC9F00E94B1
:104F10008A1B0091B3041091B4042091B104309124
:104F2000B2044091AF045091B0046091AD0470910F
:104F3000AE040E94AA1B0E94841B68EE73E0DBCFC4
:104F400080E00E942815882349F060E570E080E049
:104F50000E946C1580E00E947215D1CF80E00E9403
:104F60004716892B41F00E945C000E94380480E0C3
:104F70000E94B515C4CF0E94EB0F0E94EC06BFCF74
:104F8000DB018F939F930E945528BF91AF91A29F01
:104F9000800D911DA39F900DB29F900D1124089537
:104FA000AA1BBB1B51E107C0AA1FBB1FA617B7074F
:104FB00010F0A61BB70B881F991F5A95A9F780956B
:104FC0009095BC01CD01089597FB072E16F400942F
:104FD00007D077FD09D00E94D02707FC05D03EF40A
:104FE000909581959F4F0895709561957F4F089595
:104FF000A1E21A2EAA1BBB1BFD010DC0AA1FBB1FDD
:10500000EE1FFF1FA217B307E407F50720F0A21B4E
:10501000B30BE40BF50B661F771F881F991F1A94BB
:1050200069F760957095809590959B01AC01BD01E5
:10503000CF010895052E97FB1EF400940E9431289D
:1050400057FD07D00E94F82707FC03D04EF40C94BC
:10505000312850954095309521953F4F4F4F5F4FE8
:10506000089590958095709561957F4F8F4F9F4FD4
:105070000895EE0FFF1F0590F491E02D0994692724
:10508000962769277827872778270895A29FB00158
:10509000B39FC001A39F700D811D1124911DB29F6C
:1050A000700D811D1124911D08950E944628A59F11
:1050B000900DB49F900DA49F800D911D1124089513
:0450C000F894FFCF92
:1050C40041535500FF03FE030000010000C0A80186
:1050D400640030302F30302F303030302030303AD0
:1050E40030303A303000E5559A15B53B121F1F1C7D
:1050F4001F1E1F1E1F1F1E1F1E1F01005E0000001B
:105104005345520053616E647900000000000000B2
:10511400446F75676C617300000000005F554E4179
:10512400535349474E45440000000000444F555333
:10513400414E555341000000600048007000780063
:10514400400048005000584E7562546573004E7517
:105154006269616E0054657366616900504858362F
:1051640032335F415355006C6F63616C2069703A50
:1051740020003C626F64793E0D0A002D0052657375
:10518400756C743A2000266E627370004854545053
:105194002F312E3120323030204F4B0D0A436F6EA9
:1051A4006E656374696F6E2D547970653A20746509
:1051B40078742F68746D6C0D0A436F6E6E6563743A
:1051C400696F6E3A20436C6F7365640D0A0D0A00B3
:1051D4003C21444F43545950452048544D4C3E0DB6
:1051E4000A3C68746D6C3E3C626F64793E2F646562
:1051F400766963653C6272202F3E002F7670643CB2
:105204006272202F3E002F6D6F64656C002F6D61FC
:105214006E756661637475726572002F7365726969
:10522400616C5F6E756D626572002F6D616E75667F
:105234006163747572655F64617465002F6D616389
:105244005F61646472657373002F636F756E74724B
:10525400795F636F6465002F636F6E666967203CD6
:105264006272202F3E002F74637269745F68690054
:105274002F747761726E5F6869002F74637269744A
:105284005F6C6F002F747761726E5F6C6F002F74A8
:10529400656D70203C6272202F3E002F76616C7524
:1052A4006500435249545F4849005741524E5F4894
:1052B4004900435249545F4C4F004E4F524D414CAC
:1052C400002F7374617465002F6C6F67002F74690D
:1052D4006D657374616D70002F6576656E746E759F
:1052E4006D006865616C746879007265736574003B
:1052F4002F7670643C62722F3E003C2F626F64799B
:105304003E0D0A3C2F68746D6C3E0D0A0D0A004870
:105314005454502F312E31203430302042616420D7
:10532400526571756573740D0A436F6E6E656374AF
:10533400696F6E3A20636C6F73650D0A0D0A000D78
:105344000A414C41524D3A200057495A6E65740047
:1053540074696D652073796E6365642000555443E8
:105364000D0A0030302F30302F30303030203030C4
:0A5374003A30303A3030002E0000CD
:00000001FF
