:100000000C9434000C9451000C9451000C94510049
:100010000C9451000C9451000C9451000C9451001C
:100020000C9451000C9451000C9451000C9451000C
:100030000C9451000C9451000C9451000C945100FC
:100040000C9451000C9451000C94DD010C940503A8
:100050000C9451000C9451000C9451000C945100DC
:100060000C9451000C94510011241FBECFEFD8E026
:10007000DEBFCDBF15E0A0E0B1E0E2E6FBE002C0EC
:1000800005900D92A832B107D9F725E0A8E2B5E0B6
:1000900001C01D92A83DB207E1F70E94E8030C944D
:1000A000AF050C940000FC0121918FEF9FEF2223FC
:1000B00031F0821B910927FD93952191F8CFE091B2
:1000C000280521E02E0F20932805F0E0EE0FFF1FFA
:1000D000E05DFA4F9183808308950F931F93CF9330
:1000E000DF93DC0100E010E0FC01C1E0D0E00C1780
:1000F0001D07E9F04D915C911197228133814217E0
:100100005307A9F480E091E00E94AF00B80180E0BD
:1001100090E00E94DD008BE191E00E94AF00BE0103
:1001200080E090E00E94DD008FEF9FEF0DC02196F0
:100130003296C431D105D9F60F5F1F4F12960431A4
:10014000110591F680E090E0DF91CF911F910F9122
:1001500008950E94CA01789408950C948E03CF9359
:10016000DF93EC018991882319F00E948E03FACF66
:10017000DF91CF910895CF93C82F90E024E095951B
:1001800087952A95E1F78A3010F4805D01C0895C7B
:100190000E948E038C2F8F708A3010F0895C01C012
:1001A000805DCF910C948E03CF93C82F892F0E942E
:1001B000BB008C2FCF910C94BB002F923F924F929B
:1001C0005F926F927F928F929F92AF92BF92CF92E7
:1001D000DF92EF92FF920F931F93CF93DF93CDB7F0
:1001E000DEB763970FB6F894DEBF0FBECDBF6B01CD
:1001F0007C0197FF0DC0F094E094D094C094C11C92
:10020000D11CE11CF11C81E090E09B8B8A8B02C029
:100210001B8A1A8A8E010F5F1F4FFE013B96F98BD6
:10022000E88B580166246394712C812C912CAAE0F0
:10023000B0E09301A4010E9473051B012C01C701CA
:10024000B6019101A2010E9454059301A4010E94EC
:100250005405F50121935F01822F220F990BAA0B00
:10026000BB0BC81AD90AEA0AFB0A31014201888984
:100270009989E817F907D9F6EA89FB89EF2B19F074
:100280008DE20E948E03CE010B967C0120E030E0CF
:10029000F70182917F01811106C02115310519F402
:1002A000E017F10729F4805D0E948E0321E030E021
:1002B000E016F10669F763960FB6F894DEBF0FBE3D
:1002C000CDBFDF91CF911F910F91FF90EF90DF9005
:1002D000CF90BF90AF909F908F907F906F905F90E6
:1002E0004F903F902F9008950C9464030C948B03CF
:1002F000FF920F931F93CF93DF93EC01062FF72EFE
:1003000018820E94640310E08823D9F00E94380309
:100310008823B9F00E943F03803210F089931F5F59
:10032000E02FFF2D482F50E02191222339F0022E9B
:10033000000C330B42175307B9F702C08D3051F749
:100340001882812FDF91CF911F910F91FF90089517
:100350000F931F93CF93DF938C01EC01699170E0B1
:1003600080E090E00E94DD000C5F1F4F8EE20E9453
:100370008E03699170E080E090E00E94DD00C0177C
:10038000D107A1F785E295E0DF91CF911F910F9101
:100390000C94AF001092C00087E690E09093C500E7
:1003A0008093C400E1ECF0E088E1808386E08093F4
:1003B000C2008081806A808308951F920F920FB6D9
:1003C0000F9211242F933F938F939F93EF93FF935B
:1003D00080912F05882309F4F0C08091C600909188
:1003E0002E05992309F4E3C090EE980F9F3518F07D
:1003F0008D3009F059C020912B0590912C0530E0EB
:10040000291B3109215031092F733327232B61F028
:10041000E0912C05F0E0E85AFA4F808390912C058A
:100420009F5F9F7390932C052091290590912A0539
:1004300030E0291B3109215031092F733327232B39
:1004400089F0E0912A05F0E0E856FA4F8083909118
:100450002A059F5F9F7390932A059091C100906237
:100460009093C1008D3009F0C5C08091290520917D
:100470002A0590E0821B910901978F739927892B98
:1004800069F0E0912A05F0E0E856FA4F8AE08083AF
:1004900080912A058F5F8F7380932A0580912D05A7
:1004A0008F5F80932D05A6C0883011F08F37C1F57E
:1004B00080912C0520912B0590E0821B91098F7370
:1004C0009927892B09F496C0E0912C05F0E0E85AB1
:1004D000FA4F808180912C0581508F7380932C0579
:1004E0008091290520912A0590E0821B91090197AE
:1004F0008F739927892B09F47DC0E0912A05F0E0DC
:10050000E856FA4F8FE7808380912A058F5F8F73BB
:1005100080932A058091C10080628093C1006AC0E7
:10052000843009F067C080912C0520912B0590E064
:10053000821B91098F739927892B31F1E0912C054A
:10054000F0E0E85AFA4F80818D30F1F080912B0570
:1005500020912C0590E0821B910901978F739927B8
:10056000892B91F0E0912C05F0E0E85AFA4F8DE0EC
:10057000808380912C058F5F8F7380932C058091F1
:100580002D058F5F80932D0580912B0520912C05E3
:1005900090E0821B910901978F739927892B51F164
:1005A000E0912C05F0E0E85AFA4F84E019C083305E
:1005B00009F581E080932E051DC080912B052091C7
:1005C0002C0590E0821B910901978F739927892B45
:1005D00079F0E0912C05F0E08091C600E85AFA4FDE
:1005E000808380912C058F5F8F7380932C0502C0D0
:1005F0008091C600FF91EF919F918F913F912F9134
:100600000F900FBE0F901F9018951F920F920FB66C
:100610000F9211242F938F939F93EF93FF938091C9
:100620002A052091290590E0821B91098F73992753
:10063000892B79F0E0912905F0E0E856FA4F8081A6
:100640008093C600809129058F5F8F738093290561
:1006500005C08091C1008F7D8093C100FF91EF9113
:100660009F918F912F910F900FBE0F901F90189513
:1006700080912C0590912B05891B8F730895809193
:100680002C0520912B0590E0821B91098F739927EF
:10069000892BC1F0E0912B05F0E0E85AFA4F8081F8
:1006A00090912B059F5F9F7390932B0590912F0541
:1006B000992349F08D3039F490912D059150909304
:1006C0002D05089580E0089581E080932F058091A5
:1006D0002C0520912B0590E0821B91098F7399279F
:1006E000892BB1F0E0912B05F0E0E85AFA4F8081B8
:1006F000843071F410922E05E0912B05F0E0E85A59
:10070000FA4F808180912B058F5F8F7380932B052B
:1007100080912E05089580912D0508950FB607FE4E
:100720000EC02091290590912A0530E0291B31093E
:10073000215031092F733327232B99F30DC02091BA
:10074000290590912A0530E0291B310921503109F2
:100750002F733327232B61F0E0912A05F0E0E85650
:10076000FA4F808380912A058F5F8F7380932A05CB
:100770008091C10080628093C10008951F93CF9340
:10078000DF93EC0190E011E0190FFE01E90FF11D7C
:100790008081882321F00E948E03912FF4CFDF9176
:1007A000CF911F9108951F93CF93DF93EC0190E0B9
:1007B00011E0190FFE01E90FF11D8491882321F04A
:1007C0000E948E03912FF4CFDF91CF911F91089556
:1007D0000E94A9008EE191E00E94AF008BE291E0BF
:1007E0000E94AF0081E391E00E945300BC0180E0D1
:1007F00090E00E94DD0088E291E00E94AF0085E376
:1008000091E00E94AF008BE391E00E945300BC0195
:1008100080E090E00E94DD0088E291E00E94AF005D
:100820008FE391E00E94AF0088E491E00E945300C2
:10083000BC0180E090E00E94DD0088E291E00E942F
:10084000AF008FE491E00E94AF0089E591E00E9443
:100850005300BC0180E090E00E94DD0088E291E05E
:100860000E94AF008EE691E00E94AF008CE791E01D
:100870000E945300BC0180E090E00E94DD0088E20D
:1008800091E00E94AF0085E991E00E94AF0088EA04
:1008900091E00E945300BC0180E090E00E94DD00E6
:1008A00088E291E00E94AF0087EC91E00E94AF00E7
:1008B00082EE91E00E945300BC0180E090E00E9433
:1008C000DD0088E291E00E94AF0088E092E00E94A3
:1008D000AF0084E292E00E945300BC0180E090E00F
:1008E0000E94DD0088E291E00E94AF008BE492E07C
:1008F0000E94AF008AE692E00E945300BC0180E0B3
:1009000090E00E94DD0088E291E00E94AF0084E95F
:1009100092E00E94AF008EEA92E00E945300BC0178
:1009200080E090E00E94DD0088E291E00E94AF004C
:1009300083ED92E00E94AF008EEE92E00E945300A1
:10094000BC0180E090E00E94DD0088E291E00E941E
:10095000AF0084E193E00E94AF0085E293E00E9443
:100960005300BC0180E090E00E94DD0088E291E04D
:100970000E94AF0081E493E00E94AF008BE593E01A
:100980000E945300BC0180E090E00E94DD0088E2FC
:1009900091E00E94AF0080E893E00E94AF008AE9F6
:1009A00093E00E945300BC0180E090E00E94DD00D3
:1009B00088E291E00E94AF008FEB93E00E94AF00CD
:1009C00089ED93E00E945300BC0180E090E00E941A
:1009D000DD0088E291E00E94AF008EEF93E00E947C
:1009E000AF0088E194E00E945300BC0180E090E0F9
:1009F0000E94DD0088E291E00E94AF008DE394E068
:100A00000E94AF008CE494E00E945300BC0180E09F
:100A100090E00E94DD0088E291E00E94AF0086E64F
:100A200094E00E94AF008BE794E00E945300BC0169
:100A300080E090E00E94DD0088E291E00E94AF003B
:100A40008BE994E00E94AF0080EB94E00E94530099
:100A5000BC0180E090E00E94DD0088E291E00E940D
:100A6000AF0080ED94E00E94AF0080EE94E00E9421
:100A70005300BC0180E090E00E94DD0088E291E03C
:100A80000E94AF008BEF94E00E94AF0089E095E0F8
:100A90000E945300BC0180E090E00E94DD0080E3F2
:100AA00095E00E946D00FFCF052E97FB1EF4009489
:100AB0000E946B0557FD07D00E947E0507FC03D0FE
:100AC0004EF40C946B0550954095309521953F4F11
:100AD0004F4F5F4F089590958095709561957F4F2A
:100AE0008F4F9F4F08950E94A005A59F900DB49F22
:100AF000900DA49F800D911D11240895A1E21A2E3E
:100B0000AA1BBB1BFD010DC0AA1FBB1FEE1FFF1FB1
:100B1000A217B307E407F50720F0A21BB30BE40B01
:100B2000F50B661F771F881F991F1A9469F7609548
:100B30007095809590959B01AC01BD01CF01089502
:100B4000A29FB001B39FC001A39F700D811D11240E
:100B5000911DB29F700D811D1124911D0895F8946F
:020B6000FFCFC5
:100B62004475706C69636174652076616C75657338
:100B720020666F756E6420617420002C200052651F
:100B820073756C74733A200A0A0D004745543A2073
:100B920000474554005055543A20005055540044E3
:100BA200454C4554453A200044454C455445002F98
:100BB2006465766963653A2000474554202F646571
:100BC2007669636520485454502F312E31002F64CA
:100BD20065766963652F7670643A20004745542034
:100BE2002F6465766963652F76706420485454508B
:100BF2002F312E31002F6465766963652F7670641C
:100C02002F6D6F64656C2000474554202F64657614
:100C12006963652F7670642F6D6F64656C2048542C
:100C220054502F312E31002F6465766963652F761B
:100C320070642F6D616E7566616374757265723A68
:100C42002000474554202F6465766963652F7670CE
:100C5200642F6D616E75666163747572657220488A
:100C62005454502F312E31002F6465766963652FFD
:100C72007670642F73657269616C5F6E756D626503
:100C8200723A2000474554202F6465766963652FC8
:100C92007670642F73657269616C5F6E756D6265E3
:100CA2007220485454502F312E31002F64657669DA
:100CB20063652F7670642F6D616E756661637475FE
:100CC20072655F646174653A2000474554202F6461
:100CD20065766963652F7670642F6D616E756661E6
:100CE20063747572655F6461746520485454502F53
:100CF200312E31002F6465766963652F7670642F1B
:100D02006D61635F616464726573733A2000474585
:100D120054202F6465766963652F7670642F6D6148
:100D2200635F6164647265737320485454502F3159
:100D32002E31002F6465766963652F7670642F63A8
:100D42006F756E7472795F636F64653A2000474510
:100D520054202F6465766963652F7670642F636F04
:100D6200756E7472795F636F646520485454502FB6
:100D7200312E31002F6465766963652F636F6E666D
:100D820069673A2000474554202F64657669636598
:100D92002F636F6E66696720485454502F312E318D
:100DA200002F6465766963652F636F6E6669672FCE
:100DB20074637269745F68693A2000474554202F52
:100DC2006465766963652F636F6E6669672F746306
:100DD2007269745F686920485454502F312E310073
:100DE2002F6465766963652F636F6E6669672F741A
:100DF200637269745F6C6F3A2000474554202F6418
:100E020065766963652F636F6E6669672F746372B7
:100E120069745F6C6F20485454502F312E31002F6B
:100E22006465766963652F636F6E6669672F747791
:100E320061726E5F68693A2000474554202F6465ED
:100E4200766963652F636F6E6669672F7477617267
:100E52006E5F686920485454502F312E31002F6440
:100E620065766963652F636F6E6669672F74776154
:100E7200726E5F6C6F3A2000474554202F6465768E
:100E82006963652F636F6E6669672F747761726E2F
:100E92005F6C6F20485454502F312E31002F6465FF
:100EA200766963652F74656D703A2000474554205A
:100EB2002F6465766963652F74656D70204854549C
:100EC200502F312E31002F6465766963652F74656A
:100ED2006D702F76616C75653A2000474554202F5E
:100EE2006465766963652F74656D702F76616C75C4
:100EF2006520485454502F312E31002F6465766995
:100F020063652F74656D702F73746174653A200088
:100F1200474554202F6465766963652F74656D704B
:100F22002F737461746520485454502F312E310050
:100F32002F6465766963652F73746174653A200066
:100F4200474554202F6465766963652F7374617415
:100F52006520485454502F312E31002F6465766934
:100F620063652F6C6F673A200044454C4554452019
:100F72002F6465766963652F6C6F672048545450FF
:080F82002F312E31000D0A0091
:00000001FF
