:100000000C9434000C9451000C9451000C94510049
:100010000C9451000C9451000C9451000C9451001C
:100020000C9451000C9451000C9451000C9451000C
:100030000C9451000C9451000C9451000C945100FC
:100040000C9451000C9451000C94A8010C94D9010B
:100050000C9451000C9451000C9451000C945100DC
:100060000C9451000C94510011241FBECFEFD8E026
:10007000DEBFCDBF11E0A0E0B1E0EAE4F6E002C0EF
:1000800005900D92A032B107D9F721E0A0E2B1E0CE
:1000900001C01D92A43AB207E1F70E9487020C94B6
:1000A00023030C940000EAE7F0E0808186688083F7
:1000B000ECE7F0E08081886C8083089580917A007D
:1000C000829586958695837091E08927817090E06E
:1000D0000895EAE7F0E0808180648083089580914C
:1000E0007800A09179000A2E000CBB0BBA2FAA272A
:1000F000082E000C990BA82BB92B25E630E00E94A6
:10010000D70224E630E040E050E00E94B802C90186
:10011000815191400895CF93DF9300D000D0CDB7A7
:10012000DEB71C821B822B813C8128173907A8F47B
:100130001A82198229813A81283E334038F4298174
:100140003A812F5F3F4F3A832983F4CF2B813C8143
:100150002F5F3F4F3C832B83E6CF0F900F900F9084
:100160000F90DF91CF910895219A29980895299AA7
:1001700008952998089585B18695817090E0089535
:100180000F931F93CF93DF9300D0CDB7DEB7898352
:100190009A830E94B9008981082F9A81192FF8014A
:1001A00081918F018823D9F08E3229F40E94B70003
:1001B0008AEF90E006C08D3259F40E94B7008EEEAF
:1001C00092E00E948B000E94B90084E690E004C097
:1001D000803229F788EE93E00E948B00E0CF0F90E9
:1001E0000F90DF91CF911F910F9108950E9495017B
:1001F000789408950C942D02CF93DF93EC018991AC
:10020000882319F00E942D02FACFDF91CF91089533
:10021000CF93C82F90E024E0959587952A95E1F734
:100220008A3010F4805D01C0895C0E942D028C2F01
:100230008F708A3010F0895C01C0805DCF910C9482
:100240002D02CF93C82F892F0E9408018C2FCF91A8
:100250000C9408018F929F92AF92BF92CF92DF923F
:10026000EF92FF920F931F93CF93DF9300D000D0B4
:100270001F92CDB7DEB79C0197FF07C0319521953E
:100280003109AA24A394B12C02C0A12CB12CCE0117
:1002900001967C018E010A5F1F4FFC01CC24C394A0
:1002A000D12C4AE04C9D40014D9D900C1124C90178
:1002B000B4010E94A402B6010E94A4026193261B0D
:1002C000310967FD33956401E017F10759F7AB2851
:1002D00011F08DE201C080E20E942D0220E030E0AA
:1002E000F80182918F01811106C02115310519F4A1
:1002F000EE15FF0529F4805D0E942D0221E030E01B
:100300000E151F0569F70F900F900F900F900F902B
:10031000DF91CF911F910F91FF90EF90DF90CF90E1
:10032000BF90AF909F908F9008951092C00087E685
:1003300090E09093C5008093C400E1ECF0E088E188
:10034000808386E08093C2008081806A80830895E4
:100350001F920F920FB60F9211242F938F939F939A
:10036000EF93FF93809122012091230190E0821B63
:10037000910901978F739927892B79F0E0912301D7
:10038000F0E08091C600EC5DFE4F808380912301F8
:100390008F5F8F738093230102C08091C600FF910D
:1003A000EF919F918F912F910F900FBE0F901F9003
:1003B00018951F920F920FB60F9211242F938F93BF
:1003C0009F93EF93FF93809121012091200190E072
:1003D000821B91098F739927892B79F0E091200175
:1003E000F0E0EC59FE4F80818093C600809120019F
:1003F0008F5F8F738093200105C08091C1008F7D36
:100400008093C100FF91EF919F918F912F910F9059
:100410000FBE0F901F90189580912301909122019B
:10042000891B8F730895809123012091220190E010
:10043000821B91098F739927892B69F0E091220122
:10044000F0E0EC5DFE4F8081909122019F5F9F73F1
:1004500090932201089580E008950FB607FE0EC024
:10046000209120019091210130E0291B3109215078
:1004700031092F733327232B99F30DC020912001CD
:100480009091210130E0291B3109215031092F734E
:100490003327232B61F0E0912101F0E0EC59FE4F6E
:1004A0008083809121018F5F8F73809321018091E0
:1004B000C10080628093C10008951F93CF93DF93A2
:1004C000EC0190E011E0190FFE01E90FF11D8081B0
:1004D000882321F00E942D02912FF4CFDF91CF913C
:1004E0001F9108951F93CF93DF93EC0190E011E0EB
:1004F000190FFE01E90FF11D8491882321F00E945C
:100500002D02912FF4CFDF91CF911F9108950E947A
:10051000F6000E94B4000E94530082E091E00E9425
:10052000FC000E9469000E945E00892BE1F30E949A
:100530006F000E942A018CE191E00E94FC0088EE8D
:1005400093E00E948B00EDCF97FB072E16F40094EA
:1005500007D077FD09D00E94DE0207FC05D03EF4EB
:10056000909581959F4F0895709561957F4F08955F
:10057000052E97FB1EF400940E94CF0257FD07D072
:100580000E94F20207FC03D04EF40C94CF02509567
:100590004095309521953F4F4F4F5F4F089590956F
:1005A0008095709561957F4F8F4F9F4F08950E9462
:1005B0001403B7FF0895821B930B0895AA1BBB1B5E
:1005C00051E107C0AA1FBB1FA617B70710F0A61B53
:1005D000B70B881F991F5A95A9F780959095BC0174
:1005E000CD010895A1E21A2EAA1BBB1BFD010DC06F
:1005F000AA1FBB1FEE1FFF1FA217B307E407F507D3
:1006000020F0A21BB30BE40BF50B661F771F881FAE
:10061000991F1A9469F760957095809590959B0144
:10062000AC01BD01CF010895A29FB001B39FC001ED
:10063000A39F700D811D1124911DB29F700D811D0E
:0A0640001124911D0895F894FFCFD6
:10064A00240053455234383620485735202D204E41
:10065A00756269616E205465736661690A0D0000EE
:00000001FF
