:100000000C9434000C9451000C9451000C94510049
:100010000C9451000C9451000C9451000C9451001C
:100020000C9451000C9451000C9451000C948701D5
:100030000C9451000C9451000C94A2000C945100AB
:100040000C9451000C9451000C94E1050C94120690
:100050000C9451000C9451000C9451000C945100DC
:100060000C9451000C94510011241FBECFEFD8E026
:10007000DEBFCDBF11E0A0E0B1E0ECE6FFE002C0E2
:1000800005900D92AC37B107D9F722E0ACE7B1E0AB
:1000900001C01D92A431B207E1F70E94C0060C9482
:1000A000B4070C94000082E080936E0084BD83E06E
:1000B00085BD89EF87BD789408952FB7F894FC012A
:1000C000EE0FFF1FE358FE4F808191812FBF0895EF
:1000D0000F931F93CF93DF93EC018B0180917C01F1
:1000E000811105C00E94530081E080937C012FB7ED
:1000F000F894CE01880F991FFC01E358FE4F11823E
:100100001082FC01E657FE4F118300832FBFDF9161
:10011000CF911F910F910895CF93DF93EC010E942F
:100120005D00CC0FDD1FC657DE4F21E030E0488177
:1001300059818417950711F020E030E0C901DF9163
:10014000CF9108951F920F920FB60F9211242F9303
:100150003F938F939F9320917D0130917E018091F9
:100160008A0190918B012817390748F480917D010D
:1001700090917E01019690937E0180937D01209164
:100180007F013091800180918C0190918D01281721
:10019000390748F480917F019091800101969093F6
:1001A000800180937F019F918F913F912F910F90BC
:1001B0000FBE0F901F90189590938F0180938E0122
:1001C000109283011092820181E08093810160E0AE
:1001D00070E080E090E00E9468000C94A3018091A0
:1001E0008E0190918F01892B09F470C080E090E01E
:1001F0000E948C00892B09F469C0809181018130B3
:1002000009F048C08091820190918301E0918E01B4
:10021000F0918F01E80FF91F20812E3291F40E9496
:10022000A1016AEF70E080E090E00E94680080E049
:1002300090E00E948C00892BD1F382E080938101B1
:1002400008952D3279F40E94A1016EEE72E080E0F3
:1002500090E00E94680080E090E00E948C00892B72
:10026000D1F3EBCF203279F40E94A30168EE73E062
:1002700080E090E00E94680080E090E00E948C00A6
:10028000892BD1F31AC021111CC010928301109246
:10029000820108958230D1F40E94A30164E670E0E7
:1002A00080E090E00E94680080E090E00E948C0076
:1002B000892BD1F381E0809381018091820190911B
:1002C000830101969093830180938201089584EFC6
:1002D0008093890083E28093880082E080936F009E
:1002E0008CE080938100789408958FB7F8946091A2
:1002F0008401709185018FBF80E090E008958FB7F1
:10030000F89410928501109284018FBF08951F9276
:100310000F920FB60F9211248F939F9380918401B7
:1003200090918501019690938501809384019F911E
:100330008F910F900FBE0F901F901895219A2998BA
:100340000895299A08952998089585B18695817010
:1003500090E008950C9467019C0160E971E00E94AF
:100360004507892B79F0C90183709927892B61F49E
:10037000C90164E670E00E9445079C0181E0232BDF
:1003800021F402C081E0089580E008952F923F9209
:100390004F925F926F927F928F929F92AF92BF9295
:1003A000CF92DF92EF92FF920F931F93CF93DF9341
:1003B000CDB7DEB767970FB6F894DEBF0FBECDBFDF
:1003C000AC018CE0E5E1F1E09E012F5F3F4F1901A8
:1003D000D90101900D928A95E1F7DA0111962C91DD
:1003E000119721538C91880F8056982F990F990F50
:1003F000890F280F2D8713968C911397082E000CC8
:10040000990BC0976AE0689F9001699F300D112495
:100410001496CC900C2C000CDD08B0E3CB1AD1085C
:10042000C20ED31E860101501109FA018681082EE1
:10043000000C990BC097E8EEF3E08E9F90018F9F20
:10044000300D9E9F300D1124DA0117968C9117976D
:10045000082E000C990BC09774E6789F7001799F65
:10046000F00C1124E20EF31E18962C911897022E10
:10047000000C330B20533109629FC001639F900D24
:100480001124E80EF91E19968C911997F701E80FBF
:10049000F11D87FDFA959F01385079011C962C912A
:1004A0001C9720531B968C911B97880F8056982F72
:1004B000990F990F890F280F298B1F962C911F9741
:1004C00020531E968C911E97880F8056982F990F57
:1004D000990F890F280F2A8B52962C9152972053EF
:1004E00051968C91880F8056982F990F990F890FEC
:1004F000280F2B8BC7010E94AC01882321F03D857A
:10050000323008F08601C70160E971E00E944507BA
:10051000FC01DB0120E839E540E650EF0E94A90725
:100520002B013C01CF0164E670E00E944507FC010D
:10053000DB0120E032EC47E15CEB0E94A9074B01B4
:100540005C01DF01B695A795B695A79520E83FE138
:1005500046E857E00E94A9076B017C01DF01A37008
:10056000BB2720E833E341EE51E00E94A9076C8BE2
:100570007D8B8E8B9F8BF1018E2F82194D85841779
:1005800020F48191080F111DF7CF5989252F30E0F4
:10059000A0E1BEE00E949A076D877E878F87988BC7
:1005A0008A89282F30E0ACE3B0E00E949A072D85BD
:1005B0003E854F855889260F371F481F591FDA017E
:1005C000C9013B89830F911DA11DB11D480E591E04
:1005D0006A1E7B1E840C951CA61CB71CC80CD91C5B
:1005E000EA1CFB1C8C899D89AE89BF89C80ED91E67
:1005F000EA1EFB1ED80120E831E541E050E00E94F0
:10060000A907DC01CB018C0D9D1DAE1DBF1D809384
:10061000900190939101A0939201B09393016796FA
:100620000FB6F894DEBF0FBECDBFDF91CF911F9103
:100630000F91FF90EF90DF90CF90BF90AF909F9081
:100640008F907F906F905F904F903F902F900C9481
:100650007F01EF92FF920F931F93CF93DF93CDB75C
:10066000DEB768970FB6F894DEBF0FBECDBF7B0133
:100670002CE0E5E1F1E0DE011D9601900D922A9556
:10068000E1F78E010F5F1F4F2CE0F80111922A95C0
:10069000E9F70E94AC018A83DE011D9680E0F70134
:1006A000408151819D91F80121918F0130E0290F06
:1006B000311D4217530740F0421B530BF701518382
:1006C00040838F5F8C3059F768960FB6F894DEBF81
:1006D0000FBECDBFDF91CF911F910F91FF90EF9093
:1006E00008954F925F926F927F928F929F92AF92F6
:1006F000BF92CF92DF92EF92FF920F931F93CF930F
:10070000DF9300D0CDB7DEB74B015C0181E090E014
:10071000A0E0B0E020E8821629E5920620E6A206D5
:1007200020EFB20618F480E090E0DC0120E931E02F
:10073000829F8001839F100D929F100D1124F8015C
:10074000E053F84FC12CD12C7601C39480E8881671
:1007500089E5980680E6A80680EFB80618F4C12C53
:10076000D12C7601A701960160E879E580E690EF4B
:100770000E94350775016401C61AD70AE80AF90A0A
:1007800081E090E0A0E0B0E0C11422ECD20627E1C5
:10079000E2062CEBF20618F480E090E0DC0124E69F
:1007A000289F8001299F100D11240E0F1F1F21E08B
:1007B00030E040E050E0C11482ECD80687E1E80662
:1007C0008CEBF80618F420E030E0A90160E072EC50
:1007D00087E19CEB0E943507A7019601261B370B8A
:1007E000480B590BCA01B90120E83FE146E857E040
:1007F0000E945907220F331F220F331F020F131FAE
:1008000020E833E341EE51E00E9459076801C20E2F
:10081000D31E20E831E541E050E00E9459074B012A
:100820005C013A832983BE016F5F7F4FC6010E943E
:100830002903F82EC501B40120E13EE040E050E07C
:100840000E94590729013A014B015C0167E671E0FA
:1008500080E091E00E948D04EF2DF0E0BF016F5F1A
:100860007F4F42E080E091E00E94970489819A8165
:10087000BC016F5F7F4F42E083E091E00E949704EC
:1008800044E0B60186E091E00E94970442E0B201A4
:100890008BE091E00E949704C501B4012CE330E0A5
:1008A00040E050E00E94590789019A016B017C01E8
:1008B00042E0B8018EE091E00E94970442E0B60168
:1008C00081E191E00E94970480E091E00F900F9009
:1008D000DF91CF911F910F91FF90EF90DF90CF901C
:1008E000BF90AF909F908F907F906F905F904F9050
:1008F00008950F931F930E9475010091900110912C
:1009000091012091920130919301600F711F821F1C
:10091000931F1F910F910C947103FC01DB018D91CA
:10092000BD01882311F08193F9CF108208957F9241
:100930008F929F92AF92BF92CF92DF92EF92FF92EF
:100940000F931F93CF93DF9300D000D01F92CDB7AA
:10095000DEB7FC017B019E012F5F3F4F4E0186E019
:10096000880E911C01E010E069018AE0782E709EEB
:100970005001719EB00C1124C701B5010E944507BA
:10098000B8010E944507D9016D939D01E61AF1084F
:1009900067FDF3948501A815B90549F760E070E09B
:1009A00024E030E050E0D601A20FB31F8C918111FA
:1009B00006C06115710519F42115310541F424179C
:1009C00035072CF4805D819361E070E004C024174A
:1009D00035070CF431962150310928F70F900F900C
:1009E0000F900F900F90DF91CF911F910F91FF907B
:1009F000EF90DF90CF90BF90AF909F908F907F90BF
:100A000008950E94CE05789408950C946606CF93BD
:100A1000DF93EC018991882319F00E946606FACFD2
:100A2000DF91CF910895CF93C82F90E024E0959562
:100A300087952A95E1F78A3010F4805D01C0895CC2
:100A40000E9466068C2F8F708A3010F0895C01C07E
:100A5000805DCF910C946606CF93C82F892F0E949A
:100A600013058C2FCF910C9413052F923F924F9228
:100A70005F926F927F928F929F92AF92BF92CF922E
:100A8000DF92EF92FF920F931F93CF93DF93CDB737
:100A9000DEB763970FB6F894DEBF0FBECDBF6B0114
:100AA0007C0197FF0DC0F094E094D094C094C11CD9
:100AB000D11CE11CF11C81E090E09B8B8A8B02C071
:100AC0001B8A1A8A8E010F5F1F4FFE013B96F98B1E
:100AD000E88B580166246394712C812C912CAAE038
:100AE000B0E09301A4010E94A9071B012C01C701DA
:100AF000B6019101A2010E947B079301A4010E940B
:100B00007B07F50121935F01822F220F990BAA0B1E
:100B1000BB0BC81AD90AEA0AFB0A310142018889CB
:100B20009989E817F907D9F6EA89FB89EF2B11F0C3
:100B30008DE201C080E20E946606CE010B967C0128
:100B400020E030E0F70182917F01811106C021157C
:100B5000310519F4E017F10729F4805D0E9466065B
:100B600021E030E0E016F10669F763960FB6F894DD
:100B7000DEBF0FBECDBFDF91CF911F910F91FF90D0
:100B8000EF90DF90CF90BF90AF909F908F907F902D
:100B90006F905F904F903F902F9008951092C000FB
:100BA00087E690E09093C5008093C400E1ECF0E00C
:100BB00088E1808386E08093C2008081806A8083A0
:100BC00008951F920F920FB60F9211242F938F93B7
:100BD0009F93EF93FF93809188012091890190E08A
:100BE000821B910901978F739927892B79F0E091E6
:100BF0008901F0E08091C600EC56FE4F8083809121
:100C000089018F5F8F738093890102C08091C60034
:100C1000FF91EF919F918F912F910F900FBE0F90A9
:100C20001F9018951F920F920FB60F9211242F93B9
:100C30008F939F93EF93FF9380918701209186017B
:100C400090E0821B91098F739927892B79F0E091AD
:100C50008601F0E0EC52FE4F80818093C6008091C7
:100C600086018F5F8F738093860105C08091C100DC
:100C70008F7D8093C100FF91EF919F918F912F9174
:100C80000F900FBE0F901F90189580918901909141
:100C90008801891B8F7308958091890120918801B3
:100CA00090E0821B91098F739927892B69F0E0915D
:100CB0008801F0E0EC56FE4F8081909188019F5FA3
:100CC0009F7390938801089580E008950FB607FE02
:100CD0000EC0209186019091870130E0291B3109D7
:100CE000215031092F733327232B99F30DC0209105
:100CF00086019091870130E0291B3109215031098B
:100D00002F733327232B61F0E0918701F0E0EC5241
:100D1000FE4F8083809187018F5F8F73809387015F
:100D20008091C10080628093C10008951F93CF938A
:100D3000DF93EC0190E011E0190FFE01E90FF11DC6
:100D40008081882321F00E946606912FF4CFDF91E5
:100D5000CF911F9108951F93CF93DF93EC0190E003
:100D600011E0190FFE01E90FF11D8491882321F094
:100D70000E946606912FF4CFDF91CF911F910895C5
:100D80000E949E010E9401050E94AA0181E291E059
:100D90000E94DC008AE291E00E94C6018EE391E0AD
:100DA0000E94070560E177E280E090E00E94680021
:100DB000812C912C540180E090E00E948C00892BC2
:100DC00031F48FEF881A980AA80AB80AF4CF60E1C4
:100DD00077E280E090E00E946800C12CD12C76017F
:100DE00080E090E00E948C00892B41F48FEFC81ABC
:100DF000D80AE80AF80A0E94EF00F2CF82E691E0F2
:100E00000E940705C501B4010E94350588E291E002
:100E10000E940705C701B6010E94350582E691E0F0
:100E20000E94070560E070E081E090E00E946800A9
:100E30000E94EF0080E090E00E948C00892BC1F3BB
:100E400068EE73E081E090E00E94680081E090E04D
:100E50000E948C00892BD1F30E9479040E9407051F
:100E600085E691E00E940705E3CFDB018F939F9316
:100E70000E94A907BF91AF91A29F800D911DA39FD2
:100E8000900DB29F900D11240895AA1BBB1B51E138
:100E900007C0AA1FBB1FA617B70710F0A61BB70BEA
:100EA000881F991F5A95A9F780959095BC01CD018F
:100EB0000895A1E21A2EAA1BBB1BFD010DC0AA1F9B
:100EC000BB1FEE1FFF1FA217B307E407F50720F0B3
:100ED000A21BB30BE40BF50B661F771F881F991F2E
:100EE0001A9469F760957095809590959B01AC0177
:100EF000BD01CF010895052E97FB1EF400940E94BA
:100F0000920757FD07D00E94590707FC03D04EF403
:100F10000C94920750954095309521953F4F4F4F37
:100F20005F4F089590958095709561957F4F8F4F95
:100F30009F4F0895A29FB001B39FC001A39F700D62
:100F4000811D1124911DB29F700D811D1124911DD1
:100F500008950E949A07A59F900DB49F900DA49F9D
:0C0F6000800D911D11240895F894FFCF1E
:100F6C0030302F30302F303030302030303A30307D
:100F7C003A303000F91F1C1F1E1F1E1F1F1E1F1E84
:100F8C001F2D2D2D202D2E2D200030312F30312FC7
:100F9C00323031382030303A30303A30300053452E
:100FAC00523438362050726F6A6563742031202DAC
:100FBC00204E756269616E205465736661690D0A15
:100FCC000A000D0A000D0030302F30302F30303039
:0C0FDC00302030303A30303A3030000025
:00000001FF
