:100000000C9434000C9451000C9451000C94510049
:100010000C9451000C9451000C9451000C9451001C
:100020000C9451000C9451000C9451000C9451000C
:100030000C9451000C9451000C9451000C945100FC
:100040000C9451000C9451000C9483010C94B40155
:100050000C9451000C9451000C9451000C945100DC
:100060000C9451000C94510011241FBECFEFD8E026
:10007000DEBFCDBF11E0A0E0B1E0E8ECF4E002C0EB
:1000800005900D92A633B107D9F721E0A6E3B1E0C0
:1000900001C01D92AA3BB207E1F70E9453000C94E5
:1000A00062020C940000219A0E946A0180E191E0B2
:1000B0000E949F008AE00E94AE008AE291E00E94C6
:1000C0009F008EED90EC0E94E4008AE291E00E9495
:1000D0009F008DE291E00E943A01FBCFCF93DF9326
:1000E00000D000D0CDB7DEB71A82198229813A81BB
:1000F00028173907E8F41C821B822B813C81283E9B
:10010000334058F42B813C812F5F3F4F3C832B833E
:100110002B813C81283E3340A8F329813A812F5F0F
:100120003F4F3A83298329813A812817390718F3E9
:100130000F900F900F900F90DF91CF910895CF9374
:10014000DF93EC018881882331F021960E946E01B3
:1001500089918111FBCFDF91CF9108951F93CF93A8
:10016000DF93CDB7DEB760970FB6F894DEBF0FBE52
:10017000CDBF90E1E0E0F1E0DE01119601900D923B
:100180009A95E1F7982F9F70E1E0F0E0EC0FFD1FEA
:10019000E90FF11D1081982F92959F70E1E0F0E03A
:1001A000EC0FFD1FE90FF11D80810E946E01812F70
:1001B0000E946E0160960FB6F894DEBF0FBECDBFF1
:1001C000DF91CF911F910895EF92FF920F931F93AC
:1001D000CF93DF93CDB7DEB764970FB6F894DEBF49
:1001E0000FBECDBF20E1E0E0F1E0DE011596019009
:1001F0000D922A95E1F78E010F5F1F4F7E0125E0DA
:10020000E20EF11CD801FC01EF70FF2725E030E081
:100210002C0F3D1FE20FF31F20812D9392958295A5
:100220008F7089279F708927AE15BF0561F78C8174
:100230009981982789278C83892789838B819A8143
:10024000982789278B8389278A83F80181918F01D9
:100250000E946E01E016F106C1F764960FB6F8949D
:10026000DEBF0FBECDBFDF91CF911F910F91FF90E9
:10027000EF9008951F93CF93DF93EC01988199231A
:1002800029F1219612E09D3259F413B98EEE92E0D5
:100290000E946E0013B98AEF90E00E946E0013C0B6
:1002A0009E3259F413B98AEF90E00E946E0013B9A0
:1002B00084E690E00E946E0006C0903221F488EE41
:1002C00093E00E946E0099919111DDCFDF91CF9163
:1002D0001F9108950E947001789408950C9408026B
:1002E0001092C00087E690E09093C5008093C40010
:1002F000E1ECF0E088E1808386E08093C2008081B9
:10030000806A808308951F920F920FB60F92112476
:100310002F938F939F93EF93FF93809138012091B8
:10032000390190E0821B910901978F739927892BDE
:1003300079F0E0913901F0E08091C600E65CFE4F73
:100340008083809139018F5F8F738093390102C060
:100350008091C600FF91EF919F918F912F910F9007
:100360000FBE0F901F9018951F920F920FB60F920D
:1003700011242F938F939F93EF93FF9380913701D5
:100380002091360190E0821B91098F739927892B68
:1003900079F0E0913601F0E0E658FE4F80818093DD
:1003A000C600809136018F5F8F738093360105C040
:1003B0008091C1008F7D8093C100FF91EF919F914B
:1003C0008F912F910F900FBE0F901F9018958091D5
:1003D000390190913801891B8F73089580913901FB
:1003E0002091380190E0821B91098F739927892B06
:1003F00069F0E0913801F0E0E65CFE4F8081909179
:1004000038019F5F9F7390933801089580E00895AD
:100410000FB607FE0EC0209136019091370130E0F3
:10042000291B3109215031092F733327232B99F3CD
:100430000DC0209136019091370130E0291B310920
:10044000215031092F733327232B61F0E0913701BD
:10045000F0E0E658FE4F8083809137018F5F8F7305
:10046000809337018091C10080628093C10008951C
:100470001F93CF93DF93EC0190E011E0190FFE0181
:10048000E90FF11D8081882321F00E940802912F3D
:10049000F4CFDF91CF911F9108951F93CF93DF93F6
:1004A000EC0190E011E0190FFE01E90FF11D8491BC
:1004B000882321F00E940802912FF4CFDF91CF9181
:0804C0001F910895F894FFCF8D
:1004C8003031323334353637383941424344454682
:1004D80053455234383620485734202D204E756203
:1004E80069616E205465736661690A0D002D2D2DB2
:0604F800202D2E2D000056
:00000001FF
