:100000000C9434000C9446000C9446000C9446006A
:100010000C9446000C9446000C9446000C94460048
:100020000C9446000C9446000C9446000C94460038
:100030000C9446000C9446000C9446000C94460028
:100040000C9446000C9446000C9408010C94390161
:100050000C9446000C9446000C9446000C94460008
:100060000C9446000C94460011241FBECFEFD8E03C
:10007000DEBFCDBF21E0A0E0B1E001C01D92A438F9
:10008000B207E1F70E94E7010C9424020C940000EF
:10009000CF93DF93EC0188810E94680088810E94E1
:1000A00068008881DF91CF910C9468000E94F50070
:1000B000789408950C948D01CF93DF93EC0189918E
:1000C000882319F00E948D01FACFDF91CF91089516
:1000D000CF93C82F90E024E0959587952A95E1F776
:1000E0008A3010F4805D01C0895C0E948D018C2FE4
:1000F0008F708A3010F0895C01C0805DCF910C94C4
:100100008D01CF93C82F892F0E9468008C2FCF912B
:100110000C9468008F929F92AF92BF92CF92DF9221
:10012000EF92FF920F931F93CF93DF9300D000D0F5
:100130001F92CDB7DEB79C0197FF07C0319521957F
:100140003109AA24A394B12C02C0A12CB12CCE0158
:1001500001967C018E010A5F1F4FFC01CC24C394E1
:10016000D12C4AE04C9D40014D9D900C1124C901B9
:10017000B4010E94FC01B6010E94FC016193261BA0
:10018000310967FD33956401E017F10759F7AB2892
:1001900011F08DE201C080E20E948D0120E030E08C
:1001A000F80182918F01811106C02115310519F4E2
:1001B000EE15FF0529F4805D0E948D0121E030E0FD
:1001C0000E151F0569F70F900F900F900F900F906D
:1001D000DF91CF911F910F91FF90EF90DF90CF9023
:1001E000BF90AF909F908F9008951092C00087E6C7
:1001F00090E09093C5008093C400E1ECF0E088E1CA
:10020000808386E08093C2008081806A8083089525
:100210001F920F920FB60F9211242F938F939F93DB
:10022000EF93FF93809102012091030190E0821BE4
:10023000910901978F739927892B79F0E091030138
:10024000F0E08091C600EC5FFE4F80838091030157
:100250008F5F8F738093030102C08091C600FF916E
:10026000EF919F918F912F910F900FBE0F901F9044
:1002700018951F920F920FB60F9211242F938F9300
:100280009F93EF93FF93809101012091000190E0F3
:10029000821B91098F739927892B79F0E0910001D6
:1002A000F0E0EC5BFE4F80818093C60080910001FE
:1002B0008F5F8F738093000105C08091C1008F7D97
:1002C0008093C100FF91EF919F918F912F910F909B
:1002D0000FBE0F901F90189580910301909102011D
:1002E000891B8F730895809103012091020190E092
:1002F000821B91098F739927892B69F0E091020184
:10030000F0E0EC5FFE4F8081909102019F5F9F7350
:1003100090930201089580E008950FB607FE0EC085
:10032000209100019091010130E0291B31092150F9
:1003300031092F733327232B99F30DC0209100012E
:100340009091010130E0291B3109215031092F73AF
:100350003327232B61F0E0910101F0E0EC5BFE4FCD
:100360008083809101018F5F8F7380930101809161
:10037000C10080628093C10008951F93CF93DF93E3
:10038000EC0190E011E0190FFE01E90FF11D8081F1
:10039000882321F00E948D01912FF4CFDF91CF911E
:1003A0001F9108951F93CF93DF93EC0190E011E02C
:1003B000190FFE01E90FF11D8491882321F00E949D
:1003C0008D01912FF4CFDF91CF911F910895CF939D
:1003D000DF9300D000D0CDB7DEB782E390E0A0E09D
:1003E000B0E089839A83AB83BC830E945600CE0120
:1003F00001960E944800FFCF97FB072E16F4009449
:1004000007D077FD09D00E94100207FC05D03EF40A
:10041000909581959F4F0895709561957F4F0895B0
:10042000AA1BBB1B51E107C0AA1FBB1FA617B7071A
:1004300010F0A61BB70B881F991F5A95A9F7809536
:0C0440009095BC01CD010895F894FFCF09
:00000001FF
