:100000000C9434000C943E000C943E000C943E0082
:100010000C943E000C943E000C943E000C943E0068
:100020000C943E000C943E000C943E000C943E0058
:100030000C943E000C943E000C943E000C943E0048
:100040000C943E000C943E000C943E000C943E0038
:100050000C943E000C943E000C943E000C943E0028
:100060000C943E000C943E0011241FBECFEFD8E04C
:10007000DEBFCDBF0E9440000C9484000C940000B1
:10008000CF93DF93CDB7DEB784E290E024E230E097
:10009000F90120812260FC0120830E94550083E247
:1000A00090E022E0FC012083F8CFCF93DF9300D0D3
:1000B00000D000D0CDB7DEB71E821D8218C01A82D4
:1000C000198211C01C821B8205C08B819C81019604
:1000D0009C838B838B819C810196B9F789819A815E
:1000E00001969A83898389819A81019659F78D8136
:1000F0009E810F9721F726960FB6F894DEBF0FBEAC
:0C010000CDBFDF91CF910895F894FFCFA0
:00000001FF
