:100000000C9434000C9451000C9451000C94510049
:100010000C9451000C9451000C9451000C9451001C
:100020000C9451000C9451000C9451000C9451000C
:100030000C9451000C9451000C94A6000C945100A7
:100040000C9451000C9451000C9420020C94510219
:100050000C9451000C9451000C9451000C945100DC
:100060000C9451000C94510011241FBECFEFD8E026
:10007000DEBFCDBF11E0A0E0B1E0E2EDF6E002C0EE
:1000800005900D92A432B107D9F721E0A4E2B1E0C6
:1000900001C01D92A63BB207E1F70E94FF020C943B
:1000A00067030C9400008AEF87BD82E080936E00A6
:1000B00084BD83E085BD789408952FB7F894FC0142
:1000C000EE0FFF1FEB5DFE4F808191812FBF0895E2
:1000D0000F931F93CF93DF93EC018B0180E091E0AE
:1000E0000E94460180912401811105C00E945300A5
:1000F00081E0809324012FB7F894CE01880F991FD7
:10010000FC01EB5DFE4F11821082FC01E05DFE4FB1
:10011000118300832FBFDF91CF911F910F9108951D
:10012000CF93DF93EC010E945D00CC0FDD1FC05D1B
:10013000DE4F21E030E0488159818417950710F4A3
:1001400020E030E0C901DF91CF9108952091250191
:1001500030912601809130019091310128173907A3
:1001600010F0000009C080912501909126010196B0
:100170009093260180932501209127013091280139
:1001800080913201909133012817390710F0000057
:1001900009C0809127019091280101969093280130
:1001A000809327018AEF87BD08959093350180934E
:1001B000340110922B0110922A0181E080932901D1
:1001C00060E070E080E090E00E9468000C943901EB
:1001D0008091340190913501892B09F444C080E06D
:1001E00090E00E949000892BF1F1809129018130EB
:1001F00039F580912A0190912B01E0913401F09121
:100200003501E80FF91F20812E3229F40E943701B1
:100210006AEF70E006C02D3261F40E9437016EEE85
:1002200072E080E090E00E94680082E08093290103
:100230000895203299F40E94390168EE73E006C0F7
:10024000823089F40E94390164E670E080E090E039
:100250000E94680080912A0190912B010196909351
:100260002B0180932A010895219A29980895299AAB
:1002700008952998089585B18695817090E0089534
:100280000E940D02789408950C94A502CF93DF93F9
:10029000EC018991882319F00E94A502FACFDF9121
:1002A000CF910895CF93C82F90E024E0959587953E
:1002B0002A95E1F78A3010F4805D01C0895C0E94C4
:1002C000A5028C2F8F708A3010F0895C01C0805D90
:1002D000CF910C94A502CF93C82F892F0E94520171
:1002E0008C2FCF910C9452012F923F924F925F929C
:1002F0006F927F928F929F92AF92BF92CF92DF9236
:10030000EF92FF920F931F93CF93DF93CDB7DEB79A
:1003100063970FB6F894DEBF0FBECDBF6B017C01B3
:1003200097FF0DC0F094E094D094C094C11CD11CF0
:10033000E11CF11C81E090E09B8B8A8B02C01B8A40
:100340001A8A8E010F5F1F4FFE013B96F98BE88BD7
:10035000580166246394712C812C912CAAE0B0E0A2
:100360009301A4010E942B031B012C01C701B601BC
:100370009101A2010E940C039301A4010E940C03AD
:10038000F50121935F01822F220F990BAA0BBB0B62
:10039000C81AD90AEA0AFB0A3101420188899989F7
:1003A000E817F907D9F6EA89FB89EF2B11F08DE2FE
:1003B00001C080E20E94A502CE010B967C0120E0E4
:1003C00030E0F70182917F01811106C021153105CE
:1003D00019F4E017F10729F4805D0E94A50221E0DD
:1003E00030E0E016F10669F763960FB6F894DEBFC9
:1003F0000FBECDBFDF91CF911F910F91FF90EF9076
:10040000DF90CF90BF90AF909F908F907F906F9034
:100410005F904F903F902F9008951092C00087E614
:1004200090E09093C5008093C400E1ECF0E088E197
:10043000808386E08093C2008081806A80830895F3
:100440001F920F920FB60F9211242F938F939F93A9
:10045000EF93FF9380912E0120912F0190E0821B5A
:10046000910901978F739927892B79F0E0912F01DA
:10047000F0E08091C600EA5CFE4F808380912F01FE
:100480008F5F8F7380932F0102C08091C600FF9110
:10049000EF919F918F912F910F900FBE0F901F9012
:1004A00018951F920F920FB60F9211242F938F93CE
:1004B0009F93EF93FF9380912D0120912C0190E069
:1004C000821B91098F739927892B79F0E0912C0178
:1004D000F0E0EA58FE4F80818093C60080912C01A5
:1004E0008F5F8F7380932C0105C08091C1008F7D39
:1004F0008093C100FF91EF919F918F912F910F9069
:100500000FBE0F901F90189580912F0190912E0192
:10051000891B8F73089580912F0120912E0190E007
:10052000821B91098F739927892B69F0E0912E0125
:10053000F0E0EA5CFE4F808190912E019F5F9F73F7
:1005400090932E01089580E008950FB607FE0EC027
:1005500020912C0190912D0130E0291B310921506F
:1005600031092F733327232B99F30DC020912C01D0
:1005700090912D0130E0291B3109215031092F7351
:100580003327232B61F0E0912D01F0E0EA58FE4F74
:10059000808380912D018F5F8F7380932D018091D7
:1005A000C10080628093C10008951F93CF93DF93B1
:1005B000EC0190E011E0190FFE01E90FF11D8081BF
:1005C000882321F00E94A502912FF4CFDF91CF91D3
:1005D0001F9108951F93CF93DF93EC0190E011E0FA
:1005E000190FFE01E90FF11D8491882321F00E946B
:1005F000A502912FF4CFDF91CF911F9108950E9412
:1006000040018EE091E00E94460168EE73E081E0D7
:1006100090E00E946800FFCF052E97FB1EF4009427
:100620000E94230357FD07D00E94360307FC03D026
:100630004EF40C94230350954095309521953F4FEF
:100640004F4F5F4F089590958095709561957F4FBE
:100650008F4F9F4F08950E945803A59F900DB49F00
:10066000900DA49F800D911D11240895A1E21A2ED2
:10067000AA1BBB1BFD010DC0AA1FBB1FEE1FFF1F46
:10068000A217B307E407F50720F0A21BB30BE40B96
:10069000F50B661F771F881F991F1A9469F76095DD
:1006A0007095809590959B01AC01BD01CF01089597
:1006B000A29FB001B39FC001A39F700D811D1124A3
:1006C000911DB29F700D811D1124911D0895F89404
:0206D000FFCF5A
:1006D20063616C6C696E67207365740D0A004C6F00
:1006E2006F70696E6720666F72657665722E2E2E48
:0406F2000D0A0000ED
:00000001FF
