:100000000C9434000C9451000C9451000C94510049
:100010000C9451000C9451000C9451000C9451001C
:100020000C9451000C9451000C9451000C9451000C
:100030000C9451000C9451000C9451000C945100FC
:100040000C9451000C9451000C948B010C94BC0145
:100050000C9451000C9451000C9451000C945100DC
:100060000C9451000C94510011241FBECFEFD8E026
:10007000DEBFCDBF11E0A0E0B1E0E8E2F5E002C0F4
:1000800005900D92A430B107D9F721E0A4E0B1E0CA
:1000900001C01D92A838B207E1F70E9471000C94CC
:1000A00092020C940000CF93DF9300D000D0CDB724
:1000B000DEB79C838B831A82198205C089819A815D
:1000C00001969A83898329813A818B819C812817A3
:1000D0003907A4F30F900F900F900F90DF91CF91FD
:1000E0000895CF93DF93CDB7DEB72B970FB6F89473
:1000F000DEBF0FBECDBF80E593EC0E94530085E0CC
:100100008D8385E090E09F838E8385E090E0A0E082
:10011000B0E088879987AA87BB87CE0108960496A6
:100120009A838983CE0108969C838B830E94D90091
:1001300029813A818B819C81A901481B590BCA01F5
:100140000E94EB0080E091E00E94DF00CE01069665
:1001500002969A838983CE0106969C838B8329819C
:100160003A818B819C81A901481B590BCA010E94CD
:10017000EB0080E091E00E94DF00CE010596019641
:100180009A838983CE0105969C838B8329813A814A
:100190008B819C81A901481B590BCA010E94EB006D
:1001A00080E091E00E94DF0080E091E00E94DF00AB
:1001B000FFCF0E947801789408950C941002CF9399
:1001C000DF93EC018991882319F00E941002FACF85
:1001D000DF91CF910895CF93C82F90E024E09595BB
:1001E00087952A95E1F78A3010F4805D01C0895C1B
:1001F0000E9410028C2F8F708A3010F0895C01C031
:10020000805DCF910C941002CF93C82F892F0E944C
:10021000EB008C2FCF910C94EB008F929F92AF92BA
:10022000BF92CF92DF92EF92FF920F931F93CF93E3
:10023000DF9300D000D01F92CDB7DEB79C0197FFAF
:1002400007C0319521953109AA24A394B12C02C08D
:10025000A12CB12CCE0101967C018E010A5F1F4FAB
:10026000FC01CC24C394D12C4AE04C9D40014D9D0F
:10027000900C1124C901B4010E946A02B6010E94C7
:100280006A026193261B310967FD33956401E0170B
:10029000F10759F7AB2811F08DE201C080E20E940E
:1002A000100220E030E0F80182918F01811106C038
:1002B0002115310519F4EE15FF0529F4805D0E9422
:1002C000100221E030E00E151F0569F70F900F9026
:1002D0000F900F900F90DF91CF911F910F91FF9092
:1002E000EF90DF90CF90BF90AF909F908F90089548
:1002F0001092C00087E690E09093C5008093C40000
:10030000E1ECF0E088E1808386E08093C2008081A8
:10031000806A808308951F920F920FB60F92112466
:100320002F938F939F93EF93FF93809106012091DA
:10033000070190E0821B910901978F739927892B00
:1003400079F0E0910701F0E08091C600E85FFE4F90
:100350008083809107018F5F8F738093070102C0B4
:100360008091C600FF91EF919F918F912F910F90F7
:100370000FBE0F901F9018951F920F920FB60F92FD
:1003800011242F938F939F93EF93FF9380910501F7
:100390002091040190E0821B91098F739927892B8A
:1003A00079F0E0910401F0E0E85BFE4F80818093FA
:1003B000C600809104018F5F8F738093040105C094
:1003C0008091C1008F7D8093C100FF91EF919F913B
:1003D0008F912F910F900FBE0F901F9018958091C5
:1003E000070190910601891B8F7308958091070181
:1003F0002091060190E0821B91098F739927892B28
:1004000069F0E0910601F0E0E85FFE4F8081909195
:1004100006019F5F9F7390930601089580E0089501
:100420000FB607FE0EC0209104019091050130E047
:10043000291B3109215031092F733327232B99F3BD
:100440000DC0209104019091050130E0291B310974
:10045000215031092F733327232B61F0E0910501DF
:10046000F0E0E85BFE4F8083809105018F5F8F7322
:10047000809305018091C10080628093C10008953E
:100480001F93CF93DF93EC0190E011E0190FFE0171
:10049000E90FF11D8081882321F00E941002912F25
:1004A000F4CFDF91CF911F9108951F93CF93DF93E6
:1004B000EC0190E011E0190FFE01E90FF11D8491AC
:1004C000882321F00E941002912FF4CFDF91CF9169
:1004D0001F91089597FB072E16F4009407D077FD1F
:1004E00009D00E947E0207FC05D03EF490958195CC
:1004F0009F4F0895709561957F4F0895AA1BBB1B70
:1005000051E107C0AA1FBB1FA617B70710F0A61B13
:10051000B70B881F991F5A95A9F780959095BC0134
:08052000CD010895F894FFCF0E
:040528000D0A0000B8
:00000001FF
