:100000000C9434000C9451000C9451000C94510049
:100010000C9451000C9451000C9451000C9451001C
:100020000C9451000C9451000C9451000C945707FF
:100030000C9451000C9451000C9440090C94510004
:100040000C9451000C9451000C94E9090C941A0A78
:100050000C9451000C9451000C94E9000C94510044
:100060000C9451000C94510011241FBECFEFD8E026
:10007000DEBFCDBF11E0A0E0B1E0EEE6F7E102C0E7
:1000800005900D92A83DB107D9F723E0A8EDB1E0A6
:1000900001C01D92A538B207E1F70E94C80A0C946E
:1000A000B50B0C9400000E94E000892B69F480914C
:1000B000D801882349F042E168EB72E080E490E0E7
:1000C0000E94AC001092D80108958091B80281344A
:1000D000B1F48091B902833591F48091BA028535EB
:1000E00071F462E170E088EB92E00E94390131E046
:1000F00020E0892B09F430E0832F922F089580E0CF
:1001000090E0089581E08093D801089562E170E065
:1001100080E091E00E94260142E160E071E080E42D
:1001200090E00C94AC000E94E000892BE1F742E1E2
:1001300068EB72E080E490E00E94C8000E946500D5
:10014000892B49F40E94860042E168EB72E080E46A
:1001500090E00C94C80008959093DB018093DA013D
:100160004093DD018091D9018111FCCF81E0809322
:10017000D901FB01AEEDB1E050E0CD018E5D9140C3
:100180008417950718F481918D93F7CFFB9A089502
:100190002091D9012130E1F3FB01861B970B50E040
:1001A000DC01AE0FBF1F9F01261B370B241735073D
:1001B00030F4B2BDA1BDF89A20B52193F1CF0895D6
:1001C0002091D90181E090E0213011F080E090E0B1
:1001D00008951F920F920FB60F9211248F939F9341
:1001E000EF93FF939091DC018091DD019817F0F47B
:1001F0008091DA019091DB0192BD81BDE091DC013B
:10020000F0E0E252FE4F808180BDFA9AF99A809127
:10021000DC018F5F8093DC018091DA019091DB013A
:1002200001969093DB018093DA0107C09091DC0185
:10023000981718F01FBA1092D901FF91EF919F9172
:100240008F910F900FBE0F901F90189520E030E017
:10025000AB01415051092617370751F024173507D4
:1002600021F4FC01E20FF31F10822F5F3F4FF3CF09
:10027000089581E090E008958091CA028335B1F439
:100280008091CB02853491F48091CC02823571F457
:1002900067E370E08AEC92E00E94390131E020E0EF
:1002A000892B09F430E0832F922F089580E090E0AD
:1002B000089567E370E082E191E00E94260147E340
:1002C00062E171E080E090E00C94AC000E94E000FC
:1002D000892BE1F747E36AEC72E080E090E00E944E
:1002E000C8000E943C01892B69F40E94590147E330
:1002F0006AEC72E080E090E00E94C8008AEA91E037
:100300000C94A907089590931F0280931E021092E7
:100310002202109221021092200260E070E080E040
:1003200090E00E94AC090C94F40180911E0290911F
:100330001F02892B09F452C080E090E00E949309CB
:10034000892B09F44BC080912002811134C0209187
:10035000210230912202E0911E02F0911F02E20F71
:10036000F31F80818032E9F03CF481111DC01092AE
:1003700022021092210208958D3239F08E32A1F4BA
:100380000E94F2016AEF70E004C00E94F2016EEE7A
:1003900072E080E090E00E94AC0981E0809320024E
:1003A000089568EE73E00BC02F5F3F4F3093220239
:1003B0002093210208950E94F40164E670E080E039
:1003C00090E00E94AC09109220028091210290914D
:1003D0002202019690932202809321020895219A8D
:1003E00029980895299A08952998089585B18695A0
:1003F000817090E008958031910504F527E0289FF1
:10040000A001299F500D1124FA01EA5DFD4F808162
:100410008132A0F480E090E020E0FC01E40FF51FC1
:10042000EA5DFD4F3081230F019687309105A9F7D2
:1004300081E090E0222321F080E0089580E090E0C8
:1004400008956F927F928F929F92AF92BF92CF92B8
:10045000DF92EF92FF920F931F93CF93DF930E944F
:10046000E000892BE1F706E912E0C0E8D0E0BE0128
:100470006A557E4F47E0CE010E94C800F8011192F4
:100480008F012796C03FD10591F736E2E32E32E087
:10049000F32E8701C0E0D0E0D12C712C88248A94FF
:1004A000CE010E94FB01892B41F0F8018081881563
:1004B00020F47C2E882EDD24D3942196095F1F4FD3
:1004C000C031D10569F7DD2009F470C070922502B2
:1004D00080922402982CA12CB12CC72DD0E06E0163
:1004E000FFEFCF1ADF0A27E0622E86010A0D1B1DDF
:1004F0000F701127C8010E94FB01892B61F47092D3
:1005000023028E0101501109609780E1C82ED12C81
:1005100097E0992E3EC0609EF001619EF00D11247F
:10052000EA5DFD4F4081842F90E0292D30E02F5F60
:100530003F4F2F7133278217930709F70093250246
:10054000409324028FEFA81AB80AEFE0AE16B10468
:10055000B1F2942ECACFF701808190E0282D30E0CF
:10056000215E3F4F2F7133278217930731F5A092F9
:100570002302969CF001979CF00D1124EA5DFD4F3B
:10058000808001501109F7E0EF0EF11C0C171D07D8
:10059000A1F0C801B6010E94460B5C013C01772422
:1005A000C3010E94FB01892BB1F607C08FE0809345
:1005B00025021092240210922302DF91CF911F9105
:1005C0000F91FF90EF90DF90CF90BF90AF909F90F2
:1005D0008F907F906F900895FF920F931F93CF930A
:1005E000DF930E94E000892B31F5E6E9F2E0C0E0FC
:1005F000D0E081918823D9F087E08C9F80018D9F86
:10060000100D11240A5D1D4F67E070E0C8010E94C3
:10061000260127E0C29FC001112447E0B80180589D
:100620009F4F0E94AC00CA56DD4F188204C021962D
:10063000C031D105F1F6DF91CF911F910F91FF905D
:100640000895EF92FF920F931F93CF93DF93E82EBD
:10065000C0912502D0E02196CF70DD278091230242
:1006600090E00E94FB01F82E909124029F5F91324E
:1006700018F49093240202C01092240287E08C9F09
:1006800080018D9F100D11240A5D1D4F8091240261
:10069000F80180830E94EF03F801618372838383F2
:1006A0009483E582C093250267E070E0C8010E9450
:1006B0002601CA56DD4F81E0888390912502809102
:1006C0002302981309C0FF2039F0892F90E001968A
:1006D0008F70992780932302DF91CF911F910F9103
:1006E000FF90EF900895E6E2F2E0A6E9B2E08FEF26
:1006F0004FEF5FEFBA0191E080838583418352839E
:10070000638374839D93379622E0E639F207A1F75D
:100710008FE0809325021092230210922402089504
:100720000F931F93CF93DF9300912302C02F10E00C
:10073000D0E0CE010E94FB01892B29F02196CF70D9
:100740001F5FC013F5CF812FDF91CF911F910F91C4
:100750000895AF92BF92CF92DF92EF92FF920F93E4
:100760001F93CF93DF936B017C018A0159010E9493
:10077000900390E0A0E0B0E0C816D906EA06FB06B8
:10078000F8F48091230290E0C80ED91E8FE0C822B1
:10079000DD2487E08C9DF0018D9DF00D1124EA5D34
:1007A000FD4F81819281A381B481E801888399837F
:1007B000AA83BB838581F501808381E090E002C03C
:1007C00080E090E0DF91CF911F910F91FF90EF902B
:1007D000DF90CF90BF90AF9008950C947C070F935B
:1007E0001F930E948B070091010310910203209137
:1007F000030330910403600F711F821F931F1F9129
:100800000F9108959C0160E971E00E94320B892BE1
:1008100079F0C90183709927892B61F4C90164E6D5
:1008200070E00E94320B9C0181E0232B21F402C076
:1008300081E0089580E008952F923F924F925F9259
:100840006F927F928F929F92AF92BF92CF92DF92E0
:10085000EF92FF920F931F93CF93DF93CDB7DEB745
:1008600067970FB6F894DEBF0FBECDBFAC018CE02A
:10087000EDE5F1E09E012F5F3F4F1901D901019095
:100880000D928A95E1F7DA0111962C911197215377
:100890008C91880F8056982F990F990F890F280FE8
:1008A0002D8713968C911397082E000C990BC097E7
:1008B0006AE0689F9001699F300D11241496CC90D6
:1008C0000C2C000CDD08B0E3CB1AD108C20ED31EED
:1008D000860101501109FA018681082E000C990B3E
:1008E000C097E8EEF3E08E9F90018F9F300D9E9FA2
:1008F000300D1124DA0117968C911797082E000CF1
:10090000990BC09774E6789F7001799FF00C1124C1
:10091000E20EF31E18962C911897022E000C330B42
:1009200020533109629FC001639F900D1124E80E8E
:10093000F91E19968C911997F701E80FF11D87FDA3
:10094000FA959F01385079011C962C911C972053E1
:100950001B968C911B97880F8056982F990F990F93
:10096000890F280F298B1F962C911F9720531E96B5
:100970008C911E97880F8056982F990F990F890F89
:10098000280F2A8B52962C915297205351968C9176
:10099000880F8056982F990F990F890F280F2B8B4E
:1009A000C7010E940204882321F03D85323008F0FF
:1009B0008601C70160E971E00E94320BFC01DB0196
:1009C00020E839E540E650EF0E94AA0B2B013C01DC
:1009D000CF0164E670E00E94320BFC01DB0120E0F5
:1009E00032EC47E15CEB0E94AA0B4B015C01DF019A
:1009F000B695A795B695A79520E83FE146E857E05C
:100A00000E94AA0B6B017C01DF01A370BB2720E8C9
:100A100033E341EE51E00E94AA0B6C8B7D8B8E8BF1
:100A20009F8BF1018E2F82194D85841720F48191BF
:100A3000080F111DF7CF5989252F30E0A0E1BEE046
:100A40000E949B0B6D877E878F87988B8A89282FC2
:100A500030E0ACE3B0E00E949B0B2D853E854F85D6
:100A60005889260F371F481F591FDA01C9013B89D2
:100A7000830F911DA11DB11D480E591E6A1E7B1EBC
:100A8000840C951CA61CB71CC80CD91CEA1CFB1CAA
:100A90008C899D89AE89BF89C80ED91EEA1EFB1EAE
:100AA000D80120E831E541E050E00E94AA0BDC01CA
:100AB000CB018C0D9D1DAE1DBF1D80930103909336
:100AC0000203A0930303B093040367960FB6F89450
:100AD000DEBF0FBECDBFDF91CF911F910F91FF9071
:100AE000EF90DF90CF90BF90AF909F908F907F90CE
:100AF0006F905F904F903F902F900C949707EF92DC
:100B0000FF920F931F93CF93DF93CDB7DEB7689714
:100B10000FB6F894DEBF0FBECDBF7B012CE0EDE534
:100B2000F1E0DE011D9601900D922A95E1F78E010C
:100B30000F5F1F4F2CE0F80111922A95E9F70E94F0
:100B400002048A83DE011D9680E0F7014081518115
:100B50009D91F80121918F0130E0290F311D42173D
:100B6000530740F0421B530BF701518340838F5FC3
:100B70008C3059F768960FB6F894DEBF0FBECDBF24
:100B8000DF91CF911F910F91FF90EF9008954F92B9
:100B90005F926F927F928F929F92AF92BF92CF920D
:100BA000DF92EF92FF920F931F93CF93DF9300D0CA
:100BB000CDB7DEB74B015C0181E090E0A0E0B0E092
:100BC00020E8821629E5920620E6A20620EFB2066A
:100BD00018F480E090E0DC0120E931E0829F8001A0
:100BE000839F100D929F100D1124F801E053F84FD0
:100BF000C12CD12C7601C39480E8881689E598062B
:100C000080E6A80680EFB80618F4C12CD12C760136
:100C1000A701960160E879E580E690EF0E94220B3B
:100C200075016401C61AD70AE80AF90A81E090E062
:100C3000A0E0B0E0C11422ECD20627E1E2062CEBE2
:100C4000F20618F480E090E0DC0124E6289F8001A1
:100C5000299F100D11240E0F1F1F21E030E040E0EE
:100C600050E0C11482ECD80687E1E8068CEBF80668
:100C700018F420E030E0A90160E072EC87E19CEB21
:100C80000E94220BA7019601261B370B480B590B1C
:100C9000CA01B90120E83FE146E857E00E945A0B3B
:100CA000220F331F220F331F020F131F20E833E3DD
:100CB00041EE51E00E945A0B6801C20ED31E20E89B
:100CC00031E541E050E00E945A0B4B015C013A8350
:100CD0002983BE016F5F7F4FC6010E947F05F82EFA
:100CE000C501B40120E13EE040E050E00E945A0B13
:100CF00029013A014B015C0160EC71E089E491E06B
:100D00000E94E306EF2DF0E0BF016F5F7F4F42E0EE
:100D100089E491E00E94ED0689819A81BC016F5FB0
:100D20007F4F42E08CE491E00E94ED0644E0B60182
:100D30008FE491E00E94ED0642E0B20184E591E08B
:100D40000E94ED06C501B4012CE330E040E050E024
:100D50000E945A0B89019A016B017C0142E0B801A3
:100D600087E591E00E94ED0642E0B6018AE591E058
:100D70000E94ED0689E491E00F900F90DF91CF91F2
:100D80001F910F91FF90EF90DF90CF90BF90AF90A9
:100D90009F908F907F906F905F904F9008950F93EA
:100DA0001F930E948B070091010310910203209171
:100DB000030330910403600F711F821F931F1F9163
:100DC0000F910C94C705FC01DB018D91BD018823B7
:100DD00011F08193F9CF108208957F928F929F92A4
:100DE000AF92BF92CF92DF92EF92FF920F931F9339
:100DF000CF93DF9300D000D01F92CDB7DEB7FC01B8
:100E00007B019E012F5F3F4F4E0186E0880E911CB3
:100E100001E010E069018AE0782E709E5001719E19
:100E2000B00C1124C701B5010E94320BB8010E9419
:100E3000320BD9016D939D01E61AF10867FDF39419
:100E40008501A815B90549F760E070E024E030E0BD
:100E500050E0D601A20FB31F8C91811106C061151D
:100E6000710519F42115310541F4241735072CF4C7
:100E7000805D819361E070E004C0241735070CF4B5
:100E800031962150310928F70F900F900F900F9055
:100E90000F90DF91CF911F910F91FF90EF90DF9016
:100EA000CF90BF90AF909F908F907F9008951F92AA
:100EB0000F920FB60F9211248F939F93AF93BF930E
:100EC0008091A6029091A702A091A802B091A902D8
:100ED0000196A11DB11D8093A6029093A702A09335
:100EE000A802B093A902BF91AF919F918F910F90EB
:100EF0000FBE0F901F90189583E294EF9093890096
:100F000080938800109280008CE08093810082E0C2
:100F100080936F0008952FB7F8946091A6027091A6
:100F2000A7028091A8029091A9022FBF08958FB7C0
:100F3000F8941092A6021092A7021092A8021092A2
:100F4000A9028FBF08950E94D609789408950C9441
:100F50006E0ACF93DF93EC018991882319F00E94E8
:100F60006E0AFACFDF91CF910895CF93C82F90E00A
:100F700024E0959587952A95E1F78A3010F4805DF5
:100F800001C0895C0E946E0A8C2F8F708A3010F02D
:100F9000895C01C0805DCF910C946E0ACF93C82FFD
:100FA000892F0E94B5078C2FCF910C94B5072F92F3
:100FB0003F924F925F926F927F928F929F92AF92E9
:100FC000BF92CF92DF92EF92FF920F931F93CF9336
:100FD000DF93CDB7DEB763970FB6F894DEBF0FBED1
:100FE000CDBF6B017C0197FF0DC0F094E094D094CD
:100FF000C094C11CD11CE11CF11C81E090E09B8BD2
:101000008A8B02C01B8A1A8A8E010F5F1F4FFE0156
:101010003B96F98BE88B580166246394712C812CE4
:10102000912CAAE0B0E09301A4010E94AA0B1B013D
:101030002C01C701B6019101A2010E947C0B930112
:10104000A4010E947C0BF50121935F01822F220FE6
:10105000990BAA0BBB0BC81AD90AEA0AFB0A310181
:10106000420188899989E817F907D9F6EA89FB8945
:10107000EF2B11F08DE201C080E20E946E0ACE01DA
:101080000B967C0120E030E0F70182917F01811115
:1010900006C02115310519F4E017F10729F4805D28
:1010A0000E946E0A21E030E0E016F10669F76396CF
:1010B0000FB6F894DEBF0FBECDBFDF91CF911F9169
:1010C0000F91FF90EF90DF90CF90BF90AF909F90E7
:1010D0008F907F906F905F904F903F902F900895EA
:1010E0002F923F924F925F926F927F928F929F9238
:1010F000AF92BF92CF92DF92EF92FF920F931F9326
:10110000CF93DF93CDB7DEB768970FB6F894DEBF05
:101110000FBECDBF8C016115710509F498C0412C3B
:10112000512C3201CB01A0E0B0E08B8B9C8BAD8BBE
:10113000BE8BDE0111961D018B899C89AD89BE890C
:10114000481659066A067B0608F081C0812F0E9466
:10115000B507802F807F0E94B50780E20E94A70715
:101160005801C12CD12C7601B1016C0D7D1D41E0DF
:10117000C5010E94C800BFEFAB1ABB0AEFEFCE1A41
:10118000DE0AEE0AFE0AFFEF4F1A5F0A6F0A7F0AB5
:101190008B899C89AD89BE89481659066A067B06EB
:1011A00070F0DA8AC98A48019FE08922992400E018
:1011B00010E09601280D391D388F2F8B06C0C50110
:1011C0008F709927892B81F6ECCF0815190528F027
:1011D0002F89388D0217130728F084ED91E00E94C3
:1011E000A9070BC0F801E819F909E20DF31D808188
:1011F0000E94B50780E20E94A7070F5F1F4F0031D2
:10120000110519F700E010E00815190531F080E22A
:101210000E94A7070F5F1F4FF7CF8101C8018219F6
:10122000930929893A898217930758F4D8018D9137
:101230008D0190EE980F903608F08EE20E94A7077D
:10124000EDCF8DEB91E00E94A907850175CF6896DF
:101250000FB6F894DEBF0FBECDBFDF91CF911F91C7
:101260000F91FF90EF90DF90CF90BF90AF909F9045
:101270008F907F906F905F904F903F902F90089548
:101280001F920F920FB60F9211242F933F938F93BB
:101290009F932091B0023091B1028091AC02909165
:1012A000AD022817390749F08091B0029091B10240
:1012B00001969093B1028093B0022091B2023091D6
:1012C000B3028091AE029091AF022817390749F01E
:1012D0008091B2029091B30201969093B3028093F1
:1012E000B2029F918F913F912F910F900FBE0F905F
:1012F0001F90189589EF87BD82E084BD93E095BD6E
:1013000080936E0008958230910550F4F894880F10
:10131000991FFC01E055FD4F8081918178940895DB
:1013200080E090E008958230910598F4880F991F2D
:10133000FC01E055FD4F40815181FC01E455FD4F1A
:1013400081E090E0208131814217530721F080E055
:10135000089580E090E008950F931F93CF93DF935B
:10136000EC018B018091AA029091AB02892B41F490
:101370000E947A0981E090E09093AB028093AA02E8
:10138000C230D10570F48FB7F894CC0FDD1FFE0189
:10139000E455FD4F11830083C055DD4F198218823B
:1013A0008FBFDF91CF911F910F9108951092C000D0
:1013B00087E690E09093C5008093C400E1ECF0E0F4
:1013C00088E1808386E08093C2008081806A808388
:1013D00008951F920F920FB60F9211242F938F939F
:1013E0009F93EF93FF938091B6022091B70290E014
:1013F000821B910901978F739927892B79F0E091CE
:10140000B702F0E08091C600EB5FFC4F80838091D3
:10141000B7028F5F8F738093B70202C08091C600BE
:10142000FF91EF919F918F912F910F900FBE0F9091
:101430001F9018951F920F920FB60F9211242F93A1
:101440008F939F93EF93FF938091B5022091B40205
:1014500090E0821B91098F739927892B79F0E09195
:10146000B402F0E0EB5BFC4F80818093C60080917A
:10147000B4028F5F8F738093B40205C08091C10066
:101480008F7D8093C100FF91EF919F918F912F915C
:101490000F900FBE0F901F9018958091B7029091FA
:1014A000B602891B8F7308958091B7022091B6020E
:1014B00090E0821B91098F739927892B69F0E09145
:1014C000B602F0E0EB5FFC4F80819091B6029F5F27
:1014D0009F739093B602089580E008950FB607FEBB
:1014E0000EC02091B4029091B50230E0291B310961
:1014F000215031092F733327232B99F30DC02091ED
:10150000B4029091B50230E0291B31092150310914
:101510002F733327232B61F0E091B502F0E0EB5BF2
:10152000FC4F80838091B5028F5F8F738093B502EB
:101530008091C10080628093C10008951F93CF9372
:10154000DF93EC0190E011E0190FFE01E90FF11DAE
:101550008081882321F00E946E0A912FF4CFDF91C1
:10156000CF911F9108951F93CF93DF93EC0190E0EB
:1015700011E0190FFE01E90FF11D8491882321F07C
:101580000E946E0A912FF4CFDF91CF911F910895A1
:101590000E94A3070E94EF010E9421020E94ED0316
:1015A0000E9466010E94930089E691E00E948301F7
:1015B00082E791E00E941C0486E891E00E94A9075E
:1015C0008AEC92E00E94A90787EA91E00E94A907AD
:1015D0008AED92E00E94A90787EA91E00E94A9079C
:1015E00088EB92E00E94A90787EA91E00E94A90790
:1015F00081E08093C4020E9473038AEA0E9421035F
:101600008BEB0E9421038CEC0E942103C0E0D0E010
:101610000E9495010E94E000892B21F40E94EC02B7
:101620000E9453000E94E000892B91F7CD2B19F006
:10163000C1E0D0E0EDCF60E071E080E090E00E949A
:101640007008F6CFDB018F939F930E94AA0BBF9186
:10165000AF91A29F800D911DA39F900DB29F900D01
:1016600011240895AA1BBB1B51E107C0AA1FBB1F71
:10167000A617B70710F0A61BB70B881F991F5A951E
:10168000A9F780959095BC01CD01089597FB072E91
:1016900016F4009407D077FD09D00E94320B07FCA6
:1016A00005D03EF4909581959F4F08957095619572
:1016B0007F4F0895A1E21A2EAA1BBB1BFD010DC08E
:1016C000AA1FBB1FEE1FFF1FA217B307E407F507F2
:1016D00020F0A21BB30BE40BF50B661F771F881FCE
:1016E000991F1A9469F760957095809590959B0164
:1016F000AC01BD01CF010895052E97FB1EF40094A7
:101700000E94930B57FD07D00E945A0B07FC03D091
:101710004EF40C94930B50954095309521953F4F86
:101720004F4F5F4F089590958095709561957F4FCD
:101730008F4F9F4F0895A29FB001B39FC001A39FF9
:10174000700D811D1124911DB29F700D811D1124FA
:10175000911D08950E949B0BA59F900DB49F900D25
:0E176000A49F800D911D11240895F894FFCFD1
:10176E0041535500FF03FE030000010000C0A80115
:10177E006400534552004E756269616E00000000B0
:10178E00000054657366616900000000000031328C
:10179E0033343500000000000000000000004E75DC
:1017AE0062546573555341000030302F30302F3066
:1017BE003030302030303A30303A3030001F1C1F7D
:1017CE001E1F1E1F1F1E1F1E1F2D2D2D202D2E2DC9
:1017DE00200030312F30312F323031382030303A36
:1017EE0030303A3030005345523438362050726F14
:1017FE006A6563742032204E756269616E2054658D
:10180E00736661690D0A000A0D0052656164696EA6
:10181E00672066726F6D20454550524F4D0D0A0080
:10182E0030302F30302F303030302030303A3030B2
:08183E003A30300020202000A8
:00000001FF
