:100000000C9434000C9451000C9451000C94510049
:100010000C9451000C9451000C9451000C9451001C
:100020000C9451000C9451000C9451000C9451000C
:100030000C9451000C9451000C9451000C945100FC
:100040000C9451000C9451000C94A8010C94D9010B
:100050000C9451000C9451000C9451000C945100DC
:100060000C9451000C94510011241FBECFEFD8E026
:10007000DEBFCDBF11E0A0E0B1E0E4EAF5E002C0F0
:1000800005900D92AA33B107D9F721E0AAE3B1E0B8
:1000900001C01D92AE3BB207E1F70E9487020C94AB
:1000A000D0020C940000EAE7F0E08081866880834B
:1000B000ECE7F0E08081886C8083089580917A007D
:1000C000829586958695837091E08927817090E06E
:1000D0000895EAE7F0E0808180648083089580914C
:1000E000780020917900022E000C330B322F22274A
:1000F000082E000C990B282B392B45E6429FC00196
:10010000439F900D112464E670E00E94A802CB0189
:10011000815191400895CF93DF9300D000D0CDB7A7
:10012000DEB71C821B822B813C8128173907A8F47B
:100130001A82198229813A81283E334038F4298174
:100140003A812F5F3F4F3A832983F4CF2B813C8143
:100150002F5F3F4F3C832B83E6CF0F900F900F9084
:100160000F90DF91CF910895219A29980895299AA7
:1001700008952998089585B18695817090E0089535
:100180000F931F93CF93DF9300D0CDB7DEB7898352
:100190009A830E94B9008981082F9A81192FF8014A
:1001A00081918F018823D9F08E3229F40E94B70003
:1001B0008AEF90E006C08D3259F40E94B7008EEEAF
:1001C00092E00E948B000E94B90084E690E004C097
:1001D000803229F788EE93E00E948B00E0CF0F90E9
:1001E0000F90DF91CF911F910F9108950E9495017B
:1001F000789408950C942D02CF93DF93EC018991AC
:10020000882319F00E942D02FACFDF91CF91089533
:10021000CF93C82F90E024E0959587952A95E1F734
:100220008A3010F4805D01C0895C0E942D028C2F01
:100230008F708A3010F0895C01C0805DCF910C9482
:100240002D02CF93C82F892F0E9408018C2FCF91A8
:100250000C9408018F929F92AF92BF92CF92DF923F
:10026000EF92FF920F931F93CF93DF9300D000D0B4
:100270001F92CDB7DEB79C0197FF07C0319521953E
:100280003109AA24A394B12C02C0A12CB12CCE0117
:1002900001967C018E010A5F1F4FFC01CC24C394A0
:1002A000D12C4AE04C9D40014D9D900C1124C90178
:1002B000B4010E94A802B6010E94A8026193261B05
:1002C000310967FD33956401E017F10759F7AB2851
:1002D00011F08DE201C080E20E942D0220E030E0AA
:1002E000F80182918F01811106C02115310519F4A1
:1002F000EE15FF0529F4805D0E942D0221E030E01B
:100300000E151F0569F70F900F900F900F900F902B
:10031000DF91CF911F910F91FF90EF90DF90CF90E1
:10032000BF90AF909F908F9008951092C00087E685
:1003300090E09093C5008093C400E1ECF0E088E188
:10034000808386E08093C2008081806A80830895E4
:100350001F920F920FB60F9211242F938F939F939A
:10036000EF93FF9380913C0120913D0190E0821B2F
:10037000910901978F739927892B79F0E0913D01BD
:10038000F0E08091C600E25CFE4F808380913D01E9
:100390008F5F8F7380933D0102C08091C600FF91F3
:1003A000EF919F918F912F910F900FBE0F901F9003
:1003B00018951F920F920FB60F9211242F938F93BF
:1003C0009F93EF93FF9380913B0120913A0190E03E
:1003D000821B91098F739927892B79F0E0913A015B
:1003E000F0E0E258FE4F80818093C60080913A0190
:1003F0008F5F8F7380933A0105C08091C1008F7D1C
:100400008093C100FF91EF919F918F912F910F9059
:100410000FBE0F901F90189580913D0190913C0167
:10042000891B8F73089580913D0120913C0190E0DC
:10043000821B91098F739927892B69F0E0913C0108
:10044000F0E0E25CFE4F808190913C019F5F9F73E2
:1004500090933C01089580E008950FB607FE0EC00A
:1004600020913A0190913B0130E0291B3109215044
:1004700031092F733327232B99F30DC020913A01B3
:1004800090913B0130E0291B3109215031092F7334
:100490003327232B61F0E0913B01F0E0E258FE4F5F
:1004A000808380913B018F5F8F7380933B018091AC
:1004B000C10080628093C10008951F93CF93DF93A2
:1004C000EC0190E011E0190FFE01E90FF11D8081B0
:1004D000882321F00E942D02912FF4CFDF91CF913C
:1004E0001F9108951F93CF93DF93EC0190E011E0EB
:1004F000190FFE01E90FF11D8491882321F00E945C
:100500002D02912FF4CFDF91CF911F9108950E947A
:10051000F6000E94B4000E94530082E091E00E9425
:10052000FC008FE191E00E94FC008FE191E00E94CD
:10053000FC000E9469000E945E00892BE1F30E948A
:100540006F000E942A0188EE93E00E948B00EDCF9D
:1005500097FB072E16F4009407D077FD09D00E9470
:10056000BC0207FC05D03EF4909581959F4F0895FD
:10057000709561957F4F0895AA1BBB1B51E107C081
:10058000AA1FBB1FA617B70710F0A61BB70B881F23
:10059000991F5A95A9F780959095BC01CD010895B2
:0405A000F894FFCFFD
:1005A400240053455234383620485735202D204EE8
:1005B400756269616E205465736661690A0D007421
:1005C40068697320776F6E27742067657420636190
:0A05D4006C6C65642E2E2E0A0D00DB
:00000001FF
