:100000000C9434000C9451000C9451000C94510049
:100010000C9451000C9451000C94F9010C94510073
:100020000C9451000C9451000C9451000C94570AFC
:100030000C9451000C9451000C9498020C945100B3
:100040000C9451000C9451000C949C140C94C41505
:100050000C9451000C9451000C9475030C945100B5
:100060000C9451000C94510011241FBECFEFD8E026
:10007000DEBFCDBF13E0A0E0B1E0E2E7FFE202C0E7
:1000800005900D92AA34B107D9F725E0AAE4B3E0B0
:1000900001C01D92AF34B207E1F70E94A7160C947D
:1000A000B7170C94000081E080934E0308951092DE
:1000B0004E0310924F0308950F931F93FC018091FC
:1000C0004E03A0914C03B0914D038C93811107C056
:1000D00089EB92E00E94F80310924F0390C08130A8
:1000E00009F08DC090914F032E173F07A4F40E170F
:1000F0001F078CF0992311F0953069F48BEC91E097
:100100000E94F80388E00E94C70588E090E00E9402
:100110000F0287E072C0E617F70794F4E417F507BB
:100120003CF1923028F58BEC91E00E94F80386E0D8
:100130000E94C70586E090E00E940F0282E05DC049
:100140008EEF890F8230A0F4923061F48DEC91E053
:100150000E94F80385E00E94C70585E090E00E94B8
:100160000F0204C08DEC91E00E94F80384E045C0CA
:100170002E173F079CF08AEF890F8230F0F49730FA
:1001800059F48DEC91E00E94F80387E00E94C705C6
:1001900087E090E00E940F0288E02FC0983069F459
:1001A0008BEC91E00E94F80388E00E94C70588E08C
:1001B00090E00E940F0286E020C0E617F70744F4A3
:1001C000943031F48BEC91E00E94F80383E015C089
:1001D0000E171F0744F4963031F489EB92E00E9429
:1001E000F80385E00AC0E417F5074CF4933039F4BE
:1001F00089EB92E00E94F80381E080934F031F9106
:100200000F9108952091580321111BC028ED3FEF55
:10021000309357032093560326E930E0309355037B
:100220002093540322E330E030935303209352038E
:100230002AE030E0309351032093500321E02093D3
:1002400058032091520330915303281739075CF467
:10025000909355038093540390937904809378048A
:1002600080E090E0089581E090E0089520915803A7
:1002700021111BC028ED3FEF309357032093560305
:1002800026E930E0309355032093540322E330E015
:1002900030935303209352032AE030E0309351030C
:1002A0002093500321E02093580320915003309174
:1002B0005103821793075CF490935703809356037E
:1002C00090937D0480937C0480E090E0089581E029
:1002D00090E008952091580321111BC028ED3FEFB5
:1002E000309357032093560326E930E030935503AB
:1002F0002093540322E330E03093530320935203BE
:100300002AE030E0309351032093500321E0209302
:10031000580320915403309155038217930794F4A6
:100320002091500330915103281739075CF49093C2
:1003300053038093520390937B0480937A0480E06C
:1003400090E0089581E090E00895209158032111F4
:100350001BC028ED3FEF309357032093560326E947
:1003600030E0309355032093540322E330E0309380
:100370005303209352032AE030E03093510320933B
:10038000500321E0209358032091560330915703E6
:100390002817390794F420915203309153038217A0
:1003A00093075CF4909351038093500390937F04E0
:1003B00080937E0480E090E0089581E090E00895CD
:1003C000F894A89514BEE0E6F0E010828081886180
:1003D00080838FE4808378940895A89510925A03BF
:1003E000109259030895809160008F7B8093600084
:1003F000FFCF1F920F920FB60F92112481E090E071
:1004000090935A03809359030E94670482E00E94EC
:10041000C7050E9496050E948402FFCF0895CF93DE
:10042000DF93EC018FEC91E00E94AA0ABE0180E00C
:1004300090E00E94D80A85E092E0DF91CF910C9481
:10044000AA0A81E080935B0308958091740481344B
:1004500061F480917504833541F481E090E020914E
:100460007604253521F080E002C080E090E0E4E7EA
:10047000F4E020E033E13E0F4191240F3E13FCCF26
:1004800011F080E090E0089562E170E080E091E09A
:100490000E94B80E42E160E071E080E490E00C94CC
:1004A000AB030E94F403892BE1F742E164E774E0B7
:1004B00080E490E00E94DF030E942502892B49F42A
:1004C0000E94440242E164E774E080E490E00E940C
:1004D000DF0310925B0308950E94F403892B99F4C3
:1004E00080915B03882379F062E170E084E794E017
:1004F0000E94B80E42E164E774E080E490E00E945C
:10050000AB0310925B03089580915B03882379F01D
:1005100062E170E084E794E00E94B80E42E164E793
:1005200074E080E490E00E94C80310925B03089599
:100530001F920F920FB60F9211242F933F934F9358
:100540005F936F937F938F939F93AF93BF93EF933B
:10055000FF93209166033091670380915E03909131
:100560005F032817390749F080916603909167036C
:1005700001969093670380936603209168033091FE
:10058000690380916003909161032817390749F04E
:100590008091680390916903019690936903809319
:1005A00068038091620390916303A0916403B0910A
:1005B00065030196A11DB11D8093620390936303AF
:1005C000A0936403B09365030E940A04FF91EF9126
:1005D000BF91AF919F918F917F916F915F914F915B
:1005E0003F912F910F900FBE0F901F901895789408
:1005F00089EF87BD82E084BD93E095BD80936E0056
:1006000010926203109263031092640310926503C8
:1006100008958230910550F4F894880F991FFC01D9
:10062000EA59FC4F808191817894089580E090E0B0
:1006300008958230910598F4880F991FFC01EA59BA
:10064000FC4F40815181FC01E25AFC4F81E090E077
:10065000208131814217530721F080E0089580E026
:1006600090E008950F931F93CF93DF93EC018B01DC
:1006700080915C0390915D03892B41F40E94F70205
:1006800081E090E090935D0380935C03C230D105DC
:1006900070F48FB7F894CC0FDD1FFE01E25AFC4FC7
:1006A00011830083CA59DC4F198218828FBFDF91F2
:1006B000CF911F910F91089580915C0390915D03FC
:1006C000892B41F40E94F70281E090E090935D0352
:1006D00080935C03F894609162037091630380914E
:1006E000640390916503789408951F920F920FB65A
:1006F0000F9211248F939F93EF93FF93E091CA047D
:1007000080918904E81720F0FB98109286041AC0A3
:10071000809187049091880492BD81BD81E08E0F05
:100720008093CA04F0E0E657FB4F808180BD809142
:10073000870490918804019690938804809387049D
:10074000FA9AF99AFF91EF919F918F910F900FBEB6
:100750000F901F9018957894209186042111FCCF5A
:10076000909388048093870481E08093860410929C
:10077000CA0440938904FB012AE834E0D9018A2F96
:10078000821B841718F481918D93F9CFFB9A0895F9
:10079000FB01861B970B50E0DC01AE0FBF1F9F01D2
:1007A000261B370B2417350748F4F999FECFB2BD45
:1007B000A1BD219120BDFA9AF99AEECF089520911A
:1007C00086042111FCCFFB01861B970B2E2F261BC5
:1007D000241748F49C012E0F3F1F32BD21BDF89A0B
:1007E00020B52193F3CF08958091860490E0089579
:1007F00090936B0380936A0310926E0310926D03C3
:1008000010926C0360E070E080E090E00E943203A0
:100810000C94690480916A0390916B03892B09F40D
:1008200052C080E090E00E941903892B09F44BC06C
:1008300080916C03811134C020916D0330916E035F
:10084000E0916A03F0916B03E20FF31F8081803225
:10085000E9F03CF481111DC010926E0310926D03FB
:1008600008958D3239F08E32A1F40E9467046AEF48
:1008700070E004C00E9467046EEE72E080E090E0D9
:100880000E94320381E080936C03089568EE73E068
:100890000BC02F5F3F4F30936E0320936D0308957D
:1008A0000E94690464E670E080E090E00E943203F8
:1008B00010926C0380916D0390916E03019690935A
:1008C0006E0380936D030895219A29980895299ABB
:1008D00008952998089585B18695817090E00895CE
:1008E0008031910504F527E0289FA001299F500D34
:1008F0001124FA01EE58FC4F80818132A0F480E08F
:1009000090E020E0FC01E40FF51FEE58FC4F308131
:10091000230F019687309105A9F781E090E022230B
:1009200021F080E0089580E090E008956F927F923A
:100930008F929F92AF92BF92CF92DF92EF92FF92EF
:100940000F931F93CF93DF930E94F403892BE1F75A
:1009500002EE13E0C0E8D0E0BE016E507D4F47E0EC
:10096000CE010E94DF03F80111928F012796C03F4C
:10097000D10591F732E7E32E33E0F32E8701C0E093
:10098000D0E0D12C712C88248A94CE010E9470046E
:10099000892B41F0F8018081881520F47C2E882E67
:1009A000DD24D3942196095F1F4FC031D10569F72B
:1009B000DD2009F470C07092710380927003982C4E
:1009C000A12CB12CC72DD0E06E01FFEFCF1ADF0AAA
:1009D00027E0622E86010A0D1B1D0F701127C8012A
:1009E0000E947004892B61F470926F038E01015094
:1009F0001109609780E1C82ED12C97E0992E3EC056
:100A0000609EF001619EF00D1124EE58FC4F408174
:100A1000842F90E0292D30E02F5F3F4F2F71332737
:100A20008217930709F700937103409370038FEFC8
:100A3000A81AB80AEFE0AE16B104B1F2942ECACFEC
:100A4000F701808190E0282D30E0215E3F4F2F712B
:100A500033278217930731F5A0926F03969CF0011C
:100A6000979CF00D1124EE58FC4F80800150110925
:100A7000F7E0EF0EF11C0C171D07A1F0C801B6013D
:100A80000E9448175C013C017724C3010E94700456
:100A9000892BB1F607C08FE0809371031092700329
:100AA00010926F03DF91CF911F910F91FF90EF9004
:100AB000DF90CF90BF90AF909F908F907F906F907E
:100AC0000895FF920F931F93CF93DF930E94F40337
:100AD000892B31F5E2EEF3E0C0E0D0E0819188238C
:100AE000D9F087E08C9F80018D9F100D11240E5846
:100AF0001C4F67E070E0C8010E94B80E27E0C29F5B
:100B0000C001112447E0B80180589F4F0E94AB03F9
:100B1000CE51DC4F188204C02196C031D105F1F6C8
:100B2000DF91CF911F910F91FF900895FF920F9346
:100B30001F93CF93DF93E2EEF3E0C0E0D0E081912A
:100B40008823D9F087E08C9F80018D9F100D1124A0
:100B50000E581C4F67E070E0C8010E94B80E27E0F5
:100B6000C29FC001112447E0B80180589F4F0E94E6
:100B7000C803CE51DC4F188204C02196C031D10584
:100B8000F1F6DF91CF911F910F91FF900895EF92B1
:100B9000FF920F931F93CF93DF93E82EC0917103C1
:100BA000D0E02196CF70DD2780916F0390E00E9406
:100BB0007004F82E909170039F5F913218F4909317
:100BC000700302C01092700387E08C9F80018D9F9C
:100BD000100D11240E581C4F80917003F801808372
:100BE0000E949506F8016183728383839483E58272
:100BF000C093710367E070E0C8010E94B80ECE5147
:100C0000DC4F81E088839091710380916F0398138A
:100C100009C0FF2039F0892F90E001968F70992745
:100C200080936F03DF91CF911F910F91FF90EF9011
:100C30000895E2E7F3E0A2EEB3E08FEF4FEF5FEF4E
:100C4000BA0191E0808385834183528363837483F7
:100C50009D93379623E0E23EF207A1F78FE0809361
:100C6000710310926F031092700308950F931F93F6
:100C7000CF93DF9300916F03C02F10E0D0E0CE013F
:100C80000E947004892B29F02196CF701F5FC0133A
:100C9000F5CF812FDF91CF911F910F910895AF92E2
:100CA000BF92CF92DF92EF92FF920F931F93CF9359
:100CB000DF936B017C018A0159010E94360690E0A6
:100CC000A0E0B0E0C816D906EA06FB06F8F4809169
:100CD0006F0390E0C80ED91E8FE0C822DD2487E0A4
:100CE0008C9DF0018D9DF00D1124EE58FC4F8181FB
:100CF0009281A381B481E80188839983AA83BB830D
:100D00008581F501808381E090E002C080E090E081
:100D1000DF91CF911F910F91FF90EF90DF90CF90D7
:100D2000BF90AF9008950C947C0A0F931F930E947C
:100D30008C0A0091CB041091CC042091CD04309109
:100D4000CE04600F711F821F931F1F910F91089592
:100D50009C0160E971E00E943417892B79F0C90188
:100D600083709927892B61F4C90164E670E00E94C1
:100D700034179C0181E0232B21F402C081E0089507
:100D800080E008952F923F924F925F926F927F92F0
:100D90008F929F92AF92BF92CF92DF92EF92FF928B
:100DA0000F931F93CF93DF93CDB7DEB767970FB63F
:100DB000F894DEBF0FBECDBFAC018CE0E5E6F1E0FC
:100DC0009E012F5F3F4F1901D90101900D928A9525
:100DD000E1F7DA0111962C91119721538C91880F2C
:100DE0008056982F990F990F890F280F2D871396EA
:100DF0008C911397082E000C990BC0976AE0689F9E
:100E00009001699F300D11241496CC900C2C000C8D
:100E1000DD08B0E3CB1AD108C20ED31E8601015003
:100E20001109FA018681082E000C990BC097E8EE93
:100E3000F3E08E9F90018F9F300D9E9F300D112407
:100E4000DA0117968C911797082E000C990BC09712
:100E500074E6789F7001799FF00C1124E20EF31E66
:100E600018962C911897022E000C330B2053310941
:100E7000629FC001639F900D1124E80EF91E199620
:100E80008C911997F701E80FF11D87FDFA959F01E5
:100E9000385079011C962C911C9720531B968C91ED
:100EA0001B97880F8056982F990F990F890F280F3D
:100EB000298B1F962C911F9720531E968C911E975D
:100EC000880F8056982F990F990F890F280F2A8B1A
:100ED00052962C915297205351968C91880F8056A0
:100EE000982F990F990F890F280F2B8BC7010E94FC
:100EF000A806882321F03D85323008F08601C7011D
:100F000060E971E00E943417FC01DB0120E839E55B
:100F100040E650EF0E94AC172B013C01CF0164E684
:100F200070E00E943417FC01DB0120E032EC47E165
:100F30005CEB0E94AC174B015C01DF01B695A795F5
:100F4000B695A79520E83FE146E857E00E94AC1728
:100F50006B017C01DF01A370BB2720E833E341EE86
:100F600051E00E94AC176C8B7D8B8E8B9F8BF101B7
:100F70008E2F82194D85841720F48191080F111D41
:100F8000F7CF5989252F30E0A0E1BEE00E949D17E0
:100F90006D877E878F87988B8A89282F30E0ACE316
:100FA000B0E00E949D172D853E854F855889260FFC
:100FB000371F481F591FDA01C9013B89830F911D53
:100FC000A11DB11D480E591E6A1E7B1E840C951C66
:100FD000A61CB71CC80CD91CEA1CFB1C8C899D895B
:100FE000AE89BF89C80ED91EEA1EFB1ED80120E8B3
:100FF00031E541E050E00E94AC17DC01CB018C0DE3
:101000009D1DAE1DBF1D8093CB049093CC04A09377
:10101000CD04B093CE0467960FB6F894DEBF0FBE32
:10102000CDBFDF91CF911F910F91FF90EF90DF9097
:10103000CF90BF90AF909F908F907F906F905F9078
:101040004F903F902F900C94980AEF92FF920F933D
:101050001F93CF93DF93CDB7DEB768970FB6F894A1
:10106000DEBF0FBECDBF7B012CE0E5E6F1E0DE0187
:101070001D9601900D922A95E1F78E010F5F1F4F8B
:101080002CE0F80111922A95E9F70E94A8068A83BC
:10109000DE011D9680E0F701408151819D91F801AC
:1010A00021918F0130E0290F311D4217530740F085
:1010B000421B530BF701518340838F5F8C3059F7EC
:1010C00068960FB6F894DEBF0FBECDBFDF91CF910B
:1010D0001F910F91FF90EF9008954F925F926F9242
:1010E0007F928F929F92AF92BF92CF92DF92EF92B8
:1010F000FF920F931F93CF93DF9300D0CDB7DEB74E
:101100004B015C0181E090E0A0E0B0E020E88216B5
:1011100029E5920620E6A20620EFB20618F480E048
:1011200090E0DC0120E931E0829F8001839F100D77
:10113000929F100D1124F801E053F84FC12CD12CCF
:101140007601C39480E8881689E5980680E6A806AB
:1011500080EFB80618F4C12CD12C7601A7019601B6
:1011600060E879E580E690EF0E942417750164013C
:10117000C61AD70AE80AF90A81E090E0A0E0B0E0D8
:10118000C11422ECD20627E1E2062CEBF20618F499
:1011900080E090E0DC0124E6289F8001299F100D6B
:1011A00011240E0F1F1F21E030E040E050E0C11479
:1011B00082ECD80687E1E8068CEBF80618F420E00C
:1011C00030E0A90160E072EC87E19CEB0E942417FB
:1011D000A7019601261B370B480B590BCA01B90111
:1011E00020E83FE146E857E00E945C17220F331FDA
:1011F000220F331F020F131F20E833E341EE51E0AB
:101200000E945C176801C20ED31E20E831E541E060
:1012100050E00E945C174B015C013A832983BE01B8
:101220006F5F7F4FC6010E942508F82EC501B401EB
:1012300020E13EE040E050E00E945C1729013A01C5
:101240004B015C0169ED71E082E191E00E949F0930
:10125000EF2DF0E0BF016F5F7F4F42E082E191E050
:101260000E94B20989819A81BC016F5F7F4F42E081
:1012700085E191E00E94B20944E0B60188E191E085
:101280000E94B20942E0B2018DE191E00E94B209F0
:10129000C501B4012CE330E040E050E00E945C174F
:1012A00089019A016B017C0142E0B80180E291E082
:1012B0000E94B20942E0B60183E291E00E94B209C5
:1012C00082E191E00F900F90DF91CF911F910F91EC
:1012D000FF90EF90DF90CF90BF90AF909F908F9056
:1012E0007F906F905F904F9008950F931F930E948F
:1012F0008C0A0091CB041091CC042091CD04309144
:10130000CE04600F711F821F931F1F910F910C94C9
:101310006D08FB01480F591F8417950729F021918B
:10132000DC012D93CD01F8CF0895480F591F841784
:10133000950721F0FC016193CF01F9CF0895FC01DD
:10134000DB018D91BD01882311F08193F9CF1082CB
:101350000895FC019F01281B390B41914111FACFDF
:10136000C90108957F928F929F92AF92BF92CF92C0
:10137000DF92EF92FF920F931F93CF93DF9300D0F2
:1013800000D01F92CDB7DEB7FC017B019E012F5F1D
:101390003F4F4E0186E0880E911C01E010E069018C
:1013A0008AE0782E709E5001719EB00C1124C70106
:1013B000B5010E943417B8010E943417D9016D930A
:1013C0009D01E61AF10867FDF3948501A815B9059A
:1013D00049F760E070E024E030E050E0D601A20F71
:1013E000B31F8C91811106C06115710519F4211587
:1013F000310541F4241735072CF4805D819361E0B9
:1014000070E004C0241735070CF4319621503109DF
:1014100028F70F900F900F900F900F90DF91CF91C2
:101420001F910F91FF90EF90DF90CF90BF90AF9002
:101430009F908F907F90089588EC80937C0086E841
:1014400080937A00089580917A008295869586959A
:10145000837091E08927817090E00895EAE7F0E0D9
:101460008081806480830895809178002091790044
:1014700030E0322F2227A901330F660B770B9A0138
:10148000AB01282BA5E6B0E00E94AC176E5C7F4F45
:101490008F4F9F4F24E630E040E050E00E947E17DF
:1014A000DA01C90181519140A109B10908951F9242
:1014B0000F920FB60F9211248F939F93AF93BF9308
:1014C0008091F2039091F303A091F403B091F5039E
:1014D0000196A11DB11D8093F2039093F303A09395
:1014E000F403B093F503BF91AF919F918F910F904B
:1014F0000FBE0F901F901895789483E294EF90930D
:10150000890080938800109280008CE08093810095
:1015100082E080936F0008952FB7F8946091F203F2
:101520007091F3038091F4039091F5032FBF089518
:101530008FB7F8941092F2031092F3031092F40311
:101540001092F5038FBF08950E948914789408952E
:101550000C944D16CF93DF93EC018991882319F0F9
:101560000E944D16FACFDF91CF910895CF93C82FE7
:1015700090E024E0959587952A95E1F78A3010F45C
:10158000805D01C0895C0E944D168C2F8F708A305F
:1015900010F0895C01C0805DCF910C944D16CF9303
:1015A000C82F892F0E94B60A8C2FCF910C94B60AAF
:1015B0002F923F924F925F926F927F928F929F9263
:1015C000AF92BF92CF92DF92EF92FF920F931F9351
:1015D000CF93DF93CDB7DEB763970FB6F894DEBF36
:1015E0000FBECDBF6B017C0197FF0DC0F094E0945E
:1015F000D094C094C11CD11CE11CF11C81E090E08E
:101600009B8B8A8B02C01B8A1A8A8E010F5F1F4F29
:10161000FE013B96F98BE88B580166246394712C8C
:10162000812C912CAAE0B0E09301A4010E94AC1798
:101630001B012C01C701B6019101A2010E947E1776
:101640009301A4010E947E17F50121935F01822F6F
:10165000220F990BAA0BBB0BC81AD90AEA0AFB0A7C
:101660003101420188899989E817F907D9F6EA8991
:10167000FB89EF2B19F08DE20E944D16CE010B96DF
:101680007C0120E030E0F70182917F01811106C0EA
:101690002115310519F4E017F10729F4805D0E9446
:1016A0004D1621E030E0E016F10669F763960FB6BB
:1016B000F894DEBF0FBECDBFDF91CF911F910F9188
:1016C000FF90EF90DF90CF90BF90AF909F908F9062
:1016D0007F906F905F904F903F902F9008950C9463
:1016E00023160C944A16FF920F931F93CF93DF9308
:1016F000EC01062FF72E18820E94231610E0882393
:10170000D9F00E94F7158823B9F00E94FE158032A7
:1017100010F089931F5FE02FFF2D482F50E021919B
:10172000222339F0022E000C330B42175307B9F76E
:1017300002C08D3051F71882812FDF91CF911F9118
:101740000F91FF9008958DEE91E00E94AA0A83EF19
:1017500091E00E94AA0A85E092E00C94AA0ACF9335
:10176000DF93EC0182E20E94A80ACE010E94AA0A3D
:1017700082E2DF91CF910C94A80A8EEF91E00C9455
:10178000AA0ACF93DF938FEB92E00E94AA0A88E027
:1017900092E00E94AA0A85E092E00E94AA0A8DEBDC
:1017A00092E00E94AA0A8FE092E00E94AA0A80E2D8
:1017B0000E94A80AC4E7D4E06C817D81072E000C4A
:1017C000880B990B0E94D80A85E092E00E94AA0A31
:1017D0008DEB92E00E94AA0A88E192E00E94AA0A98
:1017E00080E20E94A80A6E817F81072E000C880B80
:1017F000990B0E94D80A85E092E00E94AA0A8DEB1C
:1018000092E00E94AA0A81E292E00E94AA0A80E283
:101810000E94A80A68857985072E000C880B990B11
:101820000E94D80A85E092E00E94AA0A8DEB92E01D
:101830000E94AA0A8AE292E00E94AA0A80E20E941A
:10184000A80A6A857B85072E000C880B990B0E94DD
:10185000D80A85E092E0DF91CF910C94AA0ACF9349
:10186000DF930E946D08EC011A8682E20E94A80AAA
:10187000CE010E94AA0A82E2DF91CF910C94A80ABD
:1018800063E372E086EF93E00E94730B882349F0D4
:10189000E82FF0E0EB50FC4F80818F3289F38032EB
:1018A00079F3089520917804309179048217930791
:1018B0001CF086E392E020C020917A0430917B04F2
:1018C000821793071CF08EE392E016C020917E04ED
:1018D00030917F04281739071CF486E492E00CC08D
:1018E00020917C0430917D04281739071CF48DE485
:1018F00092E002C085E592E00C94AA0A8FEB92E098
:101900000E94AA0A8DE592E00E94AA0A85E092E070
:101910000E94AA0A8DEB92E00E94AA0A82E692E057
:101920000E94AA0A80E20E94A80A60914A0370916C
:101930004B03072E000C880B990B0E94D80A85E0F8
:1019400092E00E94AA0A8DEB92E00E94AA0A8DEE14
:1019500091E00E94AA0A80E20E94A80A80914A03AC
:1019600090914B030E94520C85E092E00C94AA0ADD
:101970001F93CF93DF93809169040E94B60ACAE651
:10198000D4E01C2F1B5F8AE30E94A80A89910E9461
:10199000B60A1C13F8CFDF91CF911F9108958FEBFA
:1019A00092E00E94AA0A88E692E00E94AA0A85E0D4
:1019B00092E00E94AA0A8DEB92E00E94AA0A8CE6AD
:1019C00092E00E94AA0A80E20E94A80A81E494E0C0
:1019D0000E94AF0B85E092E00E94AA0A8DEB92E094
:1019E0000E94AA0A82E792E00E94AA0A80E20E946C
:1019F000A80A8DE494E00E94AF0B85E092E00E947B
:101A0000AA0A8DEB92E00E94AA0A8FE792E00E9458
:101A1000AA0A80E20E94A80A89E594E00E94AF0B1E
:101A200085E092E00E94AA0A8DEB92E00E94AA0A49
:101A30008DE892E00E94AA0A80E20E94A80A6091C2
:101A400065047091660480916704909168040E9417
:101A50002F0C85E092E00E94AA0A8DEB92E00E9492
:101A6000AA0A8EE992E00E94AA0A80E20E94A80ACD
:101A70000E94B80C85E092E00E94AA0A8DEB92E0E9
:101A80000E94AA0A8AEA92E00E94AA0A80E20E94C0
:101A9000A80A8FE694E00E94AF0B85E092E00C94D8
:101AA000AA0A2F923F924F925F926F927F928F92EB
:101AB0009F92AF92BF92CF92DF92EF92FF920F93DD
:101AC0001F93CF93DF93CDB7DEB768970FB6F89427
:101AD000DEBF0FBECDBF8C016115710509F498C042
:101AE000412C512C3201CB01A0E0B0E08B8B9C8BC0
:101AF000AD8BBE8BDE0111961D018B899C89AD8952
:101B0000BE89481659066A067B0608F081C0812FF7
:101B10000E94B60A802F807F0E94B60A80E20E944F
:101B2000A80A5801C12CD12C7601B1016C0D7D1D84
:101B300041E0C5010E94DF03BFEFAB1ABB0AEFEF24
:101B4000CE1ADE0AEE0AFE0AFFEF4F1A5F0A6F0A8C
:101B50007F0A8B899C89AD89BE89481659066A0619
:101B60007B0670F0DA8AC98A48019FE089229924AD
:101B700000E010E09601280D391D388F2F8B06C02C
:101B8000C5018F709927892B81F6ECCF08151905AF
:101B900028F02F89388D0217130728F087EB92E081
:101BA0000E94AA0A0BC0F801E819F909E20DF31D19
:101BB00080810E94B60A80E20E94A80A0F5F1F4F30
:101BC0000031110519F700E010E00815190531F092
:101BD00080E20E94A80A0F5F1F4FF7CF8101C80162
:101BE0008219930929893A898217930758F4D801F1
:101BF0008D918D0190EE980F903608F08EE20E9444
:101C0000A80AEDCF85E092E00E94AA0A850175CF6F
:101C100068960FB6F894DEBF0FBECDBFDF91CF91AF
:101C20001F910F91FF90EF90DF90CF90BF90AF90FA
:101C30009F908F907F906F905F904F903F902F90EC
:101C40000895CF92DF92EF92FF92CF93DF9300D06F
:101C500000D01F92CDB7DEB76C01E12CF12C9E01B4
:101C60002B5F3F4FAE014F5F5F4FC701B6010E9430
:101C70004F068DEB92E00E94AA0AC701B6010E94AE
:101C8000D80A85E092E00E94AA0A8BEB92E00E94BB
:101C9000AA0A83EC92E00E94AA0A80E20E94A80AA3
:101CA00082E20E94A80A69817A818B819C810E94CC
:101CB0006D080E94AA0A82E20E94A80A85E092E0CA
:101CC0000E94AA0A8BEB92E00E94AA0A8DEC92E095
:101CD0000E94AA0A80E20E94A80A6D8170E080E05A
:101CE00090E00E94D80A85E092E00E94AA0A0F9034
:101CF0000F900F900F900F90DF91CF91FF90EF908A
:101D0000DF90CF900895CF938FEB92E00E94AA0AC4
:101D100086ED92E00E94AA0A85E092E00E94AA0A5B
:101D2000C0E00E943606C81730F48C2F90E00E9465
:101D3000210ECF5FF6CFCF910895DC01FB019D917D
:101D4000992341F08191891784F09817C4F78FEF98
:101D50009FEF089581E090E02081211102C080E092
:101D600090E0919581959109089581E090E0089522
:101D7000DC0190E020E061507109422F50E0FD014C
:101D8000E40FF51F4617570720F48081980F2F5F47
:101D9000F4CF9195908308956115710581059105A2
:101DA00041F060932A0170932B0180932C01909352
:101DB0002D01211531054105510541F020932601E2
:101DC00030932701409328015093290108954F92A1
:101DD0005F926F927F928F929F92AF92BF92CF92BB
:101DE000DF92EF92FF92CF93DF9300D000D0CDB778
:101DF000DEB72B013C0129833A834B835C83C0907F
:101E00002601D0902701E0902801F0902901A70138
:101E1000960144275527A9E6B0E90E94AC1767014F
:101E2000EE24FF244B015C018C0C9D1CAE1CBF1CDE
:101E30008092260190922701A0922801B092290158
:101E4000C0902A01D0902B01E0902C01F0902D0140
:101E5000A701960144275527A0E5B6E40E94AC17D8
:101E60006701EE24FF24C60ED71EE81EF91EC0929D
:101E70002A01D0922B01E0922C01F0922D01D40185
:101E800099278827BC01CD016C0D7D1D8E1D9F1DDE
:101E900029813A814B815C8124193509460957090A
:101EA0000E945C17CB01840D951D0F900F900F9031
:101EB0000F90DF91CF91FF90EF90DF90CF90BF9088
:101EC000AF909F908F907F906F905F904F9008950C
:101ED000CF93DB01FC0120812D3221F401964FEFDD
:101EE0005FEF02C041E050E011961C921E92FC018F
:101EF000CAE020818D919C9111972223C1F0C89F47
:101F0000B001C99F700D112411967C936E9321919D
:101F100080ED820F8A30B8F4022E000C330B205370
:101F20003109260F371F11963C932E93E2CF849FE1
:101F30009001859F300D949F300D11242D933C937B
:101F400081E090E002C080E090E0CF910895EF92B0
:101F5000FF921F93CF93DF93CDB7DEB727970FB6CE
:101F6000F894DEBF0FBECDBF63E372E086EF93E06F
:101F70000E94730B6AED72E086EF93E00E949D0E63
:101F8000892B09F0B2C263E372E086EF93E00E940E
:101F9000730B61EC72E086EF93E00E949D0E892B3B
:101FA00009F0B8C363E372E086EF93E00E94730B1D
:101FB0006FED72E086EF93E00E949D0E892BB9F4DD
:101FC00081EC92E00E94AA0A8FED92E00E94AA0A98
:101FD00085E092E00E94AA0A0E94CF0C0E94C10BE9
:101FE0000E947E0C0E94830E8FEB92E07DC066EE15
:101FF00072E086EF93E00E949D0E892B09F08AC360
:1020000063E372E086EF93E00E94730B68E672E090
:1020100086EF93E00E949D0E892B79F481EC92E08B
:102020000E94AA0A8FED92E00E94AA0A85E092E03F
:102030000E94AA0A0E94CF0C1BC468E072E086EFDF
:1020400093E00E949D0E892B79F481EC92E00E942E
:10205000AA0A8FED92E00E94AA0A85E092E00E940F
:10206000AA0A0E94C10B04C46DE572E086EF93E0FA
:102070000E949D0E892B79F481EC92E00E94AA0ABD
:102080008FED92E00E94AA0A85E092E00E94AA0ADF
:102090000E947E0CEDC366ED72E086EF93E00E9435
:1020A0009D0E892B79F481EC92E00E94AA0A8FEDB3
:1020B00092E00E94AA0A85E092E00E94AA0A0E9489
:1020C000830ED6C36DEE71E086EF93E00E949D0E05
:1020D000892B79F481EC92E00E94AA0A8FED92E0BC
:1020E0000E94AA0A81EC92E00E94AA0A0E94A30B15
:1020F000BFC36EEE72E086EF93E00E949D0E892BC7
:1021000009F0C5C063E372E086EF93E00E94730BB1
:102110006CE672E086EF93E00E949D0E892BB1F48D
:1021200081EC92E00E94AA0A86EE92E00E94AA0A3E
:102130008EEE92E00E94AA0A8CE692E00E94AA0A21
:1021400080E20E94A80A81E494E09EC062E772E007
:1021500086EF93E00E949D0E892BB1F481EC92E012
:102160000E94AA0A86EE92E00E94AA0A8EEE92E0EF
:102170000E94AA0A82E792E00E94AA0A80E20E94D4
:10218000A80A8DE494E080C06FE772E086EF93E0E8
:102190000E949D0E892BB1F481EC92E00E94AA0A64
:1021A00086EE92E00E94AA0A8EEE92E00E94AA0AAF
:1021B0008FE792E00E94AA0A80E20E94A80A89E5BD
:1021C00094E062C06DE872E086EF93E00E949D0E9D
:1021D000892BF1F481EC92E00E94AA0A86EE92E04B
:1021E0000E94AA0A8EEE92E00E94AA0A8DE892E06E
:1021F0000E94AA0A80E20E94A80A60916504709178
:10220000660480916704909168040E942F0C2CC38F
:102210006EE972E086EF93E00E949D0E892BB1F487
:1022200081EC92E00E94AA0A86EE92E00E94AA0A3D
:102230008EEE92E00E94AA0A8EE992E00E94AA0A1B
:1022400080E20E94A80A0E94B80C0EC36AEA72E0FB
:1022500086EF93E00E949D0E892B09F05BC281EC12
:1022600092E00E94AA0A86EE92E00E94AA0A8EEEEE
:1022700092E00E94AA0A8AEA92E00E94AA0A80E2F8
:102280000E94A80A8FE694E00E94AF0BEDC263EFB4
:1022900072E086EF93E00E949D0E892B41F563E387
:1022A00072E086EF93E00E94730B6FE072E086EFBE
:1022B00093E00E949D0E892B09F491C168E172E0C0
:1022C00086EF93E00E949D0E892B09F4BFC161E265
:1022D00072E086EF93E00E949D0E892B09F4EBC11A
:1022E0006AE272E086EF93E00E949D0E1CC26BEFE3
:1022F00072E086EF93E00E949D0E892B09F049C0A1
:1023000063E372E086EF93E00E94730B62E672E093
:1023100086EF93E00E949D0E892BC1F481EC92E040
:102320000E94AA0A86EE92E00E94AA0A8BEF92E02F
:102330000E94AA0A82E692E00E94AA0A80E20E9413
:10234000A80A60914A0370914B0306C26DEE71E0DA
:1023500086EF93E00E949D0E892B09F0DBC181EC92
:1023600092E00E94AA0A86EE92E00E94AA0A8BEFEF
:1023700092E00E94AA0A8DEE91E00E94AA0A80E2F1
:102380000E94A80A80914A0390914B030E94520C2C
:102390006BC261E073E086EF93E00E949D0E892B93
:1023A00009F0B8C163E372E086EF93E00E94730B1B
:1023B000E82FF0E0E230F10540F0EB50FC4F808177
:1023C0008F3219F4108211E001C010E0BE016B5F82
:1023D0007F4F86EF93E00E94680F892B09F49AC122
:1023E000ED80FE800E94360690E0E816F9060CF0BB
:1023F00091C1111105C08D819E810E94210E38C2AC
:1024000063E372E086EF93E00E94730B6D817E813F
:10241000072E000C880B990B9E01295F3F4FAE01E0
:102420004F5F5F4F0E944F0663EC72E086EF93E0D0
:102430000E949D0E892B69F581EC92E00E94AA0A08
:1024400086EE92E00E94AA0A81E093E00E94AA0A26
:102450006D817E81072E000C880B990B0E94D80A93
:102460008FE20E94A80A83EC92E00E94AA0A80E20E
:102470000E94A80A82E20E94A80A69817A818B815F
:102480009C810E946D080E94AA0A82E20E94A80A0A
:10249000EBC16DEC72E086EF93E00E949D0E892BFC
:1024A00009F038C181EC92E00E94AA0A86EE92E01F
:1024B0000E94AA0A81E093E00E94AA0A6D817E81AF
:1024C000072E000C880B990B0E94D80A8FE20E94FD
:1024D000A80A8DEC92E00E94AA0A80E20E94A80A53
:1024E0006F8170E080E090E03BC166E073E086EFD2
:1024F00093E00E949D0E892B09F072C163E372E0A4
:1025000086EF93E00E94730B61EC72E086EF93E03C
:102510000E949D0E892B09F0FDC063E372E086EFF7
:1025200093E00E94730B66EE72E086EF93E00E94E8
:102530009D0E892B09F0EEC063E372E086EF93E015
:102540000E94730B6BE073E086EF93E00E949D0E98
:10255000892BB9F463E372E086EF93E00E94730B7A
:1025600062E173E086EF93E00E949D0E892B09F0F3
:10257000D1C081E00E94C7050E9496050E94F30128
:1025800077C163EF72E086EF93E00E949D0E892B86
:1025900009F0E9C063E372E086EF93E00E94730BF9
:1025A0006AE173E086EF93E00E949D0E892B79F536
:1025B00063E372E086EF93E00E94730BBE016F5FEE
:1025C0007F4F86EF93E00E94680F892B09F4A2C029
:1025D00089819A810E940201892B09F09BC081ECBC
:1025E00092E00E94AA0A86EE92E00E94AA0A83EF75
:1025F00092E00E94AA0A8FE092E00E94AA0A80E27A
:102600000E94A80A6091780470917904A5C064E2E0
:1026100073E086EF93E00E949D0E892B79F563E3CA
:1026200072E086EF93E00E94730BBE016F5F7F4FF5
:1026300086EF93E00E94680F892B09F46BC08981B3
:102640009A810E946A01892B09F064C081EC92E0B2
:102650000E94AA0A86EE92E00E94AA0A83EF92E004
:102660000E94AA0A88E192E00E94AA0A80E20E94DF
:10267000A80A60917A0470917B046EC06EE273E0E8
:1026800086EF93E00E949D0E892B69F563E372E06B
:1026900086EF93E00E94730BBE016F5F7F4F86EF62
:1026A00093E00E94680F892BA9F189819A810E9489
:1026B0003601892B79F581EC92E00E94AA0A86EE18
:1026C00092E00E94AA0A83EF92E00E94AA0A81E2A5
:1026D00092E00E94AA0A80E20E94A80A60917C040B
:1026E00070917D0439C068E373E086EF93E00E9447
:1026F0009D0E892B79F463E372E086EF93E00E94EC
:10270000730BBE016F5F7F4F86EF93E00E94680FEF
:10271000892B29F40E94BD0B0E94400CA9C089811D
:102720009A810E94A501892BA9F781EC92E00E9471
:10273000AA0A86EE92E00E94AA0A83EF92E00E9423
:10274000AA0A8AE292E00E94AA0A80E20E94A80AEB
:1027500060917E0470917F04072E000C880B990B0A
:102760000E94D80A81C06BEF72E086EF93E00E946E
:102770009D0E892B79F663E372E086EF93E00E9469
:10278000730B6BE073E086EF93E00E949D0E892B44
:1027900009F663E372E086EF93E00E94730B66E450
:1027A00072E086EF93E00E949D0E892B09F0B2CF74
:1027B0000E94570081EC92E00E94AA0A86EE92E005
:1027C0000E94AA0A8BEF92E00E94AA0A8DEE91E085
:1027D0000E94AA0A80E20E94A80A86E492E042C00F
:1027E00062E473E086EF93E00E949D0E892B09F06E
:1027F00091CF63E372E086EF93E00E94730B61EC8C
:1028000072E086EF93E00E949D0E892B09F082CF43
:1028100063E372E086EF93E00E94730B66EE72E072
:1028200086EF93E00E949D0E892B09F073CF63E33E
:1028300072E086EF93E00E94730B66ED72E086EF24
:1028400093E00E949D0E892B09F064CF0E94190627
:1028500081EC92E00E94AA0A86EE92E00E94AA0A07
:1028600086ED92E00E94AA0A85E092E00E94AA0A00
:1028700027960FB6F894DEBF0FBECDBFDF91CF9184
:102880001F91FF90EF90089580913D04833561F48E
:1028900080913E04853441F481E090E020913F0432
:1028A000223521F080E002C080E090E0EDE3F4E02A
:1028B00020E038E33E0F4191240F3E13FCCF11F08E
:1028C00080E090E0089567E370E08EE291E00E947E
:1028D000B80E47E36EE271E080E090E00C94AB0349
:1028E0000E94F403892BE1F747E36DE374E080E095
:1028F00090E00E94DF030E944414892B49F40E9457
:10290000631447E36DE374E080E090E00C94DF0330
:1029100008951092C00087E690E09093C5008093E0
:10292000C400E1ECF0E088E1808386E08093C2009F
:102930008081806A808308951F920F920FB60F9254
:1029400011242F933F938F939F93EF93FF93809145
:102950003C04882309F4F0C08091C60090913B04A8
:10296000992309F4E3C090EE980F9F3518F08D304D
:1029700009F059C0209138049091390430E0291BA6
:102980003109215031092F733327232B61F0E09156
:102990003904F0E0E153FB4F8083909139049F5F4D
:1029A0009F7390933904209136049091370430E05E
:1029B000291B3109215031092F733327232B89F02B
:1029C000E0913704F0E0E15FFA4F808390913704A3
:1029D0009F5F9F73909337049091C1009062909392
:1029E000C1008D3009F0C5C08091360420913704B4
:1029F00090E0821B910901978F739927892B69F0C9
:102A0000E0913704F0E0E15FFA4F8AE08083809143
:102A100037048F5F8F738093370480913A048F5F00
:102A200080933A04A6C0883011F08F37C1F58091A9
:102A300039042091380490E0821B91098F73992703
:102A4000892B09F496C0E0913904F0E0E153FB4F83
:102A500080818091390481508F73809339048091F3
:102A600036042091370490E0821B910901978F73FF
:102A70009927892B09F47DC0E0913704F0E0E15FEC
:102A8000FA4F8FE78083809137048F5F8F73809335
:102A900037048091C10080628093C1006AC0843095
:102AA00009F067C0809139042091380490E0821BBE
:102AB00091098F739927892B31F1E0913904F0E066
:102AC000E153FB4F80818D30F1F0809138042091EB
:102AD000390490E0821B910901978F739927892B04
:102AE00091F0E0913904F0E0E153FB4F8DE08083F9
:102AF000809139048F5F8F738093390480913A04F9
:102B00008F5F80933A04809138042091390490E0DB
:102B1000821B910901978F739927892B51F1E091BD
:102B20003904F0E0E153FB4F84E019C0833009F52C
:102B300081E080933B041DC08091380420913904CA
:102B400090E0821B910901978F739927892B79F067
:102B5000E0913904F0E08091C600E153FB4F80839F
:102B6000809139048F5F8F738093390402C0809104
:102B7000C600FF91EF919F918F913F912F910F9000
:102B80000FBE0F901F9018951F920F920FB60F92C5
:102B900011242F938F939F93EF93FF93809137048A
:102BA0002091360490E0821B91098F739927892B1D
:102BB00079F0E0913604F0E0E15FFA4F8081809394
:102BC000C600809136048F5F8F738093360405C0F2
:102BD0008091C1008F7D8093C100FF91EF919F9103
:102BE0008F912F910F900FBE0F901F90189580918D
:102BF000390490913804891B8F73089580913904AA
:102C00002091380490E0821B91098F739927892BBA
:102C1000C1F0E0913804F0E0E153FB4F80819091E6
:102C200038049F5F9F739093380490913C049923DC
:102C300049F08D3039F490913A04915090933A04D0
:102C4000089580E0089581E080933C0480913904E8
:102C50002091380490E0821B91098F739927892B6A
:102C6000B1F0E0913804F0E0E153FB4F8081843013
:102C700071F410923B04E0913804F0E0E153FB4F13
:102C80008081809138048F5F8F73809338048091A6
:102C90003B04089580913A0408950FB607FE0EC0D4
:102CA000209136049091370430E0291B31092150DE
:102CB00031092F733327232B99F30DC0209136044C
:102CC0009091370430E0291B3109215031092F73CD
:102CD0003327232B61F0E0913704F0E0E15FFA4FF6
:102CE0008083809137048F5F8F7380933704809146
:102CF000C10080628093C10008951F93CF93DF933A
:102D0000EC0190E011E0190FFE01E90FF11D808147
:102D1000882321F00E944D16912FF4CFDF91CF919F
:102D20001F9108951F93CF93DF93EC0190E011E082
:102D3000190FFE01E90FF11D8491882321F00E94F3
:102D40004D16912FF4CFDF91CF911F9108950E94DE
:102D500093060E9470140E9451020E9496040E94E1
:102D60000E020E94A40A0E9464040E941C0A0E948F
:102D7000E0010E94530081E791E00E94AA0A82E9E3
:102D800091E00E94AA0A85E092E00E94AA0A80E0EF
:102D90000E94C7050E942E0A68E873E181E090E076
:102DA0000E943203C0E00E94ED0181E090E00E94A9
:102DB0001903892B09F10E94340A90934B038093E5
:102DC0004A0300917E0410917F0420917C0430918D
:102DD0007D0440917A0450917B0460917804709155
:102DE00079040E945C000E942E0A68EE73E081E084
:102DF00090E00E943203D7CFC11109C00E946F0B2F
:102E0000882389F280EA91E00E94AA0A1BC00E94EE
:102E1000710B882359F00E94A70F0E946F0B81113C
:102E200011C089EB91E00E94AA0ABCCF0E94F40372
:102E3000892B11F40E9461050E94F403892B11F47F
:102E40000E946C02C1E0AFCFDB018F939F930E9481
:102E5000AC17BF91AF91A29F800D911DA39F900DC4
:102E6000B29F900D11240895AA1BBB1B51E107C00E
:102E7000AA1FBB1FA617B70710F0A61BB70B881F0A
:102E8000991F5A95A9F780959095BC01CD01089599
:102E900097FB072E16F4009407D077FD09D00E9407
:102EA000341707FC05D03EF4909581959F4F089507
:102EB000709561957F4F0895A1E21A2EAA1BBB1B46
:102EC000FD010DC0AA1FBB1FEE1FFF1FA217B307F6
:102ED000E407F50720F0A21BB30BE40BF50B661F0C
:102EE000771F881F991F1A9469F7609570958095D0
:102EF00090959B01AC01BD01CF010895052E97FB74
:102F00001EF400940E94951757FD07D00E945C178D
:102F100007FC03D04EF40C949517509540953095CE
:102F200021953F4F4F4F5F4F089590958095709535
:102F300061957F4F8F4F9F4F0895A29FB001B39F20
:102F4000C001A39F700D811D1124911DB29F700DB2
:102F5000811D1124911D08950E949D17A59F900D1C
:102F6000B49F900DA49F800D911D11240895F89495
:022F7000FFCF91
:102F720041535500FF03FE030000010000C0A801F9
:102F8200640030302F30302F303030302030303A43
:102F920030303A303000E5559A15B53B121F534593
:102FA200520053616E647900000000000000446F1B
:102FB20075676C617300000000005F554E4153530A
:102FC20049474E45440000000000444F5553414ECE
:102FD20055534100001F1C1F1E1F1E1F1F1E1F1EB8
:102FE2001F5345523438362050726F6A656374201D
:102FF20033202D20496E746567726174696F6E0D9E
:103002000A006E756269616E5F746573666169005C
:10301200436F6E6E656374696F6E2045737461628F
:103022006C69736865640D0A00436F6E6E65637444
:10303200696F6E204C6F73740D0A002D002E000D07
:103042000A414C41524D3A200030302F30302F305F
:103052003030302030303A30303A303000737461E2
:1030620074650020226865616C7468792200494E9B
:1030720056414C49440D0A00636F6E6669670074DD
:10308200637269745F686900747761726E5F686900
:103092000074637269745F6C6F00747761726E5F43
:1030A2006C6F002F2000435249545F48490057413A
:1030B200524E5F4849004E4F524D414C00574152CB
:1030C2004E5F4C4F00435249545F4C4F0074656D44
:1030D200700076616C756500767064006D6F646572
:1030E2006C006D616E7566616374757265720073F2
:1030F200657269616C5F6E756D626572006D616E9D
:1031020075666163747572655F64617465006D6193
:10311200635F6164647265737300636F756E74726A
:10312200795F636F6465002020200020202020202A
:10313200202F0074696D657374616D70006576652A
:103142006E746E756D006C6F6700474554200064A5
:103152006576696365006465766963652F007670DC
:10316200642F00636F6E6669672F0074656D702F40
:10317200006C6F672F0050555420007374617465A2
:103182002000227265736574220074637269745F31
:1031920068692000747761726E5F686920007463E9
:1031A2007269745F6C6F2000747761726E5F6C6F0E
:0A31B200200044454C455445200020
:00000001FF
